{"contracts/ValorTokenFactory.sol":{"JAXXServerFactory":{"abi":[{"inputs":[{"internalType":"address","name":"_sovereign","type":"address"}],"stateMutability":"nonpayable","type":"constructor"},{"inputs":[],"name":"AccessControlBadConfirmation","type":"error"},{"inputs":[{"internalType":"address","name":"account","type":"address"},{"internalType":"bytes32","name":"neededRole","type":"bytes32"}],"name":"AccessControlUnauthorizedAccount","type":"error"},{"inputs":[],"name":"ReentrancyGuardReentrantCall","type":"error"},{"anonymous":false,"inputs":[{"indexed":false,"internalType":"uint256","name":"totalTokens","type":"uint256"},{"indexed":false,"internalType":"uint256","name":"timestamp","type":"uint256"}],"name":"CanonComplete","type":"event"},{"anonymous":false,"inputs":[{"indexed":true,"internalType":"bytes32","name":"role","type":"bytes32"},{"indexed":true,"internalType":"bytes32","name":"previousAdminRole","type":"bytes32"},{"indexed":true,"internalType":"bytes32","name":"newAdminRole","type":"bytes32"}],"name":"RoleAdminChanged","type":"event"},{"anonymous":false,"inputs":[{"indexed":true,"internalType":"bytes32","name":"role","type":"bytes32"},{"indexed":true,"internalType":"address","name":"account","type":"address"},{"indexed":true,"internalType":"address","name":"sender","type":"address"}],"name":"RoleGranted","type":"event"},{"anonymous":false,"inputs":[{"indexed":true,"internalType":"bytes32","name":"role","type":"bytes32"},{"indexed":true,"internalType":"address","name":"account","type":"address"},{"indexed":true,"internalType":"address","name":"sender","type":"address"}],"name":"RoleRevoked","type":"event"},{"anonymous":false,"inputs":[{"indexed":true,"internalType":"string","name":"symbol","type":"string"},{"indexed":false,"internalType":"address","name":"tokenAddress","type":"address"},{"indexed":false,"internalType":"string","name":"category","type":"string"},{"indexed":false,"internalType":"bool","name":"isProtected","type":"bool"},{"indexed":false,"internalType":"uint256","name":"supply","type":"uint256"}],"name":"TokenDeployed","type":"event"},{"inputs":[],"name":"BRAND","outputs":[{"internalType":"string","name":"","type":"string"}],"stateMutability":"view","type":"function"},{"inputs":[],"name":"BTC_ANCHOR","outputs":[{"internalType":"string","name":"","type":"string"}],"stateMutability":"view","type":"function"},{"inputs":[],"name":"CANON_SIZE","outputs":[{"internalType":"uint256","name":"","type":"uint256"}],"stateMutability":"view","type":"function"},{"inputs":[],"name":"DEFAULT_ADMIN_ROLE","outputs":[{"internalType":"bytes32","name":"","type":"bytes32"}],"stateMutability":"view","type":"function"},{"inputs":[],"name":"DEFAULT_DECIMALS","outputs":[{"internalType":"uint8","name":"","type":"uint8"}],"stateMutability":"view","type":"function"},{"inputs":[],"name":"DEFAULT_SUPPLY","outputs":[{"internalType":"uint256","name":"","type":"uint256"}],"stateMutability":"view","type":"function"},{"inputs":[],"name":"DEPLOYER_ROLE","outputs":[{"internalType":"bytes32","name":"","type":"bytes32"}],"stateMutability":"view","type":"function"},{"inputs":[],"name":"LOGO_URI","outputs":[{"internalType":"string","name":"","type":"string"}],"stateMutability":"view","type":"function"},{"inputs":[],"name":"MERKLE_ROOT","outputs":[{"internalType":"string","name":"","type":"string"}],"stateMutability":"view","type":"function"},{"inputs":[],"name":"SOVEREIGN_ROLE","outputs":[{"internalType":"bytes32","name":"","type":"bytes32"}],"stateMutability":"view","type":"function"},{"inputs":[],"name":"deployFullCanon","outputs":[],"stateMutability":"nonpayable","type":"function"},{"inputs":[{"internalType":"string","name":"name_","type":"string"},{"internalType":"string","name":"symbol_","type":"string"},{"internalType":"uint256","name":"supply_","type":"uint256"},{"internalType":"string","name":"category_","type":"string"},{"internalType":"bool","name":"isProtected_","type":"bool"}],"name":"deployToken","outputs":[{"internalType":"address","name":"","type":"address"}],"stateMutability":"nonpayable","type":"function"},{"inputs":[{"internalType":"uint256","name":"","type":"uint256"}],"name":"deployedTokens","outputs":[{"internalType":"string","name":"","type":"string"}],"stateMutability":"view","type":"function"},{"inputs":[],"name":"getAllDeployedTokens","outputs":[{"internalType":"string[]","name":"","type":"string[]"}],"stateMutability":"view","type":"function"},{"inputs":[],"name":"getDeployedTokenCount","outputs":[{"internalType":"uint256","name":"","type":"uint256"}],"stateMutability":"view","type":"function"},{"inputs":[],"name":"getFactoryStatus","outputs":[{"internalType":"uint256","name":"deployed","type":"uint256"},{"internalType":"uint256","name":"remaining","type":"uint256"},{"internalType":"bool","name":"complete","type":"bool"},{"internalType":"address","name":"sovereign","type":"address"}],"stateMutability":"view","type":"function"},{"inputs":[{"internalType":"bytes32","name":"role","type":"bytes32"}],"name":"getRoleAdmin","outputs":[{"internalType":"bytes32","name":"","type":"bytes32"}],"stateMutability":"view","type":"function"},{"inputs":[{"internalType":"string","name":"symbol_","type":"string"}],"name":"getTokenAddress","outputs":[{"internalType":"address","name":"","type":"address"}],"stateMutability":"view","type":"function"},{"inputs":[{"internalType":"bytes32","name":"role","type":"bytes32"},{"internalType":"address","name":"account","type":"address"}],"name":"grantRole","outputs":[],"stateMutability":"nonpayable","type":"function"},{"inputs":[{"internalType":"bytes32","name":"role","type":"bytes32"},{"internalType":"address","name":"account","type":"address"}],"name":"hasRole","outputs":[{"internalType":"bool","name":"","type":"bool"}],"stateMutability":"view","type":"function"},{"inputs":[],"name":"isCanonComplete","outputs":[{"internalType":"bool","name":"","type":"bool"}],"stateMutability":"view","type":"function"},{"inputs":[{"internalType":"address","name":"","type":"address"}],"name":"isValorToken","outputs":[{"internalType":"bool","name":"","type":"bool"}],"stateMutability":"view","type":"function"},{"inputs":[{"internalType":"bytes32","name":"role","type":"bytes32"},{"internalType":"address","name":"callerConfirmation","type":"address"}],"name":"renounceRole","outputs":[],"stateMutability":"nonpayable","type":"function"},{"inputs":[{"internalType":"bytes32","name":"role","type":"bytes32"},{"internalType":"address","name":"account","type":"address"}],"name":"revokeRole","outputs":[],"stateMutability":"nonpayable","type":"function"},{"inputs":[],"name":"sovereignAddress","outputs":[{"internalType":"address","name":"","type":"address"}],"stateMutability":"view","type":"function"},{"inputs":[{"internalType":"bytes4","name":"interfaceId","type":"bytes4"}],"name":"supportsInterface","outputs":[{"internalType":"bool","name":"","type":"bool"}],"stateMutability":"view","type":"function"},{"inputs":[{"internalType":"string","name":"","type":"string"}],"name":"tokenAddresses","outputs":[{"internalType":"address","name":"","type":"address"}],"stateMutability":"view","type":"function"}],"evm":{"bytecode":{"linkReferences":{},"object":"60a03461012c57601f61496c38819003918201601f19168301916001600160401b038311848410176101305780849260209460405283398101031261012c57516001600160a01b0381169081810361012c5760017f9b779b17422d0df92223018b32b4d1fa46e071723d6817e2486d003becc55f005581156100e7578061009c9160805261008c81610144565b50610096816101ba565b5061024d565b5033036100d8575b60405161460b90816102e1823960805181818161039c0152818161065f015281816106e701528181612258015261238a0152f35b6100e1336101ba565b506100a4565b60405162461bcd60e51b815260206004820152601a60248201527f464143544f52593a20494e56414c494420534f5645524549474e0000000000006044820152606490fd5b5f80fd5b634e487b7160e01b5f52604160045260245ffd5b6001600160a01b0381165f9081525f8051602061494c833981519152602052604090205460ff166101b5576001600160a01b03165f8181525f8051602061494c83398151915260205260408120805460ff191660011790553391905f805160206148ec8339815191528180a4600190565b505f90565b6001600160a01b0381165f9081525f8051602061492c833981519152602052604090205460ff166101b5576001600160a01b03165f8181525f8051602061492c83398151915260205260408120805460ff191660011790553391907ffc425f2263d0df187444b70e47283d622c70181c5baebb1306a01edba1ce184c905f805160206148ec8339815191529080a4600190565b6001600160a01b0381165f9081525f8051602061490c833981519152602052604090205460ff166101b5576001600160a01b03165f8181525f8051602061490c83398151915260205260408120805460ff191660011790553391907f50484f4a06e2eb9ece9efbb6a62cf5ef37ad3cfd6e4604128546de631dd3ec8f905f805160206148ec8339815191529080a460019056fe6080806040526004361015610012575f80fd5b5f905f3560e01c90816301ffc9a714611af157508063248a9ca314611abf5780632f2ff15d14611a825780633157697e14611a4157806336568abe146119fd57806351e75e8b1461196d5780636752e9f81461191f5780637322066f146109595780637d591787146108ed5780637f85bf29146108d2578063804215f6146108b5578063822f694b146107c45780638e4b7d6d1461078a57806391d1485414610742578063935b13f61461055f57806395a74d7a1461072257806396151139146106a8578063a217fddf1461068e578063a9b91a781461064a578063ad1ad527146105df578063af89b76b146105c1578063c40912361461055f578063c5008f4614610544578063cc32ca8014610253578063d547741f1461020f578063ec81aadb146101845763ecd0026114610147575f80fd5b3461018157806003193601126101815760206040517ffc425f2263d0df187444b70e47283d622c70181c5baebb1306a01edba1ce184c8152f35b80fd5b3461020b57602036600319011261020b5760043560035481101561020b576003548110156101f75760035f526101f3906101df907fc2575a0e9e593c00f959f8c92f12db2869c3395a3b0502d05e2516446f71f85b01611c2e565b604051918291602083526020830190611b7c565b0390f35b634e487b7160e01b5f52603260045260245ffd5b5f80fd5b3461020b57604036600319011261020b5761025160043561022e611b44565b9061024c610247825f525f602052600160405f20015490565b61207a565b61213a565b005b3461020b5760a036600319011261020b5760043567ffffffffffffffff811161020b57610284903690600401611ba0565b60243567ffffffffffffffff811161020b576102a4903690600401611ba0565b9060443560643567ffffffffffffffff811161020b576102c8903690600401611ba0565b6084359384151580950361020b57335f9081527f740c5e3e456bed56f053f960110118ba9b95a1f5359a82283516fb2e81b6e37e602052604090205460ff161561050d576103146121ba565b6040519381519460208301958087835e60019082019081528190036020019020546001600160a01b03166104d0576040519061216a80830183811067ffffffffffffffff8211176104bc5761038c61037e85946103dc9461244c873960e0845260e0840190611b7c565b828103602084015286611b7c565b9087604082015260018060a01b037f0000000000000000000000000000000000000000000000000000000000000000166060820152601260808201528960a082015260c081830391015285611b7c565b03905ff09182156104b15760209561047061048a937f3f8e9c058048d6aa5a777c6b12ed50cdda64b37926d1c48aac3b66c21a9153509560018060a01b03169789604051809284518091835e8101600181520301902060018060a01b0389166001600160601b0360a01b825416179055875f526002895260405f20600160ff1982541617905561046b81611edc565b612028565b9460405193849388855260808a8601526080850190611b7c565b91604084015260608301520390a260015f805160206145b683398151915255604051908152f35b6040513d5f823e3d90fd5b634e487b7160e01b5f52604160045260245ffd5b60405162461bcd60e51b8152602060048201526015602482015274464143544f52593a20544f4b454e2045584953545360581b6044820152606490fd5b63e2517d3f60e01b5f52336004527ffc425f2263d0df187444b70e47283d622c70181c5baebb1306a01edba1ce184c60245260445ffd5b3461020b575f36600319011261020b57602060405160128152f35b3461020b57602036600319011261020b5760043567ffffffffffffffff811161020b576105926020913690600401611ba0565b8160405191805191829101835e600190820190815281900382019020546040516001600160a01b039091168152f35b3461020b575f36600319011261020b576020604051633b9aca008152f35b3461020b575f36600319011261020b576101f3604051610600606082611b5a565b602381527f56414c4f522041692b2b2f2f65207c204a4158582e7365727665722e666163746020820152626f727960e81b6040820152604051918291602083526020830190611b7c565b3461020b575f36600319011261020b576040517f00000000000000000000000000000000000000000000000000000000000000006001600160a01b03168152602090f35b3461020b575f36600319011261020b5760206040515f8152f35b3461020b575f36600319011261020b57600354806033036033811161070e57603360809260405192818452602084015214604082015260018060a01b037f0000000000000000000000000000000000000000000000000000000000000000166060820152f35b634e487b7160e01b5f52601160045260245ffd5b3461020b575f36600319011261020b576020603360035414604051908152f35b3461020b57604036600319011261020b5761075b611b44565b6004355f525f60205260405f209060018060a01b03165f52602052602060ff60405f2054166040519015158152f35b3461020b575f36600319011261020b5760206040517f50484f4a06e2eb9ece9efbb6a62cf5ef37ad3cfd6e4604128546de631dd3ec8f8152f35b3461020b575f36600319011261020b5760035467ffffffffffffffff81116104bc57604051906107fa60208260051b0183611b5a565b80825260208201908160035f527fc2575a0e9e593c00f959f8c92f12db2869c3395a3b0502d05e2516446f71f85b5f915b83831061089857848660405191829160208301906020845251809152604083019060408160051b85010192915f905b82821061086957505050500390f35b919360019193955060206108888192603f198a82030186528851611b7c565b960192019201859493919261085a565b6001602081926108a785611c2e565b81520192019201919061082b565b3461020b575f36600319011261020b576020600354604051908152f35b3461020b575f36600319011261020b57602060405160338152f35b3461020b575f36600319011261020b576101f360405161090e606082611b5a565b602481527f2f696d616765732f6a6178782d7365727665722d666163746f72792d6c6f676f6020820152632e6a706760e01b6040820152604051918291602083526020830190611b7c565b3461020b575f36600319011261020b57335f9081527f5892f7a5466545cb3c1ae968031e4d902d61ef5df2f344fba60937d07c44a2fe602052604090205460ff16156118e8576109a76121ba565b7fb951dd04fc1190440935cc1bb78ebab639847dd82618c43f44b1bf5ccb77e49f6040610a1c81516109d98382611b5a565b600a81526956616c6f7220436f726560b01b602082015282516109fc8482611b5a565b600581526456434f524560d81b6020820152610a16611cce565b916121f2565b610a648151610a2b8382611b5a565b600881526756616c6f7220414960c01b60208201528251610a4c8482611b5a565b600381526256414960e81b6020820152610a16611cce565b610ab38151610a738382611b5a565b600e81526d56616c6f7220536563757269747960901b60208201528251610a9a8482611b5a565b60048152635653454360e01b6020820152610a16611cce565b610afd8151610ac28382611b5a565b60098152680acc2d8dee4409ac2f60bb1b60208201528251610ae48482611b5a565b60048152630ac9a82b60e31b6020820152610a16611cce565b610b498151610b0c8382611b5a565b600b81526a56616c6f7220426c6f636b60a81b60208201528251610b308482611b5a565b600481526356424c4b60e01b6020820152610a16611cce565b610b948151610b588382611b5a565b600a8152694465616420426c6f636b60b01b60208201528251610b7b8482611b5a565b600481526344424c4b60e01b6020820152610a16611cce565b610be58151610ba38382611b5a565b601081526f56616c6f7220476f7665726e616e636560801b60208201528251610bcc8482611b5a565b60048152632b23a7ab60e11b6020820152610a16611cce565b610c2d8151610bf48382611b5a565b60078152660acc2d8dee440b60cb1b60208201528251610c148482611b5a565b60048152630ac8298b60e31b6020820152610a16611cce565b610c7c8151610c3c8382611b5a565b600b81526a47696c6c736f6e2042544360a81b60208201528251610c608482611b5a565b600781526647494c4c42544360c81b6020820152610a16611cf0565b610cc68151610c8b8382611b5a565b6007815266042544320322e360cc1b60208201528251610cab8482611b5a565b60068152650425443322e360d41b6020820152610a16611cf0565b610d0b8151610cd58382611b5a565b6005815264466c616d6560d81b60208201528251610cf38482611b5a565b6003815262464c4d60e81b6020820152610a16611d11565b610d418151610d1a8382611b5a565b600a815269466c616d6520436f726560b01b6020820152610d39611d11565b610a16611d11565b610d868151610d508382611b5a565b6005815264466c61726560d81b60208201528251610d6e8482611b5a565b600381526223262960e91b6020820152610a16611d11565b610dd28151610d958382611b5a565b600a81526915985b1bdc8814dbdd5b60b21b60208201528251610db88482611b5a565b60058152641594dbdd5b60da1b6020820152610a16611d34565b610e028151610de18382611b5a565b600481526314dbdd5b60e21b6020820152610dfa611d34565b610a16611d34565b610e498151610e118382611b5a565b600581526411da1bdcdd60da1b60208201528251610e2f8482611b5a565b600581526411d213d4d560da1b6020820152610a16611d34565b610e8e8151610e588382611b5a565b60048152631119585960e21b60208201528251610e758482611b5a565b60048152631111505160e21b6020820152610a16611d34565b610edd8151610e9d8382611b5a565b600c81526b496e74656c2053656375726560a01b60208201528251610ec28482611b5a565b6006815265494e544c2d5360d01b6020820152610a16611d56565b610f238151610eec8382611b5a565b6005815264125b9d195b60da1b60208201528251610f0a8482611b5a565b60048152631253951360e21b6020820152610a16611d56565b610f6e8151610f328382611b5a565b6007815266125b9d195b1a5d60ca1b60208201528251610f528482611b5a565b60078152661253951153125560ca1b6020820152610a16611d56565b610fbd8151610f7d8382611b5a565b600b81526a564d7761726520506c757360a81b60208201528251610fa18482611b5a565b6007815266564d574152452b60c81b6020820152610a16611d79565b61100a8151610fcc8382611b5a565b600a815269427261696e20506c757360b01b60208201528251610fef8482611b5a565b6006815265425241494e2b60d01b6020820152610a16611d79565b61105581516110198382611b5a565b600781526622b23aba30b4b760c91b602082015282516110398482611b5a565b600781526622a22aaa20a4a760c91b6020820152610a16611d79565b6110a081516110648382611b5a565b60098152684d61746820506c757360b81b602082015282516110868482611b5a565b60058152644d4154482b60d81b6020820152610a16611d79565b6110f581516110af8382611b5a565b600c81526b56616c6f72414920506c757360a01b602082015282516110d48482611b5a565b600c81526b2456414c4f524149504c555360a01b6020820152610a16611d9c565b61117681516111048382611b5a565b601581527456616c6f72414920506c75732044414f203230333560581b60208201528251611133606082611b5a565b602981527f2456414c4f524149504c555332455f44414f5f474f5645524e414e43455f32306020820152680ccd57d0d313d4d15160ba1b84820152610a16611d9c565b6111c081516111858382611b5a565b60098152682b30b637b91020a1a760b91b602082015282516111a78482611b5a565b60048152632b20a1a760e11b6020820152610a16611d9c565b61120e81516111cf8382611b5a565b600981526856616c6f722044414f60b81b602082015282516111f18482611b5a565b600881526756414c4f5244414f60c01b6020820152610a16611d9c565b61125e815161121d8382611b5a565b600d81526c56616c6f72205574696c69747960981b602082015282516112438482611b5a565b600681526515905315551360d21b6020820152610a16611d9c565b6112ac815161126d8382611b5a565b600d81526c2b30b637b9102220a79023b7bb60991b602082015282516112938482611b5a565b60048152635644414f60e01b6020820152610a16611dbf565b6112f181516112bb8382611b5a565b600581526415985d5b1d60da1b602082015282516112d98482611b5a565b600381526215931560ea1b6020820152610a16611dbf565b61133b81516113008382611b5a565b600981526815985b1bdc8813995d60ba1b602082015282516113228482611b5a565b60048152631593915560e21b6020820152610a16611dbf565b611384815161134a8382611b5a565b600681526514dadc9bdb1b60d21b602082015282516113698482611b5a565b600681526514d2d493d31360d21b6020820152610a16611de7565b6113cb81516113938382611b5a565b600581526414dadbdb1b60da1b602082015282516113b18482611b5a565b600581526414d2d3d31360da1b6020820152610a16611de7565b61141281516113da8382611b5a565b600581526414dadc9bdb60da1b602082015282516113f88482611b5a565b600581526414d2d493d360da1b6020820152610a16611de7565b61147681516114218382611b5a565b600a8152694447204772617669747960b01b602082015282516114448482611b5a565b601781527f444737372e3737585f475241564954595f4143544956450000000000000000006020820152610a16611e0b565b6114c181516114858382611b5a565b600a81526929a3a0aa902a37b5b2b760b11b602082015282516114a88482611b5a565b60048152635347415560e01b6020820152610a16611e0b565b61150881516114d08382611b5a565b6005815264105b99d95b60da1b602082015282516114ee8482611b5a565b600581526409105391d360da1b6020820152610a16611e0b565b61155781516115178382611b5a565b600a81526920b733b2b6101918191b60b11b6020820152825161153a8482611b5a565b600881526720a723a61918191b60c11b6020820152610a16611e0b565b6115a181516115668382611b5a565b60078152664447203139363960c81b602082015282516115868482611b5a565b600681526544473139363960d01b6020820152610a16611e2f565b6115eb81516115b08382611b5a565b6007815266444a2054696d6560c81b602082015282516115d08482611b5a565b6006815265444a54494d4560d01b6020820152610a16611e2f565b61161b81516115fa8382611b5a565b600481526354696d6560e01b6020820152611613611e2f565b610a16611e2f565b611670815161162a8382611b5a565b60098152682732bbba101918191b60b91b6020820152825161164c8482611b5a565b6009815268122722abaa1918191b60b91b602082015261166a611e51565b91612324565b6116b8815161167f8382611b5a565b6005815264446f6e6e7960d81b6020820152825161169d8482611b5a565b600681526524444f4e4e5960d01b602082015261166a611e51565b61170481516116c78382611b5a565b600781526623b4b63639b7b760c91b602082015282516116e78482611b5a565b60088152671223a4a62629a7a760c11b602082015261166a611e51565b61175681516117138382611b5a565b600c81526b11da5b1b1cdbdb8811dbdb1960a21b602082015282516117388482611b5a565b60098152680911d2531311d3d31160ba1b602082015261166a611e51565b61179e81516117658382611b5a565b6005815264506f70706160d81b602082015282516117838482611b5a565b600681526524504f50504160d01b602082015261166a611e51565b6117e381516117ad8382611b5a565b6004815263094c2f0f60e31b602082015282516117ca8482611b5a565b600481526309482b0b60e31b602082015261166a611e51565b61182d81516117f28382611b5a565b60068152652837ba3a32b960d11b602082015282516118118482611b5a565b6007815266122827aa2a22a960c91b602082015261166a611e51565b61187e815161183c8382611b5a565b600a815269084e4c2c8cadc40626c760b31b6020820152825161185f8482611b5a565b600a81526904884a482888a9c626c760b31b602082015261166a611e51565b6118c6815161188d8382611b5a565b600581526426b0b9b7b760d91b602082015282516118ab8482611b5a565b60068152651226a0a9a7a760d11b602082015261166a611e51565b6003548151908152426020820152a160015f805160206145b683398151915255005b63e2517d3f60e01b5f52336004527f50484f4a06e2eb9ece9efbb6a62cf5ef37ad3cfd6e4604128546de631dd3ec8f60245260445ffd5b3461020b575f36600319011261020b576101f3604051611940604082611b5a565b600c81526b109b1bd8dac80e0d0dcc8ccd60a21b6020820152604051918291602083526020830190611b7c565b3461020b575f36600319011261020b576101f360405161198e608082611b5a565b604281527f307838663361353637643265386631613462396330643265346636613862306360208201527f3264346536663861306232633464366538663061326234633664386530663161604082015261193160f11b6060820152604051918291602083526020830190611b7c565b3461020b57604036600319011261020b57611a16611b44565b336001600160a01b03821603611a32576102519060043561213a565b63334bd91960e11b5f5260045ffd5b3461020b57602036600319011261020b576004356001600160a01b0381169081900361020b575f526002602052602060ff60405f2054166040519015158152f35b3461020b57604036600319011261020b57610251600435611aa1611b44565b90611aba610247825f525f602052600160405f20015490565b6120b2565b3461020b57602036600319011261020b576020611ae96004355f525f602052600160405f20015490565b604051908152f35b3461020b57602036600319011261020b576004359063ffffffff60e01b821680920361020b57602091637965db0b60e01b8114908115611b33575b5015158152f35b6301ffc9a760e01b14905083611b2c565b602435906001600160a01b038216820361020b57565b90601f8019910116810190811067ffffffffffffffff8211176104bc57604052565b805180835260209291819084018484015e5f828201840152601f01601f1916010190565b81601f8201121561020b5780359067ffffffffffffffff82116104bc5760405192611bd5601f8401601f191660200185611b5a565b8284526020838301011161020b57815f926020809301838601378301015290565b90600182811c92168015611c24575b6020831014611c1057565b634e487b7160e01b5f52602260045260245ffd5b91607f1691611c05565b9060405191825f825492611c4184611bf6565b8084529360018116908115611cac5750600114611c68575b50611c6692500383611b5a565b565b90505f9291925260205f20905f915b818310611c90575050906020611c66928201015f611c59565b6020919350806001915483858901015201910190918492611c77565b905060209250611c6694915060ff191682840152151560051b8201015f611c59565b60405190611cdd604083611b5a565b6004825263434f524560e01b6020830152565b60405190611cff604083611b5a565b600382526242544360e81b6020830152565b60405190611d20604083611b5a565b6005825264464c414d4560d81b6020830152565b60405190611d43604083611b5a565b600482526314d3d55360e21b6020830152565b60405190611d65604083611b5a565b6005825264125395115360da1b6020830152565b60405190611d88604083611b5a565b6005825264212920a4a760d91b6020830152565b60405190611dab604083611b5a565b60058252642b20a627a960d91b6020830152565b60405190611dce604083611b5a565b600a825269474f5645524e414e434560b01b6020830152565b60405190611df6604083611b5a565b600682526514d0d493d31360d21b6020830152565b60405190611e1a604083611b5a565b600682526520a721a427a960d11b6020830152565b60405190611e3e604083611b5a565b600482526354494d4560e01b6020830152565b60405190611e60604083611b5a565b600982526829a7ab22a922a4a3a760b91b6020830152565b91611ea390611e95611ed99795969360e0865260e0860190611b7c565b908482036020860152611b7c565b633b9aca0060408401526001600160a01b03909416606083015260126080830152151560a082015280830360c090910152611b7c565b90565b90600354680100000000000000008110156104bc57600181016003556003548110156101f75760035f527fc2575a0e9e593c00f959f8c92f12db2869c3395a3b0502d05e2516446f71f85b01825167ffffffffffffffff81116104bc57611f438254611bf6565b601f8111611fe3575b506020601f8211600114611f8557819293945f92611f7a575b50508160011b915f199060031b1c1916179055565b015190505f80611f65565b601f19821690835f52805f20915f5b818110611fcb57509583600195969710611fb3575b505050811b019055565b01515f1960f88460031b161c191690555f8080611fa9565b9192602060018192868b015181550194019201611f94565b825f5260205f20601f830160051c8101916020841061201e575b601f0160051c01905b8181106120135750611f4c565b5f8155600101612006565b9091508190611ffd565b602090604051918183925191829101835e81015f815203902090565b61206e633b9aca009360609396959660018060a01b03168352608060208401526080830190611b7c565b94151560408201520152565b5f8181526020818152604080832033845290915290205460ff161561209c5750565b63e2517d3f60e01b5f523360045260245260445ffd5b5f818152602081815260408083206001600160a01b038616845290915290205460ff16612134575f818152602081815260408083206001600160a01b0395909516808452949091528120805460ff19166001179055339291907f2f8788117e7eff1d82e926ec794901d17c78024a50270940304540a733656f0d9080a4600190565b50505f90565b5f818152602081815260408083206001600160a01b038616845290915290205460ff1615612134575f818152602081815260408083206001600160a01b0395909516808452949091528120805460ff19169055339291907ff6391f5c32d9c69d2a47ea670b442974b53935d1edc7fd64eb21e047a839171b9080a4600190565b60025f805160206145b683398151915254146121e35760025f805160206145b683398151915255565b633ee5aeb560e01b5f5260045ffd5b916040519282519360208401948086835e60019082019081528190036020019020546001600160a01b031615612229575b50505050565b6040519061216a8083019083821067ffffffffffffffff8311176104bc575f61227d92878695889461244c88397f000000000000000000000000000000000000000000000000000000000000000092611e78565b03905ff080156104b1577f3f8e9c058048d6aa5a777c6b12ed50cdda64b37926d1c48aac3b66c21a915350926123079160018060a01b0316946020604051809284518091835e8101600181520301902060018060a01b0386166001600160601b0360a01b825416179055845f52600260205260405f20600160ff1982541617905561046b81611edc565b926123185f60405193849384612044565b0390a25f808080612223565b916040519282519360208401948086835e60019082019081528190036020019020546001600160a01b03161561235a5750505050565b6040519061216a8083019083821067ffffffffffffffff8311176104bc5760016123af92878695889461244c88397f000000000000000000000000000000000000000000000000000000000000000092611e78565b03905ff080156104b1577f3f8e9c058048d6aa5a777c6b12ed50cdda64b37926d1c48aac3b66c21a915350926124399160018060a01b0316946020604051809284518091835e8101600181520301902060018060a01b0386166001600160601b0360a01b825416179055845f52600260205260405f20600160ff1982541617905561046b81611edc565b9261231860016040519384938461204456fe6101a080604052346106dd5761216a803803809161001d82856106e1565b833981019060e0818303126106dd5780516001600160401b0381116106dd5782610048918301610704565b60208201516001600160401b0381116106dd5783610067918401610704565b60408301516060840151946001600160a01b038616949293928587036106dd5760808101519060ff821682036106dd5760a08101519283151584036106dd5760c08201516001600160401b0381116106dd576100c39201610704565b9660409788516100d38a826106e1565b60018152603160f81b602082015286516001600160401b03811161050e57600354600181811c911680156106d3575b60208210146104f057601f8111610670575b50806020601f821160011461060a575f916105ff575b508160011b915f199060031b1c1916176003555b87516001600160401b03811161050e57600454600181811c911680156105f5575b60208210146104f057601f8111610592575b50806020601f821160011461052d575f91610522575b508160011b915f199060031b1c1916176004555b6101a48761093f565b610120526101b181610aaf565b6101405286516020880120908160e0526020815191012080610100524660a0528a519060208201927f8b73c3c69bb8fe3d512ecc4cf759cc79239f7b179b0ffacaa9a75d522b39400f84528c83015260608201524660808201523060a082015260a0815261022060c0826106e1565b5190206080523060c0526101608390526101808490528051906001600160401b03821161050e57600954600181811c91168015610504575b60208210146104f057601f811161048d575b50602090601f8311600114610424576102b59392915f9183610419575b50508160011b915f199060031b1c1916176009555b6102a58161077d565b506102af816107f3565b506108ac565b50604d60ff8216116103f25760ff16600a0a8083029083820414831517156103f257851561040657600254948186018096116103f2577f4996e649a70c099b24c5b4867d2a4c3d4144f4766355e6214492f061ad17ee79965f7fddf252ad1be2c89b69c2b068fc378daa952ba7f163c4a11628f55a4df523b3ef6020610372956103649a6002558484528382528c84208181540190558c51908152a38751958695608087526080870190610759565b908582036020870152610759565b9186840152151560608301520390a1516115229081610be8823960805181611103015260a051816111c0015260c051816110cd015260e0518161115201526101005181611178015261012051816106360152610140518161065f01526101605181610b060152610180518181816107700152818161087c01526109060152f35b634e487b7160e01b5f52601160045260245ffd5b63ec442f0560e01b5f525f60045260245ffd5b015190505f80610287565b90601f1983169160095f52815f20925f5b81811061047557509160019391856102b59796941061045d575b505050811b0160095561029c565b01515f1960f88460031b161c191690555f808061044f565b92936020600181928786015181550195019301610435565b60095f527f6e1540171b6c0c960b71a7020d9f60077f6af931a8bbf590da0223dacf75c7af601f840160051c810191602085106104e6575b601f0160051c01905b8181106104db575061026a565b5f81556001016104ce565b90915081906104c5565b634e487b7160e01b5f52602260045260245ffd5b90607f1690610258565b634e487b7160e01b5f52604160045260245ffd5b90508901515f610187565b915060045f52815f205f925b8b601f198416851061057b57506001935082601f19811610610563575b5050811b0160045561019b565b8b01515f1960f88460031b161c191690555f80610556565b810151825560209384019360019092019101610539565b60045f527f8a35acfbc15ff81a39ae7d344fd709f28e8600b4aa8c65c6b64bfe7fe36bd19b601f830160051c810191602084106105eb575b601f0160051c01905b8181106105e05750610171565b5f81556001016105d3565b90915081906105ca565b90607f169061015f565b90508801515f61012a565b60035f9081528181209250601f198416905b8b8282106106585750509083600194939210610640575b5050811b0160035561013e565b8a01515f1960f88460031b161c191690555f80610633565b6001849560209395849301518155019401920161061c565b60035f527fc2575a0e9e593c00f959f8c92f12db2869c3395a3b0502d05e2516446f71f85b601f830160051c810191602084106106c9575b601f0160051c01905b8181106106be5750610114565b5f81556001016106b1565b90915081906106a8565b90607f1690610102565b5f80fd5b601f909101601f19168101906001600160401b0382119082101761050e57604052565b81601f820112156106dd578051906001600160401b03821161050e5760405192610738601f8401601f1916602001856106e1565b828452602083830101116106dd57815f9260208093018386015e8301015290565b805180835260209291819084018484015e5f828201840152601f01601f1916010190565b6001600160a01b0381165f9081525f8051602061214a833981519152602052604090205460ff166107ee576001600160a01b03165f8181525f8051602061214a83398151915260205260408120805460ff191660011790553391905f8051602061210a8339815191528180a4600190565b505f90565b6001600160a01b0381165f9081527f60395df67107109e5b300dafa59a172edb7d52a026a9db618800966e886decd0602052604090205460ff166107ee576001600160a01b03165f8181527f60395df67107109e5b300dafa59a172edb7d52a026a9db618800966e886decd060205260408120805460ff191660011790553391907f50484f4a06e2eb9ece9efbb6a62cf5ef37ad3cfd6e4604128546de631dd3ec8f905f8051602061210a8339815191529080a4600190565b6001600160a01b0381165f9081525f8051602061212a833981519152602052604090205460ff166107ee576001600160a01b03165f8181525f8051602061212a83398151915260205260408120805460ff191660011790553391907f9f2df0fed2c77648de5860a4cc508cd0818c85b8b8a1ab4ceeef8d981c8956a6905f8051602061210a8339815191529080a4600190565b908151602081105f146109a2575090601f81511161097957602081519101516020821061096a571790565b5f198260200360031b1b161790565b60405163305a27a960e01b81526020600482015290819061099e906024830190610759565b0390fd5b6001600160401b03811161050e57600554600181811c91168015610aa5575b60208210146104f057601f8111610a72575b50602092601f8211600114610a1157928192935f92610a06575b50508160011b915f199060031b1c19161760055560ff90565b015190505f806109ed565b601f1982169360055f52805f20915f5b868110610a5a5750836001959610610a42575b505050811b0160055560ff90565b01515f1960f88460031b161c191690555f8080610a34565b91926020600181928685015181550194019201610a21565b60055f52601f60205f20910160051c810190601f830160051c015b818110610a9a57506109d3565b5f8155600101610a8d565b90607f16906109c1565b908151602081105f14610ada575090601f81511161097957602081519101516020821061096a571790565b6001600160401b03811161050e57600654600181811c91168015610bdd575b60208210146104f057601f8111610baa575b50602092601f8211600114610b4957928192935f92610b3e575b50508160011b915f199060031b1c19161760065560ff90565b015190505f80610b25565b601f1982169360065f52805f20915f5b868110610b925750836001959610610b7a575b505050811b0160065560ff90565b01515f1960f88460031b161c191690555f8080610b6c565b91926020600181928685015181550194019201610b59565b60065f52601f60205f20910160051c810190601f830160051c015b818110610bd25750610b0b565b5f8155600101610bc5565b90607f1690610af956fe6080806040526004361015610012575f80fd5b5f3560e01c90816301ffc9a714610cb35750806306fdde0314610c0e578063095ea7b314610be857806318160ddd14610bcb57806323b872dd14610b93578063248a9ca314610b685780632f2ff15d14610b2a578063313ce56714610aed5780633644e51514610acb57806336568abe14610a8757806340c10f191461097557806342966c68146108f357806351bfcdbd146108a15780635300f82b146108655780636498da881461081a57806370a08231146107e357806379cc67901461074e5780637ecebe001461071657806384b0196e1461061e5780638e4b7d6d146105e457806391b9b8271461059757806391d148541461054e57806395d89b41146104a9578063a217fddf1461048f578063a9059cbb1461045e578063d505accf1461031b578063d5391393146102e1578063d547741f1461029c578063dd62ed3e1461024c5763ef430aa614610166575f80fd5b34610248575f366003190112610248576040515f60095461018681610d8c565b808452906001811690811561022457506001146101c6575b6101c2836101ae81850382610d56565b604051918291602083526020830190610d06565b0390f35b60095f9081527f6e1540171b6c0c960b71a7020d9f60077f6af931a8bbf590da0223dacf75c7af939250905b80821061020a575090915081016020016101ae61019e565b9192600181602092548385880101520191019092916101f2565b60ff191660208086019190915291151560051b840190910191506101ae905061019e565b5f80fd5b3461024857604036600319011261024857610265610d2a565b61026d610d40565b6001600160a01b039182165f908152600160209081526040808320949093168252928352819020549051908152f35b34610248576040366003190112610248576102df6004356102bb610d40565b906102da6102d5825f526008602052600160405f20015490565b611004565b6111e6565b005b34610248575f3660031901126102485760206040517f9f2df0fed2c77648de5860a4cc508cd0818c85b8b8a1ab4ceeef8d981c8956a68152f35b346102485760e036600319011261024857610334610d2a565b61033c610d40565b604435906064359260843560ff811681036102485784421161044b576104106104199160018060a01b03841696875f52600760205260405f20908154916001830190556040519060208201927f6e71edae12b1b97f4d1f60370fef10105fa2faae0126114a169c64845d6126c984528a604084015260018060a01b038916606084015289608084015260a083015260c082015260c081526103de60e082610d56565b5190206103e96110ca565b906040519161190160f01b83526002830152602282015260c43591604260a43592206113eb565b90929192611478565b6001600160a01b031684810361043457506102df935061126a565b84906325c0072360e11b5f5260045260245260445ffd5b8463313c898160e11b5f5260045260245ffd5b346102485760403660031901126102485761048461047a610d2a565b6024359033610f5a565b602060405160018152f35b34610248575f3660031901126102485760206040515f8152f35b34610248575f366003190112610248576040515f6004546104c981610d8c565b808452906001811690811561022457506001146104f0576101c2836101ae81850382610d56565b60045f9081527f8a35acfbc15ff81a39ae7d344fd709f28e8600b4aa8c65c6b64bfe7fe36bd19b939250905b808210610534575090915081016020016101ae61019e565b91926001816020925483858801015201910190929161051c565b3461024857604036600319011261024857610567610d40565b6004355f52600860205260405f209060018060a01b03165f52602052602060ff60405f2054166040519015158152f35b34610248575f366003190112610248576101c26040516105b8604082610d56565b600b81526a56414c4f524149504c555360a81b6020820152604051918291602083526020830190610d06565b34610248575f3660031901126102485760206040517f50484f4a06e2eb9ece9efbb6a62cf5ef37ad3cfd6e4604128546de631dd3ec8f8152f35b34610248575f366003190112610248576106ba61065a7f0000000000000000000000000000000000000000000000000000000000000000611351565b6106837f00000000000000000000000000000000000000000000000000000000000000006113b4565b60206106c8604051926106968385610d56565b5f84525f368137604051958695600f60f81b875260e08588015260e0870190610d06565b908582036040870152610d06565b4660608501523060808501525f60a085015283810360c08501528180845192838152019301915f5b8281106106ff57505050500390f35b8351855286955093810193928101926001016106f0565b34610248576020366003190112610248576001600160a01b03610737610d2a565b165f526007602052602060405f2054604051908152f35b34610248576040366003190112610248576102df61076a610d2a565b602435907f00000000000000000000000000000000000000000000000000000000000000006107a4575b61079f823383610e91565b6112cd565b335f9081527f60395df67107109e5b300dafa59a172edb7d52a026a9db618800966e886decd060205260409020546107de9060ff16610e45565b610794565b34610248576020366003190112610248576001600160a01b03610804610d2a565b165f525f602052602060405f2054604051908152f35b34610248575f366003190112610248576101c260405161083b604082610d56565b6009815268373232362e3334363160b81b6020820152604051918291602083526020830190610d06565b34610248575f3660031901126102485760206040517f000000000000000000000000000000000000000000000000000000000000000015158152f35b34610248575f366003190112610248576101c26040516108c2604082610d56565b601081526f29a0a4a72a102820aaa6101a9a98989b60811b6020820152604051918291602083526020830190610d06565b34610248576020366003190112610248577f0000000000000000000000000000000000000000000000000000000000000000610936575b6102df600435336112cd565b335f9081527f60395df67107109e5b300dafa59a172edb7d52a026a9db618800966e886decd060205260409020546109709060ff16610e45565b61092a565b346102485760403660031901126102485761098e610d2a565b335f9081527f51a495916474fe1a0c0fcfb65a8a97682b84a054118858cdd1f5dfd7fc0919eb6020526040902054602435919060ff1615610a50576001600160a01b0316908115610a3d5760025490808201809211610a295760207fddf252ad1be2c89b69c2b068fc378daa952ba7f163c4a11628f55a4df523b3ef915f9360025584845283825260408420818154019055604051908152a3005b634e487b7160e01b5f52601160045260245ffd5b63ec442f0560e01b5f525f60045260245ffd5b63e2517d3f60e01b5f52336004527f9f2df0fed2c77648de5860a4cc508cd0818c85b8b8a1ab4ceeef8d981c8956a660245260445ffd5b3461024857604036600319011261024857610aa0610d40565b336001600160a01b03821603610abc576102df906004356111e6565b63334bd91960e11b5f5260045ffd5b34610248575f366003190112610248576020610ae56110ca565b604051908152f35b34610248575f36600319011261024857602060405160ff7f0000000000000000000000000000000000000000000000000000000000000000168152f35b34610248576040366003190112610248576102df600435610b49610d40565b90610b636102d5825f526008602052600160405f20015490565b61103e565b34610248576020366003190112610248576020610ae56004355f526008602052600160405f20015490565b3461024857606036600319011261024857610484610baf610d2a565b610bb7610d40565b60443591610bc6833383610e91565b610f5a565b34610248575f366003190112610248576020600254604051908152f35b3461024857604036600319011261024857610484610c04610d2a565b602435903361126a565b34610248575f366003190112610248576040515f600354610c2e81610d8c565b80845290600181169081156102245750600114610c55576101c2836101ae81850382610d56565b60035f9081527fc2575a0e9e593c00f959f8c92f12db2869c3395a3b0502d05e2516446f71f85b939250905b808210610c99575090915081016020016101ae61019e565b919260018160209254838588010152019101909291610c81565b34610248576020366003190112610248576004359063ffffffff60e01b821680920361024857602091637965db0b60e01b8114908115610cf5575b5015158152f35b6301ffc9a760e01b14905083610cee565b805180835260209291819084018484015e5f828201840152601f01601f1916010190565b600435906001600160a01b038216820361024857565b602435906001600160a01b038216820361024857565b90601f8019910116810190811067ffffffffffffffff821117610d7857604052565b634e487b7160e01b5f52604160045260245ffd5b90600182811c92168015610dba575b6020831014610da657565b634e487b7160e01b5f52602260045260245ffd5b91607f1691610d9b565b5f9291815491610dd383610d8c565b8083529260018116908115610e285750600114610def57505050565b5f9081526020812093945091925b838310610e0e575060209250010190565b600181602092949394548385870101520191019190610dfd565b915050602093945060ff929192191683830152151560051b010190565b15610e4c57565b60405162461bcd60e51b815260206004820152601960248201527f50524f5445435445443a20534f5645524549474e204f4e4c59000000000000006044820152606490fd5b6001600160a01b039081165f818152600160209081526040808320948616835293905291909120549291905f198410610ecb575b50505050565b828410610f37578015610f24576001600160a01b03821615610f11575f52600160205260405f209060018060a01b03165f5260205260405f20910390555f808080610ec5565b634a1406b160e11b5f525f60045260245ffd5b63e602df0560e01b5f525f60045260245ffd5b508290637dc7a0d960e11b5f5260018060a01b031660045260245260445260645ffd5b6001600160a01b0316908115610ff1576001600160a01b0316918215610a3d57815f525f60205260405f2054818110610fd857817fddf252ad1be2c89b69c2b068fc378daa952ba7f163c4a11628f55a4df523b3ef92602092855f525f84520360405f2055845f525f825260405f20818154019055604051908152a3565b8263391434e360e21b5f5260045260245260445260645ffd5b634b637e8f60e11b5f525f60045260245ffd5b5f81815260086020908152604080832033845290915290205460ff16156110285750565b63e2517d3f60e01b5f523360045260245260445ffd5b5f8181526008602090815260408083206001600160a01b038616845290915290205460ff166110c4575f8181526008602090815260408083206001600160a01b0395909516808452949091528120805460ff19166001179055339291907f2f8788117e7eff1d82e926ec794901d17c78024a50270940304540a733656f0d9080a4600190565b50505f90565b307f00000000000000000000000000000000000000000000000000000000000000006001600160a01b031614806111bd575b15611125577f000000000000000000000000000000000000000000000000000000000000000090565b60405160208101907f8b73c3c69bb8fe3d512ecc4cf759cc79239f7b179b0ffacaa9a75d522b39400f82527f000000000000000000000000000000000000000000000000000000000000000060408201527f000000000000000000000000000000000000000000000000000000000000000060608201524660808201523060a082015260a081526111b760c082610d56565b51902090565b507f000000000000000000000000000000000000000000000000000000000000000046146110fc565b5f8181526008602090815260408083206001600160a01b038616845290915290205460ff16156110c4575f8181526008602090815260408083206001600160a01b0395909516808452949091528120805460ff19169055339291907ff6391f5c32d9c69d2a47ea670b442974b53935d1edc7fd64eb21e047a839171b9080a4600190565b6001600160a01b0316908115610f24576001600160a01b0316918215610f115760207f8c5be1e5ebec7d5bd14f71427d1e84f3dd0314c0f7b2291e5b200ac8c7c3b92591835f526001825260405f20855f5282528060405f2055604051908152a3565b9091906001600160a01b03168015610ff157805f525f60205260405f2054838110611337576020845f94957fddf252ad1be2c89b69c2b068fc378daa952ba7f163c4a11628f55a4df523b3ef938587528684520360408620558060025403600255604051908152a3565b915063391434e360e21b5f5260045260245260445260645ffd5b60ff81146113975760ff811690601f82116113885760405191611375604084610d56565b6020808452838101919036833783525290565b632cd44ac360e21b5f5260045ffd5b506040516113b1816113aa816005610dc4565b0382610d56565b90565b60ff81146113d85760ff811690601f82116113885760405191611375604084610d56565b506040516113b1816113aa816006610dc4565b91907f7fffffffffffffffffffffffffffffff5d576e7357a4501ddfe92f46681b20a0841161146d579160209360809260ff5f9560405194855216868401526040830152606082015282805260015afa15611462575f516001600160a01b0381161561145857905f905f90565b505f906001905f90565b6040513d5f823e3d90fd5b5050505f9160039190565b60048110156114d8578061148a575050565b600181036114a15763f645eedf60e01b5f5260045ffd5b600281036114bc575063fce698f760e01b5f5260045260245ffd5b6003146114c65750565b6335e2f38360e21b5f5260045260245ffd5b634e487b7160e01b5f52602160045260245ffdfea26469706673582212209942b7879c10b8e4634e6bb7e951f0f16af5a81efe260b9d450e415045126bef64736f6c634300081a00332f8788117e7eff1d82e926ec794901d17c78024a50270940304540a733656f0d51a495916474fe1a0c0fcfb65a8a97682b84a054118858cdd1f5dfd7fc0919eb5eff886ea0ce6ca488a3d6e336d6c0f75f46d19b42c06ce5ee98e42c96d256c79b779b17422d0df92223018b32b4d1fa46e071723d6817e2486d003becc55f00a2646970667358221220417852009ec3927000aa11fb5eadb200119f249ea582c3f16e85d2b03ecb2a8c64736f6c634300081a00332f8788117e7eff1d82e926ec794901d17c78024a50270940304540a733656f0d5892f7a5466545cb3c1ae968031e4d902d61ef5df2f344fba60937d07c44a2fe740c5e3e456bed56f053f960110118ba9b95a1f5359a82283516fb2e81b6e37ead3228b676f7d3cd4284a5443f17f1962b36e491b30a40b2405849e597ba5fb5","opcodes":"PUSH1 0xA0 CALLVALUE PUSH2 0x12C JUMPI PUSH1 0x1F PUSH2 0x496C CODESIZE DUP2 SWAP1 SUB SWAP2 DUP3 ADD PUSH1 0x1F NOT AND DUP4 ADD SWAP2 PUSH1 0x1 PUSH1 0x1 PUSH1 0x40 SHL SUB DUP4 GT DUP5 DUP5 LT OR PUSH2 0x130 JUMPI DUP1 DUP5 SWAP3 PUSH1 0x20 SWAP5 PUSH1 0x40 MSTORE DUP4 CODECOPY DUP2 ADD SUB SLT PUSH2 0x12C JUMPI MLOAD PUSH1 0x1 PUSH1 0x1 PUSH1 0xA0 SHL SUB DUP2 AND SWAP1 DUP2 DUP2 SUB PUSH2 0x12C JUMPI PUSH1 0x1 PUSH32 0x9B779B17422D0DF92223018B32B4D1FA46E071723D6817E2486D003BECC55F00 SSTORE DUP2 ISZERO PUSH2 0xE7 JUMPI DUP1 PUSH2 0x9C SWAP2 PUSH1 0x80 MSTORE PUSH2 0x8C DUP2 PUSH2 0x144 JUMP JUMPDEST POP PUSH2 0x96 DUP2 PUSH2 0x1BA JUMP JUMPDEST POP PUSH2 0x24D JUMP JUMPDEST POP CALLER SUB PUSH2 0xD8 JUMPI JUMPDEST PUSH1 0x40 MLOAD PUSH2 0x460B SWAP1 DUP2 PUSH2 0x2E1 DUP3 CODECOPY PUSH1 0x80 MLOAD DUP2 DUP2 DUP2 PUSH2 0x39C ADD MSTORE DUP2 DUP2 PUSH2 0x65F ADD MSTORE DUP2 DUP2 PUSH2 0x6E7 ADD MSTORE DUP2 DUP2 PUSH2 0x2258 ADD MSTORE PUSH2 0x238A ADD MSTORE RETURN JUMPDEST PUSH2 0xE1 CALLER PUSH2 0x1BA JUMP JUMPDEST POP PUSH2 0xA4 JUMP JUMPDEST PUSH1 0x40 MLOAD PUSH3 0x461BCD PUSH1 0xE5 SHL DUP2 MSTORE PUSH1 0x20 PUSH1 0x4 DUP3 ADD MSTORE PUSH1 0x1A PUSH1 0x24 DUP3 ADD MSTORE PUSH32 0x464143544F52593A20494E56414C494420534F5645524549474E000000000000 PUSH1 0x44 DUP3 ADD MSTORE PUSH1 0x64 SWAP1 REVERT JUMPDEST PUSH0 DUP1 REVERT JUMPDEST PUSH4 0x4E487B71 PUSH1 0xE0 SHL PUSH0 MSTORE PUSH1 0x41 PUSH1 0x4 MSTORE PUSH1 0x24 PUSH0 REVERT JUMPDEST PUSH1 0x1 PUSH1 0x1 PUSH1 0xA0 SHL SUB DUP2 AND PUSH0 SWAP1 DUP2 MSTORE PUSH0 DUP1 MLOAD PUSH1 0x20 PUSH2 0x494C DUP4 CODECOPY DUP2 MLOAD SWAP2 MSTORE PUSH1 0x20 MSTORE PUSH1 0x40 SWAP1 KECCAK256 SLOAD PUSH1 0xFF AND PUSH2 0x1B5 JUMPI PUSH1 0x1 PUSH1 0x1 PUSH1 0xA0 SHL SUB AND PUSH0 DUP2 DUP2 MSTORE PUSH0 DUP1 MLOAD PUSH1 0x20 PUSH2 0x494C DUP4 CODECOPY DUP2 MLOAD SWAP2 MSTORE PUSH1 0x20 MSTORE PUSH1 0x40 DUP2 KECCAK256 DUP1 SLOAD PUSH1 0xFF NOT AND PUSH1 0x1 OR SWAP1 SSTORE CALLER SWAP2 SWAP1 PUSH0 DUP1 MLOAD PUSH1 0x20 PUSH2 0x48EC DUP4 CODECOPY DUP2 MLOAD SWAP2 MSTORE DUP2 DUP1 LOG4 PUSH1 0x1 SWAP1 JUMP JUMPDEST POP PUSH0 SWAP1 JUMP JUMPDEST PUSH1 0x1 PUSH1 0x1 PUSH1 0xA0 SHL SUB DUP2 AND PUSH0 SWAP1 DUP2 MSTORE PUSH0 DUP1 MLOAD PUSH1 0x20 PUSH2 0x492C DUP4 CODECOPY DUP2 MLOAD SWAP2 MSTORE PUSH1 0x20 MSTORE PUSH1 0x40 SWAP1 KECCAK256 SLOAD PUSH1 0xFF AND PUSH2 0x1B5 JUMPI PUSH1 0x1 PUSH1 0x1 PUSH1 0xA0 SHL SUB AND PUSH0 DUP2 DUP2 MSTORE PUSH0 DUP1 MLOAD PUSH1 0x20 PUSH2 0x492C DUP4 CODECOPY DUP2 MLOAD SWAP2 MSTORE PUSH1 0x20 MSTORE PUSH1 0x40 DUP2 KECCAK256 DUP1 SLOAD PUSH1 0xFF NOT AND PUSH1 0x1 OR SWAP1 SSTORE CALLER SWAP2 SWAP1 PUSH32 0xFC425F2263D0DF187444B70E47283D622C70181C5BAEBB1306A01EDBA1CE184C SWAP1 PUSH0 DUP1 MLOAD PUSH1 0x20 PUSH2 0x48EC DUP4 CODECOPY DUP2 MLOAD SWAP2 MSTORE SWAP1 DUP1 LOG4 PUSH1 0x1 SWAP1 JUMP JUMPDEST PUSH1 0x1 PUSH1 0x1 PUSH1 0xA0 SHL SUB DUP2 AND PUSH0 SWAP1 DUP2 MSTORE PUSH0 DUP1 MLOAD PUSH1 0x20 PUSH2 0x490C DUP4 CODECOPY DUP2 MLOAD SWAP2 MSTORE PUSH1 0x20 MSTORE PUSH1 0x40 SWAP1 KECCAK256 SLOAD PUSH1 0xFF AND PUSH2 0x1B5 JUMPI PUSH1 0x1 PUSH1 0x1 PUSH1 0xA0 SHL SUB AND PUSH0 DUP2 DUP2 MSTORE PUSH0 DUP1 MLOAD PUSH1 0x20 PUSH2 0x490C DUP4 CODECOPY DUP2 MLOAD SWAP2 MSTORE PUSH1 0x20 MSTORE PUSH1 0x40 DUP2 KECCAK256 DUP1 SLOAD PUSH1 0xFF NOT AND PUSH1 0x1 OR SWAP1 SSTORE CALLER SWAP2 SWAP1 PUSH32 0x50484F4A06E2EB9ECE9EFBB6A62CF5EF37AD3CFD6E4604128546DE631DD3EC8F SWAP1 PUSH0 DUP1 MLOAD PUSH1 0x20 PUSH2 0x48EC DUP4 CODECOPY DUP2 MLOAD SWAP2 MSTORE SWAP1 DUP1 LOG4 PUSH1 0x1 SWAP1 JUMP INVALID PUSH1 0x80 DUP1 PUSH1 0x40 MSTORE PUSH1 0x4 CALLDATASIZE LT ISZERO PUSH2 0x12 JUMPI PUSH0 DUP1 REVERT JUMPDEST PUSH0 SWAP1 PUSH0 CALLDATALOAD PUSH1 0xE0 SHR SWAP1 DUP2 PUSH4 0x1FFC9A7 EQ PUSH2 0x1AF1 JUMPI POP DUP1 PUSH4 0x248A9CA3 EQ PUSH2 0x1ABF JUMPI DUP1 PUSH4 0x2F2FF15D EQ PUSH2 0x1A82 JUMPI DUP1 PUSH4 0x3157697E EQ PUSH2 0x1A41 JUMPI DUP1 PUSH4 0x36568ABE EQ PUSH2 0x19FD JUMPI DUP1 PUSH4 0x51E75E8B EQ PUSH2 0x196D JUMPI DUP1 PUSH4 0x6752E9F8 EQ PUSH2 0x191F JUMPI DUP1 PUSH4 0x7322066F EQ PUSH2 0x959 JUMPI DUP1 PUSH4 0x7D591787 EQ PUSH2 0x8ED JUMPI DUP1 PUSH4 0x7F85BF29 EQ PUSH2 0x8D2 JUMPI DUP1 PUSH4 0x804215F6 EQ PUSH2 0x8B5 JUMPI DUP1 PUSH4 0x822F694B EQ PUSH2 0x7C4 JUMPI DUP1 PUSH4 0x8E4B7D6D EQ PUSH2 0x78A JUMPI DUP1 PUSH4 0x91D14854 EQ PUSH2 0x742 JUMPI DUP1 PUSH4 0x935B13F6 EQ PUSH2 0x55F JUMPI DUP1 PUSH4 0x95A74D7A EQ PUSH2 0x722 JUMPI DUP1 PUSH4 0x96151139 EQ PUSH2 0x6A8 JUMPI DUP1 PUSH4 0xA217FDDF EQ PUSH2 0x68E JUMPI DUP1 PUSH4 0xA9B91A78 EQ PUSH2 0x64A JUMPI DUP1 PUSH4 0xAD1AD527 EQ PUSH2 0x5DF JUMPI DUP1 PUSH4 0xAF89B76B EQ PUSH2 0x5C1 JUMPI DUP1 PUSH4 0xC4091236 EQ PUSH2 0x55F JUMPI DUP1 PUSH4 0xC5008F46 EQ PUSH2 0x544 JUMPI DUP1 PUSH4 0xCC32CA80 EQ PUSH2 0x253 JUMPI DUP1 PUSH4 0xD547741F EQ PUSH2 0x20F JUMPI DUP1 PUSH4 0xEC81AADB EQ PUSH2 0x184 JUMPI PUSH4 0xECD00261 EQ PUSH2 0x147 JUMPI PUSH0 DUP1 REVERT JUMPDEST CALLVALUE PUSH2 0x181 JUMPI DUP1 PUSH1 0x3 NOT CALLDATASIZE ADD SLT PUSH2 0x181 JUMPI PUSH1 0x20 PUSH1 0x40 MLOAD PUSH32 0xFC425F2263D0DF187444B70E47283D622C70181C5BAEBB1306A01EDBA1CE184C DUP2 MSTORE RETURN JUMPDEST DUP1 REVERT JUMPDEST CALLVALUE PUSH2 0x20B JUMPI PUSH1 0x20 CALLDATASIZE PUSH1 0x3 NOT ADD SLT PUSH2 0x20B JUMPI PUSH1 0x4 CALLDATALOAD PUSH1 0x3 SLOAD DUP2 LT ISZERO PUSH2 0x20B JUMPI PUSH1 0x3 SLOAD DUP2 LT ISZERO PUSH2 0x1F7 JUMPI PUSH1 0x3 PUSH0 MSTORE PUSH2 0x1F3 SWAP1 PUSH2 0x1DF SWAP1 PUSH32 0xC2575A0E9E593C00F959F8C92F12DB2869C3395A3B0502D05E2516446F71F85B ADD PUSH2 0x1C2E JUMP JUMPDEST PUSH1 0x40 MLOAD SWAP2 DUP3 SWAP2 PUSH1 0x20 DUP4 MSTORE PUSH1 0x20 DUP4 ADD SWAP1 PUSH2 0x1B7C JUMP JUMPDEST SUB SWAP1 RETURN JUMPDEST PUSH4 0x4E487B71 PUSH1 0xE0 SHL PUSH0 MSTORE PUSH1 0x32 PUSH1 0x4 MSTORE PUSH1 0x24 PUSH0 REVERT JUMPDEST PUSH0 DUP1 REVERT JUMPDEST CALLVALUE PUSH2 0x20B JUMPI PUSH1 0x40 CALLDATASIZE PUSH1 0x3 NOT ADD SLT PUSH2 0x20B JUMPI PUSH2 0x251 PUSH1 0x4 CALLDATALOAD PUSH2 0x22E PUSH2 0x1B44 JUMP JUMPDEST SWAP1 PUSH2 0x24C PUSH2 0x247 DUP3 PUSH0 MSTORE PUSH0 PUSH1 0x20 MSTORE PUSH1 0x1 PUSH1 0x40 PUSH0 KECCAK256 ADD SLOAD SWAP1 JUMP JUMPDEST PUSH2 0x207A JUMP JUMPDEST PUSH2 0x213A JUMP JUMPDEST STOP JUMPDEST CALLVALUE PUSH2 0x20B JUMPI PUSH1 0xA0 CALLDATASIZE PUSH1 0x3 NOT ADD SLT PUSH2 0x20B JUMPI PUSH1 0x4 CALLDATALOAD PUSH8 0xFFFFFFFFFFFFFFFF DUP2 GT PUSH2 0x20B JUMPI PUSH2 0x284 SWAP1 CALLDATASIZE SWAP1 PUSH1 0x4 ADD PUSH2 0x1BA0 JUMP JUMPDEST PUSH1 0x24 CALLDATALOAD PUSH8 0xFFFFFFFFFFFFFFFF DUP2 GT PUSH2 0x20B JUMPI PUSH2 0x2A4 SWAP1 CALLDATASIZE SWAP1 PUSH1 0x4 ADD PUSH2 0x1BA0 JUMP JUMPDEST SWAP1 PUSH1 0x44 CALLDATALOAD PUSH1 0x64 CALLDATALOAD PUSH8 0xFFFFFFFFFFFFFFFF DUP2 GT PUSH2 0x20B JUMPI PUSH2 0x2C8 SWAP1 CALLDATASIZE SWAP1 PUSH1 0x4 ADD PUSH2 0x1BA0 JUMP JUMPDEST PUSH1 0x84 CALLDATALOAD SWAP4 DUP5 ISZERO ISZERO DUP1 SWAP6 SUB PUSH2 0x20B JUMPI CALLER PUSH0 SWAP1 DUP2 MSTORE PUSH32 0x740C5E3E456BED56F053F960110118BA9B95A1F5359A82283516FB2E81B6E37E PUSH1 0x20 MSTORE PUSH1 0x40 SWAP1 KECCAK256 SLOAD PUSH1 0xFF AND ISZERO PUSH2 0x50D JUMPI PUSH2 0x314 PUSH2 0x21BA JUMP JUMPDEST PUSH1 0x40 MLOAD SWAP4 DUP2 MLOAD SWAP5 PUSH1 0x20 DUP4 ADD SWAP6 DUP1 DUP8 DUP4 MCOPY PUSH1 0x1 SWAP1 DUP3 ADD SWAP1 DUP2 MSTORE DUP2 SWAP1 SUB PUSH1 0x20 ADD SWAP1 KECCAK256 SLOAD PUSH1 0x1 PUSH1 0x1 PUSH1 0xA0 SHL SUB AND PUSH2 0x4D0 JUMPI PUSH1 0x40 MLOAD SWAP1 PUSH2 0x216A DUP1 DUP4 ADD DUP4 DUP2 LT PUSH8 0xFFFFFFFFFFFFFFFF DUP3 GT OR PUSH2 0x4BC JUMPI PUSH2 0x38C PUSH2 0x37E DUP6 SWAP5 PUSH2 0x3DC SWAP5 PUSH2 0x244C DUP8 CODECOPY PUSH1 0xE0 DUP5 MSTORE PUSH1 0xE0 DUP5 ADD SWAP1 PUSH2 0x1B7C JUMP JUMPDEST DUP3 DUP2 SUB PUSH1 0x20 DUP5 ADD MSTORE DUP7 PUSH2 0x1B7C JUMP JUMPDEST SWAP1 DUP8 PUSH1 0x40 DUP3 ADD MSTORE PUSH1 0x1 DUP1 PUSH1 0xA0 SHL SUB PUSH32 0x0 AND PUSH1 0x60 DUP3 ADD MSTORE PUSH1 0x12 PUSH1 0x80 DUP3 ADD MSTORE DUP10 PUSH1 0xA0 DUP3 ADD MSTORE PUSH1 0xC0 DUP2 DUP4 SUB SWAP2 ADD MSTORE DUP6 PUSH2 0x1B7C JUMP JUMPDEST SUB SWAP1 PUSH0 CREATE SWAP2 DUP3 ISZERO PUSH2 0x4B1 JUMPI PUSH1 0x20 SWAP6 PUSH2 0x470 PUSH2 0x48A SWAP4 PUSH32 0x3F8E9C058048D6AA5A777C6B12ED50CDDA64B37926D1C48AAC3B66C21A915350 SWAP6 PUSH1 0x1 DUP1 PUSH1 0xA0 SHL SUB AND SWAP8 DUP10 PUSH1 0x40 MLOAD DUP1 SWAP3 DUP5 MLOAD DUP1 SWAP2 DUP4 MCOPY DUP2 ADD PUSH1 0x1 DUP2 MSTORE SUB ADD SWAP1 KECCAK256 PUSH1 0x1 DUP1 PUSH1 0xA0 SHL SUB DUP10 AND PUSH1 0x1 PUSH1 0x1 PUSH1 0x60 SHL SUB PUSH1 0xA0 SHL DUP3 SLOAD AND OR SWAP1 SSTORE DUP8 PUSH0 MSTORE PUSH1 0x2 DUP10 MSTORE PUSH1 0x40 PUSH0 KECCAK256 PUSH1 0x1 PUSH1 0xFF NOT DUP3 SLOAD AND OR SWAP1 SSTORE PUSH2 0x46B DUP2 PUSH2 0x1EDC JUMP JUMPDEST PUSH2 0x2028 JUMP JUMPDEST SWAP5 PUSH1 0x40 MLOAD SWAP4 DUP5 SWAP4 DUP9 DUP6 MSTORE PUSH1 0x80 DUP11 DUP7 ADD MSTORE PUSH1 0x80 DUP6 ADD SWAP1 PUSH2 0x1B7C JUMP JUMPDEST SWAP2 PUSH1 0x40 DUP5 ADD MSTORE PUSH1 0x60 DUP4 ADD MSTORE SUB SWAP1 LOG2 PUSH1 0x1 PUSH0 DUP1 MLOAD PUSH1 0x20 PUSH2 0x45B6 DUP4 CODECOPY DUP2 MLOAD SWAP2 MSTORE SSTORE PUSH1 0x40 MLOAD SWAP1 DUP2 MSTORE RETURN JUMPDEST PUSH1 0x40 MLOAD RETURNDATASIZE PUSH0 DUP3 RETURNDATACOPY RETURNDATASIZE SWAP1 REVERT JUMPDEST PUSH4 0x4E487B71 PUSH1 0xE0 SHL PUSH0 MSTORE PUSH1 0x41 PUSH1 0x4 MSTORE PUSH1 0x24 PUSH0 REVERT JUMPDEST PUSH1 0x40 MLOAD PUSH3 0x461BCD PUSH1 0xE5 SHL DUP2 MSTORE PUSH1 0x20 PUSH1 0x4 DUP3 ADD MSTORE PUSH1 0x15 PUSH1 0x24 DUP3 ADD MSTORE PUSH21 0x464143544F52593A20544F4B454E20455849535453 PUSH1 0x58 SHL PUSH1 0x44 DUP3 ADD MSTORE PUSH1 0x64 SWAP1 REVERT JUMPDEST PUSH4 0xE2517D3F PUSH1 0xE0 SHL PUSH0 MSTORE CALLER PUSH1 0x4 MSTORE PUSH32 0xFC425F2263D0DF187444B70E47283D622C70181C5BAEBB1306A01EDBA1CE184C PUSH1 0x24 MSTORE PUSH1 0x44 PUSH0 REVERT JUMPDEST CALLVALUE PUSH2 0x20B JUMPI PUSH0 CALLDATASIZE PUSH1 0x3 NOT ADD SLT PUSH2 0x20B JUMPI PUSH1 0x20 PUSH1 0x40 MLOAD PUSH1 0x12 DUP2 MSTORE RETURN JUMPDEST CALLVALUE PUSH2 0x20B JUMPI PUSH1 0x20 CALLDATASIZE PUSH1 0x3 NOT ADD SLT PUSH2 0x20B JUMPI PUSH1 0x4 CALLDATALOAD PUSH8 0xFFFFFFFFFFFFFFFF DUP2 GT PUSH2 0x20B JUMPI PUSH2 0x592 PUSH1 0x20 SWAP2 CALLDATASIZE SWAP1 PUSH1 0x4 ADD PUSH2 0x1BA0 JUMP JUMPDEST DUP2 PUSH1 0x40 MLOAD SWAP2 DUP1 MLOAD SWAP2 DUP3 SWAP2 ADD DUP4 MCOPY PUSH1 0x1 SWAP1 DUP3 ADD SWAP1 DUP2 MSTORE DUP2 SWAP1 SUB DUP3 ADD SWAP1 KECCAK256 SLOAD PUSH1 0x40 MLOAD PUSH1 0x1 PUSH1 0x1 PUSH1 0xA0 SHL SUB SWAP1 SWAP2 AND DUP2 MSTORE RETURN JUMPDEST CALLVALUE PUSH2 0x20B JUMPI PUSH0 CALLDATASIZE PUSH1 0x3 NOT ADD SLT PUSH2 0x20B JUMPI PUSH1 0x20 PUSH1 0x40 MLOAD PUSH4 0x3B9ACA00 DUP2 MSTORE RETURN JUMPDEST CALLVALUE PUSH2 0x20B JUMPI PUSH0 CALLDATASIZE PUSH1 0x3 NOT ADD SLT PUSH2 0x20B JUMPI PUSH2 0x1F3 PUSH1 0x40 MLOAD PUSH2 0x600 PUSH1 0x60 DUP3 PUSH2 0x1B5A JUMP JUMPDEST PUSH1 0x23 DUP2 MSTORE PUSH32 0x56414C4F522041692B2B2F2F65207C204A4158582E7365727665722E66616374 PUSH1 0x20 DUP3 ADD MSTORE PUSH3 0x6F7279 PUSH1 0xE8 SHL PUSH1 0x40 DUP3 ADD MSTORE PUSH1 0x40 MLOAD SWAP2 DUP3 SWAP2 PUSH1 0x20 DUP4 MSTORE PUSH1 0x20 DUP4 ADD SWAP1 PUSH2 0x1B7C JUMP JUMPDEST CALLVALUE PUSH2 0x20B JUMPI PUSH0 CALLDATASIZE PUSH1 0x3 NOT ADD SLT PUSH2 0x20B JUMPI PUSH1 0x40 MLOAD PUSH32 0x0 PUSH1 0x1 PUSH1 0x1 PUSH1 0xA0 SHL SUB AND DUP2 MSTORE PUSH1 0x20 SWAP1 RETURN JUMPDEST CALLVALUE PUSH2 0x20B JUMPI PUSH0 CALLDATASIZE PUSH1 0x3 NOT ADD SLT PUSH2 0x20B JUMPI PUSH1 0x20 PUSH1 0x40 MLOAD PUSH0 DUP2 MSTORE RETURN JUMPDEST CALLVALUE PUSH2 0x20B JUMPI PUSH0 CALLDATASIZE PUSH1 0x3 NOT ADD SLT PUSH2 0x20B JUMPI PUSH1 0x3 SLOAD DUP1 PUSH1 0x33 SUB PUSH1 0x33 DUP2 GT PUSH2 0x70E JUMPI PUSH1 0x33 PUSH1 0x80 SWAP3 PUSH1 0x40 MLOAD SWAP3 DUP2 DUP5 MSTORE PUSH1 0x20 DUP5 ADD MSTORE EQ PUSH1 0x40 DUP3 ADD MSTORE PUSH1 0x1 DUP1 PUSH1 0xA0 SHL SUB PUSH32 0x0 AND PUSH1 0x60 DUP3 ADD MSTORE RETURN JUMPDEST PUSH4 0x4E487B71 PUSH1 0xE0 SHL PUSH0 MSTORE PUSH1 0x11 PUSH1 0x4 MSTORE PUSH1 0x24 PUSH0 REVERT JUMPDEST CALLVALUE PUSH2 0x20B JUMPI PUSH0 CALLDATASIZE PUSH1 0x3 NOT ADD SLT PUSH2 0x20B JUMPI PUSH1 0x20 PUSH1 0x33 PUSH1 0x3 SLOAD EQ PUSH1 0x40 MLOAD SWAP1 DUP2 MSTORE RETURN JUMPDEST CALLVALUE PUSH2 0x20B JUMPI PUSH1 0x40 CALLDATASIZE PUSH1 0x3 NOT ADD SLT PUSH2 0x20B JUMPI PUSH2 0x75B PUSH2 0x1B44 JUMP JUMPDEST PUSH1 0x4 CALLDATALOAD PUSH0 MSTORE PUSH0 PUSH1 0x20 MSTORE PUSH1 0x40 PUSH0 KECCAK256 SWAP1 PUSH1 0x1 DUP1 PUSH1 0xA0 SHL SUB AND PUSH0 MSTORE PUSH1 0x20 MSTORE PUSH1 0x20 PUSH1 0xFF PUSH1 0x40 PUSH0 KECCAK256 SLOAD AND PUSH1 0x40 MLOAD SWAP1 ISZERO ISZERO DUP2 MSTORE RETURN JUMPDEST CALLVALUE PUSH2 0x20B JUMPI PUSH0 CALLDATASIZE PUSH1 0x3 NOT ADD SLT PUSH2 0x20B JUMPI PUSH1 0x20 PUSH1 0x40 MLOAD PUSH32 0x50484F4A06E2EB9ECE9EFBB6A62CF5EF37AD3CFD6E4604128546DE631DD3EC8F DUP2 MSTORE RETURN JUMPDEST CALLVALUE PUSH2 0x20B JUMPI PUSH0 CALLDATASIZE PUSH1 0x3 NOT ADD SLT PUSH2 0x20B JUMPI PUSH1 0x3 SLOAD PUSH8 0xFFFFFFFFFFFFFFFF DUP2 GT PUSH2 0x4BC JUMPI PUSH1 0x40 MLOAD SWAP1 PUSH2 0x7FA PUSH1 0x20 DUP3 PUSH1 0x5 SHL ADD DUP4 PUSH2 0x1B5A JUMP JUMPDEST DUP1 DUP3 MSTORE PUSH1 0x20 DUP3 ADD SWAP1 DUP2 PUSH1 0x3 PUSH0 MSTORE PUSH32 0xC2575A0E9E593C00F959F8C92F12DB2869C3395A3B0502D05E2516446F71F85B PUSH0 SWAP2 JUMPDEST DUP4 DUP4 LT PUSH2 0x898 JUMPI DUP5 DUP7 PUSH1 0x40 MLOAD SWAP2 DUP3 SWAP2 PUSH1 0x20 DUP4 ADD SWAP1 PUSH1 0x20 DUP5 MSTORE MLOAD DUP1 SWAP2 MSTORE PUSH1 0x40 DUP4 ADD SWAP1 PUSH1 0x40 DUP2 PUSH1 0x5 SHL DUP6 ADD ADD SWAP3 SWAP2 PUSH0 SWAP1 JUMPDEST DUP3 DUP3 LT PUSH2 0x869 JUMPI POP POP POP POP SUB SWAP1 RETURN JUMPDEST SWAP2 SWAP4 PUSH1 0x1 SWAP2 SWAP4 SWAP6 POP PUSH1 0x20 PUSH2 0x888 DUP2 SWAP3 PUSH1 0x3F NOT DUP11 DUP3 SUB ADD DUP7 MSTORE DUP9 MLOAD PUSH2 0x1B7C JUMP JUMPDEST SWAP7 ADD SWAP3 ADD SWAP3 ADD DUP6 SWAP5 SWAP4 SWAP2 SWAP3 PUSH2 0x85A JUMP JUMPDEST PUSH1 0x1 PUSH1 0x20 DUP2 SWAP3 PUSH2 0x8A7 DUP6 PUSH2 0x1C2E JUMP JUMPDEST DUP2 MSTORE ADD SWAP3 ADD SWAP3 ADD SWAP2 SWAP1 PUSH2 0x82B JUMP JUMPDEST CALLVALUE PUSH2 0x20B JUMPI PUSH0 CALLDATASIZE PUSH1 0x3 NOT ADD SLT PUSH2 0x20B JUMPI PUSH1 0x20 PUSH1 0x3 SLOAD PUSH1 0x40 MLOAD SWAP1 DUP2 MSTORE RETURN JUMPDEST CALLVALUE PUSH2 0x20B JUMPI PUSH0 CALLDATASIZE PUSH1 0x3 NOT ADD SLT PUSH2 0x20B JUMPI PUSH1 0x20 PUSH1 0x40 MLOAD PUSH1 0x33 DUP2 MSTORE RETURN JUMPDEST CALLVALUE PUSH2 0x20B JUMPI PUSH0 CALLDATASIZE PUSH1 0x3 NOT ADD SLT PUSH2 0x20B JUMPI PUSH2 0x1F3 PUSH1 0x40 MLOAD PUSH2 0x90E PUSH1 0x60 DUP3 PUSH2 0x1B5A JUMP JUMPDEST PUSH1 0x24 DUP2 MSTORE PUSH32 0x2F696D616765732F6A6178782D7365727665722D666163746F72792D6C6F676F PUSH1 0x20 DUP3 ADD MSTORE PUSH4 0x2E6A7067 PUSH1 0xE0 SHL PUSH1 0x40 DUP3 ADD MSTORE PUSH1 0x40 MLOAD SWAP2 DUP3 SWAP2 PUSH1 0x20 DUP4 MSTORE PUSH1 0x20 DUP4 ADD SWAP1 PUSH2 0x1B7C JUMP JUMPDEST CALLVALUE PUSH2 0x20B JUMPI PUSH0 CALLDATASIZE PUSH1 0x3 NOT ADD SLT PUSH2 0x20B JUMPI CALLER PUSH0 SWAP1 DUP2 MSTORE PUSH32 0x5892F7A5466545CB3C1AE968031E4D902D61EF5DF2F344FBA60937D07C44A2FE PUSH1 0x20 MSTORE PUSH1 0x40 SWAP1 KECCAK256 SLOAD PUSH1 0xFF AND ISZERO PUSH2 0x18E8 JUMPI PUSH2 0x9A7 PUSH2 0x21BA JUMP JUMPDEST PUSH32 0xB951DD04FC1190440935CC1BB78EBAB639847DD82618C43F44B1BF5CCB77E49F PUSH1 0x40 PUSH2 0xA1C DUP2 MLOAD PUSH2 0x9D9 DUP4 DUP3 PUSH2 0x1B5A JUMP JUMPDEST PUSH1 0xA DUP2 MSTORE PUSH10 0x56616C6F7220436F7265 PUSH1 0xB0 SHL PUSH1 0x20 DUP3 ADD MSTORE DUP3 MLOAD PUSH2 0x9FC DUP5 DUP3 PUSH2 0x1B5A JUMP JUMPDEST PUSH1 0x5 DUP2 MSTORE PUSH5 0x56434F5245 PUSH1 0xD8 SHL PUSH1 0x20 DUP3 ADD MSTORE PUSH2 0xA16 PUSH2 0x1CCE JUMP JUMPDEST SWAP2 PUSH2 0x21F2 JUMP JUMPDEST PUSH2 0xA64 DUP2 MLOAD PUSH2 0xA2B DUP4 DUP3 PUSH2 0x1B5A JUMP JUMPDEST PUSH1 0x8 DUP2 MSTORE PUSH8 0x56616C6F72204149 PUSH1 0xC0 SHL PUSH1 0x20 DUP3 ADD MSTORE DUP3 MLOAD PUSH2 0xA4C DUP5 DUP3 PUSH2 0x1B5A JUMP JUMPDEST PUSH1 0x3 DUP2 MSTORE PUSH3 0x564149 PUSH1 0xE8 SHL PUSH1 0x20 DUP3 ADD MSTORE PUSH2 0xA16 PUSH2 0x1CCE JUMP JUMPDEST PUSH2 0xAB3 DUP2 MLOAD PUSH2 0xA73 DUP4 DUP3 PUSH2 0x1B5A JUMP JUMPDEST PUSH1 0xE DUP2 MSTORE PUSH14 0x56616C6F72205365637572697479 PUSH1 0x90 SHL PUSH1 0x20 DUP3 ADD MSTORE DUP3 MLOAD PUSH2 0xA9A DUP5 DUP3 PUSH2 0x1B5A JUMP JUMPDEST PUSH1 0x4 DUP2 MSTORE PUSH4 0x56534543 PUSH1 0xE0 SHL PUSH1 0x20 DUP3 ADD MSTORE PUSH2 0xA16 PUSH2 0x1CCE JUMP JUMPDEST PUSH2 0xAFD DUP2 MLOAD PUSH2 0xAC2 DUP4 DUP3 PUSH2 0x1B5A JUMP JUMPDEST PUSH1 0x9 DUP2 MSTORE PUSH9 0xACC2D8DEE4409AC2F PUSH1 0xBB SHL PUSH1 0x20 DUP3 ADD MSTORE DUP3 MLOAD PUSH2 0xAE4 DUP5 DUP3 PUSH2 0x1B5A JUMP JUMPDEST PUSH1 0x4 DUP2 MSTORE PUSH4 0xAC9A82B PUSH1 0xE3 SHL PUSH1 0x20 DUP3 ADD MSTORE PUSH2 0xA16 PUSH2 0x1CCE JUMP JUMPDEST PUSH2 0xB49 DUP2 MLOAD PUSH2 0xB0C DUP4 DUP3 PUSH2 0x1B5A JUMP JUMPDEST PUSH1 0xB DUP2 MSTORE PUSH11 0x56616C6F7220426C6F636B PUSH1 0xA8 SHL PUSH1 0x20 DUP3 ADD MSTORE DUP3 MLOAD PUSH2 0xB30 DUP5 DUP3 PUSH2 0x1B5A JUMP JUMPDEST PUSH1 0x4 DUP2 MSTORE PUSH4 0x56424C4B PUSH1 0xE0 SHL PUSH1 0x20 DUP3 ADD MSTORE PUSH2 0xA16 PUSH2 0x1CCE JUMP JUMPDEST PUSH2 0xB94 DUP2 MLOAD PUSH2 0xB58 DUP4 DUP3 PUSH2 0x1B5A JUMP JUMPDEST PUSH1 0xA DUP2 MSTORE PUSH10 0x4465616420426C6F636B PUSH1 0xB0 SHL PUSH1 0x20 DUP3 ADD MSTORE DUP3 MLOAD PUSH2 0xB7B DUP5 DUP3 PUSH2 0x1B5A JUMP JUMPDEST PUSH1 0x4 DUP2 MSTORE PUSH4 0x44424C4B PUSH1 0xE0 SHL PUSH1 0x20 DUP3 ADD MSTORE PUSH2 0xA16 PUSH2 0x1CCE JUMP JUMPDEST PUSH2 0xBE5 DUP2 MLOAD PUSH2 0xBA3 DUP4 DUP3 PUSH2 0x1B5A JUMP JUMPDEST PUSH1 0x10 DUP2 MSTORE PUSH16 0x56616C6F7220476F7665726E616E6365 PUSH1 0x80 SHL PUSH1 0x20 DUP3 ADD MSTORE DUP3 MLOAD PUSH2 0xBCC DUP5 DUP3 PUSH2 0x1B5A JUMP JUMPDEST PUSH1 0x4 DUP2 MSTORE PUSH4 0x2B23A7AB PUSH1 0xE1 SHL PUSH1 0x20 DUP3 ADD MSTORE PUSH2 0xA16 PUSH2 0x1CCE JUMP JUMPDEST PUSH2 0xC2D DUP2 MLOAD PUSH2 0xBF4 DUP4 DUP3 PUSH2 0x1B5A JUMP JUMPDEST PUSH1 0x7 DUP2 MSTORE PUSH7 0xACC2D8DEE440B PUSH1 0xCB SHL PUSH1 0x20 DUP3 ADD MSTORE DUP3 MLOAD PUSH2 0xC14 DUP5 DUP3 PUSH2 0x1B5A JUMP JUMPDEST PUSH1 0x4 DUP2 MSTORE PUSH4 0xAC8298B PUSH1 0xE3 SHL PUSH1 0x20 DUP3 ADD MSTORE PUSH2 0xA16 PUSH2 0x1CCE JUMP JUMPDEST PUSH2 0xC7C DUP2 MLOAD PUSH2 0xC3C DUP4 DUP3 PUSH2 0x1B5A JUMP JUMPDEST PUSH1 0xB DUP2 MSTORE PUSH11 0x47696C6C736F6E20425443 PUSH1 0xA8 SHL PUSH1 0x20 DUP3 ADD MSTORE DUP3 MLOAD PUSH2 0xC60 DUP5 DUP3 PUSH2 0x1B5A JUMP JUMPDEST PUSH1 0x7 DUP2 MSTORE PUSH7 0x47494C4C425443 PUSH1 0xC8 SHL PUSH1 0x20 DUP3 ADD MSTORE PUSH2 0xA16 PUSH2 0x1CF0 JUMP JUMPDEST PUSH2 0xCC6 DUP2 MLOAD PUSH2 0xC8B DUP4 DUP3 PUSH2 0x1B5A JUMP JUMPDEST PUSH1 0x7 DUP2 MSTORE PUSH7 0x42544320322E3 PUSH1 0xCC SHL PUSH1 0x20 DUP3 ADD MSTORE DUP3 MLOAD PUSH2 0xCAB DUP5 DUP3 PUSH2 0x1B5A JUMP JUMPDEST PUSH1 0x6 DUP2 MSTORE PUSH6 0x425443322E3 PUSH1 0xD4 SHL PUSH1 0x20 DUP3 ADD MSTORE PUSH2 0xA16 PUSH2 0x1CF0 JUMP JUMPDEST PUSH2 0xD0B DUP2 MLOAD PUSH2 0xCD5 DUP4 DUP3 PUSH2 0x1B5A JUMP JUMPDEST PUSH1 0x5 DUP2 MSTORE PUSH5 0x466C616D65 PUSH1 0xD8 SHL PUSH1 0x20 DUP3 ADD MSTORE DUP3 MLOAD PUSH2 0xCF3 DUP5 DUP3 PUSH2 0x1B5A JUMP JUMPDEST PUSH1 0x3 DUP2 MSTORE PUSH3 0x464C4D PUSH1 0xE8 SHL PUSH1 0x20 DUP3 ADD MSTORE PUSH2 0xA16 PUSH2 0x1D11 JUMP JUMPDEST PUSH2 0xD41 DUP2 MLOAD PUSH2 0xD1A DUP4 DUP3 PUSH2 0x1B5A JUMP JUMPDEST PUSH1 0xA DUP2 MSTORE PUSH10 0x466C616D6520436F7265 PUSH1 0xB0 SHL PUSH1 0x20 DUP3 ADD MSTORE PUSH2 0xD39 PUSH2 0x1D11 JUMP JUMPDEST PUSH2 0xA16 PUSH2 0x1D11 JUMP JUMPDEST PUSH2 0xD86 DUP2 MLOAD PUSH2 0xD50 DUP4 DUP3 PUSH2 0x1B5A JUMP JUMPDEST PUSH1 0x5 DUP2 MSTORE PUSH5 0x466C617265 PUSH1 0xD8 SHL PUSH1 0x20 DUP3 ADD MSTORE DUP3 MLOAD PUSH2 0xD6E DUP5 DUP3 PUSH2 0x1B5A JUMP JUMPDEST PUSH1 0x3 DUP2 MSTORE PUSH3 0x232629 PUSH1 0xE9 SHL PUSH1 0x20 DUP3 ADD MSTORE PUSH2 0xA16 PUSH2 0x1D11 JUMP JUMPDEST PUSH2 0xDD2 DUP2 MLOAD PUSH2 0xD95 DUP4 DUP3 PUSH2 0x1B5A JUMP JUMPDEST PUSH1 0xA DUP2 MSTORE PUSH10 0x15985B1BDC8814DBDD5B PUSH1 0xB2 SHL PUSH1 0x20 DUP3 ADD MSTORE DUP3 MLOAD PUSH2 0xDB8 DUP5 DUP3 PUSH2 0x1B5A JUMP JUMPDEST PUSH1 0x5 DUP2 MSTORE PUSH5 0x1594DBDD5B PUSH1 0xDA SHL PUSH1 0x20 DUP3 ADD MSTORE PUSH2 0xA16 PUSH2 0x1D34 JUMP JUMPDEST PUSH2 0xE02 DUP2 MLOAD PUSH2 0xDE1 DUP4 DUP3 PUSH2 0x1B5A JUMP JUMPDEST PUSH1 0x4 DUP2 MSTORE PUSH4 0x14DBDD5B PUSH1 0xE2 SHL PUSH1 0x20 DUP3 ADD MSTORE PUSH2 0xDFA PUSH2 0x1D34 JUMP JUMPDEST PUSH2 0xA16 PUSH2 0x1D34 JUMP JUMPDEST PUSH2 0xE49 DUP2 MLOAD PUSH2 0xE11 DUP4 DUP3 PUSH2 0x1B5A JUMP JUMPDEST PUSH1 0x5 DUP2 MSTORE PUSH5 0x11DA1BDCDD PUSH1 0xDA SHL PUSH1 0x20 DUP3 ADD MSTORE DUP3 MLOAD PUSH2 0xE2F DUP5 DUP3 PUSH2 0x1B5A JUMP JUMPDEST PUSH1 0x5 DUP2 MSTORE PUSH5 0x11D213D4D5 PUSH1 0xDA SHL PUSH1 0x20 DUP3 ADD MSTORE PUSH2 0xA16 PUSH2 0x1D34 JUMP JUMPDEST PUSH2 0xE8E DUP2 MLOAD PUSH2 0xE58 DUP4 DUP3 PUSH2 0x1B5A JUMP JUMPDEST PUSH1 0x4 DUP2 MSTORE PUSH4 0x11195859 PUSH1 0xE2 SHL PUSH1 0x20 DUP3 ADD MSTORE DUP3 MLOAD PUSH2 0xE75 DUP5 DUP3 PUSH2 0x1B5A JUMP JUMPDEST PUSH1 0x4 DUP2 MSTORE PUSH4 0x11115051 PUSH1 0xE2 SHL PUSH1 0x20 DUP3 ADD MSTORE PUSH2 0xA16 PUSH2 0x1D34 JUMP JUMPDEST PUSH2 0xEDD DUP2 MLOAD PUSH2 0xE9D DUP4 DUP3 PUSH2 0x1B5A JUMP JUMPDEST PUSH1 0xC DUP2 MSTORE PUSH12 0x496E74656C20536563757265 PUSH1 0xA0 SHL PUSH1 0x20 DUP3 ADD MSTORE DUP3 MLOAD PUSH2 0xEC2 DUP5 DUP3 PUSH2 0x1B5A JUMP JUMPDEST PUSH1 0x6 DUP2 MSTORE PUSH6 0x494E544C2D53 PUSH1 0xD0 SHL PUSH1 0x20 DUP3 ADD MSTORE PUSH2 0xA16 PUSH2 0x1D56 JUMP JUMPDEST PUSH2 0xF23 DUP2 MLOAD PUSH2 0xEEC DUP4 DUP3 PUSH2 0x1B5A JUMP JUMPDEST PUSH1 0x5 DUP2 MSTORE PUSH5 0x125B9D195B PUSH1 0xDA SHL PUSH1 0x20 DUP3 ADD MSTORE DUP3 MLOAD PUSH2 0xF0A DUP5 DUP3 PUSH2 0x1B5A JUMP JUMPDEST PUSH1 0x4 DUP2 MSTORE PUSH4 0x12539513 PUSH1 0xE2 SHL PUSH1 0x20 DUP3 ADD MSTORE PUSH2 0xA16 PUSH2 0x1D56 JUMP JUMPDEST PUSH2 0xF6E DUP2 MLOAD PUSH2 0xF32 DUP4 DUP3 PUSH2 0x1B5A JUMP JUMPDEST PUSH1 0x7 DUP2 MSTORE PUSH7 0x125B9D195B1A5D PUSH1 0xCA SHL PUSH1 0x20 DUP3 ADD MSTORE DUP3 MLOAD PUSH2 0xF52 DUP5 DUP3 PUSH2 0x1B5A JUMP JUMPDEST PUSH1 0x7 DUP2 MSTORE PUSH7 0x12539511531255 PUSH1 0xCA SHL PUSH1 0x20 DUP3 ADD MSTORE PUSH2 0xA16 PUSH2 0x1D56 JUMP JUMPDEST PUSH2 0xFBD DUP2 MLOAD PUSH2 0xF7D DUP4 DUP3 PUSH2 0x1B5A JUMP JUMPDEST PUSH1 0xB DUP2 MSTORE PUSH11 0x564D7761726520506C7573 PUSH1 0xA8 SHL PUSH1 0x20 DUP3 ADD MSTORE DUP3 MLOAD PUSH2 0xFA1 DUP5 DUP3 PUSH2 0x1B5A JUMP JUMPDEST PUSH1 0x7 DUP2 MSTORE PUSH7 0x564D574152452B PUSH1 0xC8 SHL PUSH1 0x20 DUP3 ADD MSTORE PUSH2 0xA16 PUSH2 0x1D79 JUMP JUMPDEST PUSH2 0x100A DUP2 MLOAD PUSH2 0xFCC DUP4 DUP3 PUSH2 0x1B5A JUMP JUMPDEST PUSH1 0xA DUP2 MSTORE PUSH10 0x427261696E20506C7573 PUSH1 0xB0 SHL PUSH1 0x20 DUP3 ADD MSTORE DUP3 MLOAD PUSH2 0xFEF DUP5 DUP3 PUSH2 0x1B5A JUMP JUMPDEST PUSH1 0x6 DUP2 MSTORE PUSH6 0x425241494E2B PUSH1 0xD0 SHL PUSH1 0x20 DUP3 ADD MSTORE PUSH2 0xA16 PUSH2 0x1D79 JUMP JUMPDEST PUSH2 0x1055 DUP2 MLOAD PUSH2 0x1019 DUP4 DUP3 PUSH2 0x1B5A JUMP JUMPDEST PUSH1 0x7 DUP2 MSTORE PUSH7 0x22B23ABA30B4B7 PUSH1 0xC9 SHL PUSH1 0x20 DUP3 ADD MSTORE DUP3 MLOAD PUSH2 0x1039 DUP5 DUP3 PUSH2 0x1B5A JUMP JUMPDEST PUSH1 0x7 DUP2 MSTORE PUSH7 0x22A22AAA20A4A7 PUSH1 0xC9 SHL PUSH1 0x20 DUP3 ADD MSTORE PUSH2 0xA16 PUSH2 0x1D79 JUMP JUMPDEST PUSH2 0x10A0 DUP2 MLOAD PUSH2 0x1064 DUP4 DUP3 PUSH2 0x1B5A JUMP JUMPDEST PUSH1 0x9 DUP2 MSTORE PUSH9 0x4D61746820506C7573 PUSH1 0xB8 SHL PUSH1 0x20 DUP3 ADD MSTORE DUP3 MLOAD PUSH2 0x1086 DUP5 DUP3 PUSH2 0x1B5A JUMP JUMPDEST PUSH1 0x5 DUP2 MSTORE PUSH5 0x4D4154482B PUSH1 0xD8 SHL PUSH1 0x20 DUP3 ADD MSTORE PUSH2 0xA16 PUSH2 0x1D79 JUMP JUMPDEST PUSH2 0x10F5 DUP2 MLOAD PUSH2 0x10AF DUP4 DUP3 PUSH2 0x1B5A JUMP JUMPDEST PUSH1 0xC DUP2 MSTORE PUSH12 0x56616C6F72414920506C7573 PUSH1 0xA0 SHL PUSH1 0x20 DUP3 ADD MSTORE DUP3 MLOAD PUSH2 0x10D4 DUP5 DUP3 PUSH2 0x1B5A JUMP JUMPDEST PUSH1 0xC DUP2 MSTORE PUSH12 0x2456414C4F524149504C5553 PUSH1 0xA0 SHL PUSH1 0x20 DUP3 ADD MSTORE PUSH2 0xA16 PUSH2 0x1D9C JUMP JUMPDEST PUSH2 0x1176 DUP2 MLOAD PUSH2 0x1104 DUP4 DUP3 PUSH2 0x1B5A JUMP JUMPDEST PUSH1 0x15 DUP2 MSTORE PUSH21 0x56616C6F72414920506C75732044414F2032303335 PUSH1 0x58 SHL PUSH1 0x20 DUP3 ADD MSTORE DUP3 MLOAD PUSH2 0x1133 PUSH1 0x60 DUP3 PUSH2 0x1B5A JUMP JUMPDEST PUSH1 0x29 DUP2 MSTORE PUSH32 0x2456414C4F524149504C555332455F44414F5F474F5645524E414E43455F3230 PUSH1 0x20 DUP3 ADD MSTORE PUSH9 0xCCD57D0D313D4D151 PUSH1 0xBA SHL DUP5 DUP3 ADD MSTORE PUSH2 0xA16 PUSH2 0x1D9C JUMP JUMPDEST PUSH2 0x11C0 DUP2 MLOAD PUSH2 0x1185 DUP4 DUP3 PUSH2 0x1B5A JUMP JUMPDEST PUSH1 0x9 DUP2 MSTORE PUSH9 0x2B30B637B91020A1A7 PUSH1 0xB9 SHL PUSH1 0x20 DUP3 ADD MSTORE DUP3 MLOAD PUSH2 0x11A7 DUP5 DUP3 PUSH2 0x1B5A JUMP JUMPDEST PUSH1 0x4 DUP2 MSTORE PUSH4 0x2B20A1A7 PUSH1 0xE1 SHL PUSH1 0x20 DUP3 ADD MSTORE PUSH2 0xA16 PUSH2 0x1D9C JUMP JUMPDEST PUSH2 0x120E DUP2 MLOAD PUSH2 0x11CF DUP4 DUP3 PUSH2 0x1B5A JUMP JUMPDEST PUSH1 0x9 DUP2 MSTORE PUSH9 0x56616C6F722044414F PUSH1 0xB8 SHL PUSH1 0x20 DUP3 ADD MSTORE DUP3 MLOAD PUSH2 0x11F1 DUP5 DUP3 PUSH2 0x1B5A JUMP JUMPDEST PUSH1 0x8 DUP2 MSTORE PUSH8 0x56414C4F5244414F PUSH1 0xC0 SHL PUSH1 0x20 DUP3 ADD MSTORE PUSH2 0xA16 PUSH2 0x1D9C JUMP JUMPDEST PUSH2 0x125E DUP2 MLOAD PUSH2 0x121D DUP4 DUP3 PUSH2 0x1B5A JUMP JUMPDEST PUSH1 0xD DUP2 MSTORE PUSH13 0x56616C6F72205574696C697479 PUSH1 0x98 SHL PUSH1 0x20 DUP3 ADD MSTORE DUP3 MLOAD PUSH2 0x1243 DUP5 DUP3 PUSH2 0x1B5A JUMP JUMPDEST PUSH1 0x6 DUP2 MSTORE PUSH6 0x159053155513 PUSH1 0xD2 SHL PUSH1 0x20 DUP3 ADD MSTORE PUSH2 0xA16 PUSH2 0x1D9C JUMP JUMPDEST PUSH2 0x12AC DUP2 MLOAD PUSH2 0x126D DUP4 DUP3 PUSH2 0x1B5A JUMP JUMPDEST PUSH1 0xD DUP2 MSTORE PUSH13 0x2B30B637B9102220A79023B7BB PUSH1 0x99 SHL PUSH1 0x20 DUP3 ADD MSTORE DUP3 MLOAD PUSH2 0x1293 DUP5 DUP3 PUSH2 0x1B5A JUMP JUMPDEST PUSH1 0x4 DUP2 MSTORE PUSH4 0x5644414F PUSH1 0xE0 SHL PUSH1 0x20 DUP3 ADD MSTORE PUSH2 0xA16 PUSH2 0x1DBF JUMP JUMPDEST PUSH2 0x12F1 DUP2 MLOAD PUSH2 0x12BB DUP4 DUP3 PUSH2 0x1B5A JUMP JUMPDEST PUSH1 0x5 DUP2 MSTORE PUSH5 0x15985D5B1D PUSH1 0xDA SHL PUSH1 0x20 DUP3 ADD MSTORE DUP3 MLOAD PUSH2 0x12D9 DUP5 DUP3 PUSH2 0x1B5A JUMP JUMPDEST PUSH1 0x3 DUP2 MSTORE PUSH3 0x159315 PUSH1 0xEA SHL PUSH1 0x20 DUP3 ADD MSTORE PUSH2 0xA16 PUSH2 0x1DBF JUMP JUMPDEST PUSH2 0x133B DUP2 MLOAD PUSH2 0x1300 DUP4 DUP3 PUSH2 0x1B5A JUMP JUMPDEST PUSH1 0x9 DUP2 MSTORE PUSH9 0x15985B1BDC8813995D PUSH1 0xBA SHL PUSH1 0x20 DUP3 ADD MSTORE DUP3 MLOAD PUSH2 0x1322 DUP5 DUP3 PUSH2 0x1B5A JUMP JUMPDEST PUSH1 0x4 DUP2 MSTORE PUSH4 0x15939155 PUSH1 0xE2 SHL PUSH1 0x20 DUP3 ADD MSTORE PUSH2 0xA16 PUSH2 0x1DBF JUMP JUMPDEST PUSH2 0x1384 DUP2 MLOAD PUSH2 0x134A DUP4 DUP3 PUSH2 0x1B5A JUMP JUMPDEST PUSH1 0x6 DUP2 MSTORE PUSH6 0x14DADC9BDB1B PUSH1 0xD2 SHL PUSH1 0x20 DUP3 ADD MSTORE DUP3 MLOAD PUSH2 0x1369 DUP5 DUP3 PUSH2 0x1B5A JUMP JUMPDEST PUSH1 0x6 DUP2 MSTORE PUSH6 0x14D2D493D313 PUSH1 0xD2 SHL PUSH1 0x20 DUP3 ADD MSTORE PUSH2 0xA16 PUSH2 0x1DE7 JUMP JUMPDEST PUSH2 0x13CB DUP2 MLOAD PUSH2 0x1393 DUP4 DUP3 PUSH2 0x1B5A JUMP JUMPDEST PUSH1 0x5 DUP2 MSTORE PUSH5 0x14DADBDB1B PUSH1 0xDA SHL PUSH1 0x20 DUP3 ADD MSTORE DUP3 MLOAD PUSH2 0x13B1 DUP5 DUP3 PUSH2 0x1B5A JUMP JUMPDEST PUSH1 0x5 DUP2 MSTORE PUSH5 0x14D2D3D313 PUSH1 0xDA SHL PUSH1 0x20 DUP3 ADD MSTORE PUSH2 0xA16 PUSH2 0x1DE7 JUMP JUMPDEST PUSH2 0x1412 DUP2 MLOAD PUSH2 0x13DA DUP4 DUP3 PUSH2 0x1B5A JUMP JUMPDEST PUSH1 0x5 DUP2 MSTORE PUSH5 0x14DADC9BDB PUSH1 0xDA SHL PUSH1 0x20 DUP3 ADD MSTORE DUP3 MLOAD PUSH2 0x13F8 DUP5 DUP3 PUSH2 0x1B5A JUMP JUMPDEST PUSH1 0x5 DUP2 MSTORE PUSH5 0x14D2D493D3 PUSH1 0xDA SHL PUSH1 0x20 DUP3 ADD MSTORE PUSH2 0xA16 PUSH2 0x1DE7 JUMP JUMPDEST PUSH2 0x1476 DUP2 MLOAD PUSH2 0x1421 DUP4 DUP3 PUSH2 0x1B5A JUMP JUMPDEST PUSH1 0xA DUP2 MSTORE PUSH10 0x44472047726176697479 PUSH1 0xB0 SHL PUSH1 0x20 DUP3 ADD MSTORE DUP3 MLOAD PUSH2 0x1444 DUP5 DUP3 PUSH2 0x1B5A JUMP JUMPDEST PUSH1 0x17 DUP2 MSTORE PUSH32 0x444737372E3737585F475241564954595F414354495645000000000000000000 PUSH1 0x20 DUP3 ADD MSTORE PUSH2 0xA16 PUSH2 0x1E0B JUMP JUMPDEST PUSH2 0x14C1 DUP2 MLOAD PUSH2 0x1485 DUP4 DUP3 PUSH2 0x1B5A JUMP JUMPDEST PUSH1 0xA DUP2 MSTORE PUSH10 0x29A3A0AA902A37B5B2B7 PUSH1 0xB1 SHL PUSH1 0x20 DUP3 ADD MSTORE DUP3 MLOAD PUSH2 0x14A8 DUP5 DUP3 PUSH2 0x1B5A JUMP JUMPDEST PUSH1 0x4 DUP2 MSTORE PUSH4 0x53474155 PUSH1 0xE0 SHL PUSH1 0x20 DUP3 ADD MSTORE PUSH2 0xA16 PUSH2 0x1E0B JUMP JUMPDEST PUSH2 0x1508 DUP2 MLOAD PUSH2 0x14D0 DUP4 DUP3 PUSH2 0x1B5A JUMP JUMPDEST PUSH1 0x5 DUP2 MSTORE PUSH5 0x105B99D95B PUSH1 0xDA SHL PUSH1 0x20 DUP3 ADD MSTORE DUP3 MLOAD PUSH2 0x14EE DUP5 DUP3 PUSH2 0x1B5A JUMP JUMPDEST PUSH1 0x5 DUP2 MSTORE PUSH5 0x9105391D3 PUSH1 0xDA SHL PUSH1 0x20 DUP3 ADD MSTORE PUSH2 0xA16 PUSH2 0x1E0B JUMP JUMPDEST PUSH2 0x1557 DUP2 MLOAD PUSH2 0x1517 DUP4 DUP3 PUSH2 0x1B5A JUMP JUMPDEST PUSH1 0xA DUP2 MSTORE PUSH10 0x20B733B2B6101918191B PUSH1 0xB1 SHL PUSH1 0x20 DUP3 ADD MSTORE DUP3 MLOAD PUSH2 0x153A DUP5 DUP3 PUSH2 0x1B5A JUMP JUMPDEST PUSH1 0x8 DUP2 MSTORE PUSH8 0x20A723A61918191B PUSH1 0xC1 SHL PUSH1 0x20 DUP3 ADD MSTORE PUSH2 0xA16 PUSH2 0x1E0B JUMP JUMPDEST PUSH2 0x15A1 DUP2 MLOAD PUSH2 0x1566 DUP4 DUP3 PUSH2 0x1B5A JUMP JUMPDEST PUSH1 0x7 DUP2 MSTORE PUSH7 0x44472031393639 PUSH1 0xC8 SHL PUSH1 0x20 DUP3 ADD MSTORE DUP3 MLOAD PUSH2 0x1586 DUP5 DUP3 PUSH2 0x1B5A JUMP JUMPDEST PUSH1 0x6 DUP2 MSTORE PUSH6 0x444731393639 PUSH1 0xD0 SHL PUSH1 0x20 DUP3 ADD MSTORE PUSH2 0xA16 PUSH2 0x1E2F JUMP JUMPDEST PUSH2 0x15EB DUP2 MLOAD PUSH2 0x15B0 DUP4 DUP3 PUSH2 0x1B5A JUMP JUMPDEST PUSH1 0x7 DUP2 MSTORE PUSH7 0x444A2054696D65 PUSH1 0xC8 SHL PUSH1 0x20 DUP3 ADD MSTORE DUP3 MLOAD PUSH2 0x15D0 DUP5 DUP3 PUSH2 0x1B5A JUMP JUMPDEST PUSH1 0x6 DUP2 MSTORE PUSH6 0x444A54494D45 PUSH1 0xD0 SHL PUSH1 0x20 DUP3 ADD MSTORE PUSH2 0xA16 PUSH2 0x1E2F JUMP JUMPDEST PUSH2 0x161B DUP2 MLOAD PUSH2 0x15FA DUP4 DUP3 PUSH2 0x1B5A JUMP JUMPDEST PUSH1 0x4 DUP2 MSTORE PUSH4 0x54696D65 PUSH1 0xE0 SHL PUSH1 0x20 DUP3 ADD MSTORE PUSH2 0x1613 PUSH2 0x1E2F JUMP JUMPDEST PUSH2 0xA16 PUSH2 0x1E2F JUMP JUMPDEST PUSH2 0x1670 DUP2 MLOAD PUSH2 0x162A DUP4 DUP3 PUSH2 0x1B5A JUMP JUMPDEST PUSH1 0x9 DUP2 MSTORE PUSH9 0x2732BBBA101918191B PUSH1 0xB9 SHL PUSH1 0x20 DUP3 ADD MSTORE DUP3 MLOAD PUSH2 0x164C DUP5 DUP3 PUSH2 0x1B5A JUMP JUMPDEST PUSH1 0x9 DUP2 MSTORE PUSH9 0x122722ABAA1918191B PUSH1 0xB9 SHL PUSH1 0x20 DUP3 ADD MSTORE PUSH2 0x166A PUSH2 0x1E51 JUMP JUMPDEST SWAP2 PUSH2 0x2324 JUMP JUMPDEST PUSH2 0x16B8 DUP2 MLOAD PUSH2 0x167F DUP4 DUP3 PUSH2 0x1B5A JUMP JUMPDEST PUSH1 0x5 DUP2 MSTORE PUSH5 0x446F6E6E79 PUSH1 0xD8 SHL PUSH1 0x20 DUP3 ADD MSTORE DUP3 MLOAD PUSH2 0x169D DUP5 DUP3 PUSH2 0x1B5A JUMP JUMPDEST PUSH1 0x6 DUP2 MSTORE PUSH6 0x24444F4E4E59 PUSH1 0xD0 SHL PUSH1 0x20 DUP3 ADD MSTORE PUSH2 0x166A PUSH2 0x1E51 JUMP JUMPDEST PUSH2 0x1704 DUP2 MLOAD PUSH2 0x16C7 DUP4 DUP3 PUSH2 0x1B5A JUMP JUMPDEST PUSH1 0x7 DUP2 MSTORE PUSH7 0x23B4B63639B7B7 PUSH1 0xC9 SHL PUSH1 0x20 DUP3 ADD MSTORE DUP3 MLOAD PUSH2 0x16E7 DUP5 DUP3 PUSH2 0x1B5A JUMP JUMPDEST PUSH1 0x8 DUP2 MSTORE PUSH8 0x1223A4A62629A7A7 PUSH1 0xC1 SHL PUSH1 0x20 DUP3 ADD MSTORE PUSH2 0x166A PUSH2 0x1E51 JUMP JUMPDEST PUSH2 0x1756 DUP2 MLOAD PUSH2 0x1713 DUP4 DUP3 PUSH2 0x1B5A JUMP JUMPDEST PUSH1 0xC DUP2 MSTORE PUSH12 0x11DA5B1B1CDBDB8811DBDB19 PUSH1 0xA2 SHL PUSH1 0x20 DUP3 ADD MSTORE DUP3 MLOAD PUSH2 0x1738 DUP5 DUP3 PUSH2 0x1B5A JUMP JUMPDEST PUSH1 0x9 DUP2 MSTORE PUSH9 0x911D2531311D3D311 PUSH1 0xBA SHL PUSH1 0x20 DUP3 ADD MSTORE PUSH2 0x166A PUSH2 0x1E51 JUMP JUMPDEST PUSH2 0x179E DUP2 MLOAD PUSH2 0x1765 DUP4 DUP3 PUSH2 0x1B5A JUMP JUMPDEST PUSH1 0x5 DUP2 MSTORE PUSH5 0x506F707061 PUSH1 0xD8 SHL PUSH1 0x20 DUP3 ADD MSTORE DUP3 MLOAD PUSH2 0x1783 DUP5 DUP3 PUSH2 0x1B5A JUMP JUMPDEST PUSH1 0x6 DUP2 MSTORE PUSH6 0x24504F505041 PUSH1 0xD0 SHL PUSH1 0x20 DUP3 ADD MSTORE PUSH2 0x166A PUSH2 0x1E51 JUMP JUMPDEST PUSH2 0x17E3 DUP2 MLOAD PUSH2 0x17AD DUP4 DUP3 PUSH2 0x1B5A JUMP JUMPDEST PUSH1 0x4 DUP2 MSTORE PUSH4 0x94C2F0F PUSH1 0xE3 SHL PUSH1 0x20 DUP3 ADD MSTORE DUP3 MLOAD PUSH2 0x17CA DUP5 DUP3 PUSH2 0x1B5A JUMP JUMPDEST PUSH1 0x4 DUP2 MSTORE PUSH4 0x9482B0B PUSH1 0xE3 SHL PUSH1 0x20 DUP3 ADD MSTORE PUSH2 0x166A PUSH2 0x1E51 JUMP JUMPDEST PUSH2 0x182D DUP2 MLOAD PUSH2 0x17F2 DUP4 DUP3 PUSH2 0x1B5A JUMP JUMPDEST PUSH1 0x6 DUP2 MSTORE PUSH6 0x2837BA3A32B9 PUSH1 0xD1 SHL PUSH1 0x20 DUP3 ADD MSTORE DUP3 MLOAD PUSH2 0x1811 DUP5 DUP3 PUSH2 0x1B5A JUMP JUMPDEST PUSH1 0x7 DUP2 MSTORE PUSH7 0x122827AA2A22A9 PUSH1 0xC9 SHL PUSH1 0x20 DUP3 ADD MSTORE PUSH2 0x166A PUSH2 0x1E51 JUMP JUMPDEST PUSH2 0x187E DUP2 MLOAD PUSH2 0x183C DUP4 DUP3 PUSH2 0x1B5A JUMP JUMPDEST PUSH1 0xA DUP2 MSTORE PUSH10 0x84E4C2C8CADC40626C7 PUSH1 0xB3 SHL PUSH1 0x20 DUP3 ADD MSTORE DUP3 MLOAD PUSH2 0x185F DUP5 DUP3 PUSH2 0x1B5A JUMP JUMPDEST PUSH1 0xA DUP2 MSTORE PUSH10 0x4884A482888A9C626C7 PUSH1 0xB3 SHL PUSH1 0x20 DUP3 ADD MSTORE PUSH2 0x166A PUSH2 0x1E51 JUMP JUMPDEST PUSH2 0x18C6 DUP2 MLOAD PUSH2 0x188D DUP4 DUP3 PUSH2 0x1B5A JUMP JUMPDEST PUSH1 0x5 DUP2 MSTORE PUSH5 0x26B0B9B7B7 PUSH1 0xD9 SHL PUSH1 0x20 DUP3 ADD MSTORE DUP3 MLOAD PUSH2 0x18AB DUP5 DUP3 PUSH2 0x1B5A JUMP JUMPDEST PUSH1 0x6 DUP2 MSTORE PUSH6 0x1226A0A9A7A7 PUSH1 0xD1 SHL PUSH1 0x20 DUP3 ADD MSTORE PUSH2 0x166A PUSH2 0x1E51 JUMP JUMPDEST PUSH1 0x3 SLOAD DUP2 MLOAD SWAP1 DUP2 MSTORE TIMESTAMP PUSH1 0x20 DUP3 ADD MSTORE LOG1 PUSH1 0x1 PUSH0 DUP1 MLOAD PUSH1 0x20 PUSH2 0x45B6 DUP4 CODECOPY DUP2 MLOAD SWAP2 MSTORE SSTORE STOP JUMPDEST PUSH4 0xE2517D3F PUSH1 0xE0 SHL PUSH0 MSTORE CALLER PUSH1 0x4 MSTORE PUSH32 0x50484F4A06E2EB9ECE9EFBB6A62CF5EF37AD3CFD6E4604128546DE631DD3EC8F PUSH1 0x24 MSTORE PUSH1 0x44 PUSH0 REVERT JUMPDEST CALLVALUE PUSH2 0x20B JUMPI PUSH0 CALLDATASIZE PUSH1 0x3 NOT ADD SLT PUSH2 0x20B JUMPI PUSH2 0x1F3 PUSH1 0x40 MLOAD PUSH2 0x1940 PUSH1 0x40 DUP3 PUSH2 0x1B5A JUMP JUMPDEST PUSH1 0xC DUP2 MSTORE PUSH12 0x109B1BD8DAC80E0D0DCC8CCD PUSH1 0xA2 SHL PUSH1 0x20 DUP3 ADD MSTORE PUSH1 0x40 MLOAD SWAP2 DUP3 SWAP2 PUSH1 0x20 DUP4 MSTORE PUSH1 0x20 DUP4 ADD SWAP1 PUSH2 0x1B7C JUMP JUMPDEST CALLVALUE PUSH2 0x20B JUMPI PUSH0 CALLDATASIZE PUSH1 0x3 NOT ADD SLT PUSH2 0x20B JUMPI PUSH2 0x1F3 PUSH1 0x40 MLOAD PUSH2 0x198E PUSH1 0x80 DUP3 PUSH2 0x1B5A JUMP JUMPDEST PUSH1 0x42 DUP2 MSTORE PUSH32 0x3078386633613536376432653866316134623963306432653466366138623063 PUSH1 0x20 DUP3 ADD MSTORE PUSH32 0x3264346536663861306232633464366538663061326234633664386530663161 PUSH1 0x40 DUP3 ADD MSTORE PUSH2 0x1931 PUSH1 0xF1 SHL PUSH1 0x60 DUP3 ADD MSTORE PUSH1 0x40 MLOAD SWAP2 DUP3 SWAP2 PUSH1 0x20 DUP4 MSTORE PUSH1 0x20 DUP4 ADD SWAP1 PUSH2 0x1B7C JUMP JUMPDEST CALLVALUE PUSH2 0x20B JUMPI PUSH1 0x40 CALLDATASIZE PUSH1 0x3 NOT ADD SLT PUSH2 0x20B JUMPI PUSH2 0x1A16 PUSH2 0x1B44 JUMP JUMPDEST CALLER PUSH1 0x1 PUSH1 0x1 PUSH1 0xA0 SHL SUB DUP3 AND SUB PUSH2 0x1A32 JUMPI PUSH2 0x251 SWAP1 PUSH1 0x4 CALLDATALOAD PUSH2 0x213A JUMP JUMPDEST PUSH4 0x334BD919 PUSH1 0xE1 SHL PUSH0 MSTORE PUSH1 0x4 PUSH0 REVERT JUMPDEST CALLVALUE PUSH2 0x20B JUMPI PUSH1 0x20 CALLDATASIZE PUSH1 0x3 NOT ADD SLT PUSH2 0x20B JUMPI PUSH1 0x4 CALLDATALOAD PUSH1 0x1 PUSH1 0x1 PUSH1 0xA0 SHL SUB DUP2 AND SWAP1 DUP2 SWAP1 SUB PUSH2 0x20B JUMPI PUSH0 MSTORE PUSH1 0x2 PUSH1 0x20 MSTORE PUSH1 0x20 PUSH1 0xFF PUSH1 0x40 PUSH0 KECCAK256 SLOAD AND PUSH1 0x40 MLOAD SWAP1 ISZERO ISZERO DUP2 MSTORE RETURN JUMPDEST CALLVALUE PUSH2 0x20B JUMPI PUSH1 0x40 CALLDATASIZE PUSH1 0x3 NOT ADD SLT PUSH2 0x20B JUMPI PUSH2 0x251 PUSH1 0x4 CALLDATALOAD PUSH2 0x1AA1 PUSH2 0x1B44 JUMP JUMPDEST SWAP1 PUSH2 0x1ABA PUSH2 0x247 DUP3 PUSH0 MSTORE PUSH0 PUSH1 0x20 MSTORE PUSH1 0x1 PUSH1 0x40 PUSH0 KECCAK256 ADD SLOAD SWAP1 JUMP JUMPDEST PUSH2 0x20B2 JUMP JUMPDEST CALLVALUE PUSH2 0x20B JUMPI PUSH1 0x20 CALLDATASIZE PUSH1 0x3 NOT ADD SLT PUSH2 0x20B JUMPI PUSH1 0x20 PUSH2 0x1AE9 PUSH1 0x4 CALLDATALOAD PUSH0 MSTORE PUSH0 PUSH1 0x20 MSTORE PUSH1 0x1 PUSH1 0x40 PUSH0 KECCAK256 ADD SLOAD SWAP1 JUMP JUMPDEST PUSH1 0x40 MLOAD SWAP1 DUP2 MSTORE RETURN JUMPDEST CALLVALUE PUSH2 0x20B JUMPI PUSH1 0x20 CALLDATASIZE PUSH1 0x3 NOT ADD SLT PUSH2 0x20B JUMPI PUSH1 0x4 CALLDATALOAD SWAP1 PUSH4 0xFFFFFFFF PUSH1 0xE0 SHL DUP3 AND DUP1 SWAP3 SUB PUSH2 0x20B JUMPI PUSH1 0x20 SWAP2 PUSH4 0x7965DB0B PUSH1 0xE0 SHL DUP2 EQ SWAP1 DUP2 ISZERO PUSH2 0x1B33 JUMPI JUMPDEST POP ISZERO ISZERO DUP2 MSTORE RETURN JUMPDEST PUSH4 0x1FFC9A7 PUSH1 0xE0 SHL EQ SWAP1 POP DUP4 PUSH2 0x1B2C JUMP JUMPDEST PUSH1 0x24 CALLDATALOAD SWAP1 PUSH1 0x1 PUSH1 0x1 PUSH1 0xA0 SHL SUB DUP3 AND DUP3 SUB PUSH2 0x20B JUMPI JUMP JUMPDEST SWAP1 PUSH1 0x1F DUP1 NOT SWAP2 ADD AND DUP2 ADD SWAP1 DUP2 LT PUSH8 0xFFFFFFFFFFFFFFFF DUP3 GT OR PUSH2 0x4BC JUMPI PUSH1 0x40 MSTORE JUMP JUMPDEST DUP1 MLOAD DUP1 DUP4 MSTORE PUSH1 0x20 SWAP3 SWAP2 DUP2 SWAP1 DUP5 ADD DUP5 DUP5 ADD MCOPY PUSH0 DUP3 DUP3 ADD DUP5 ADD MSTORE PUSH1 0x1F ADD PUSH1 0x1F NOT AND ADD ADD SWAP1 JUMP JUMPDEST DUP2 PUSH1 0x1F DUP3 ADD SLT ISZERO PUSH2 0x20B JUMPI DUP1 CALLDATALOAD SWAP1 PUSH8 0xFFFFFFFFFFFFFFFF DUP3 GT PUSH2 0x4BC JUMPI PUSH1 0x40 MLOAD SWAP3 PUSH2 0x1BD5 PUSH1 0x1F DUP5 ADD PUSH1 0x1F NOT AND PUSH1 0x20 ADD DUP6 PUSH2 0x1B5A JUMP JUMPDEST DUP3 DUP5 MSTORE PUSH1 0x20 DUP4 DUP4 ADD ADD GT PUSH2 0x20B JUMPI DUP2 PUSH0 SWAP3 PUSH1 0x20 DUP1 SWAP4 ADD DUP4 DUP7 ADD CALLDATACOPY DUP4 ADD ADD MSTORE SWAP1 JUMP JUMPDEST SWAP1 PUSH1 0x1 DUP3 DUP2 SHR SWAP3 AND DUP1 ISZERO PUSH2 0x1C24 JUMPI JUMPDEST PUSH1 0x20 DUP4 LT EQ PUSH2 0x1C10 JUMPI JUMP JUMPDEST PUSH4 0x4E487B71 PUSH1 0xE0 SHL PUSH0 MSTORE PUSH1 0x22 PUSH1 0x4 MSTORE PUSH1 0x24 PUSH0 REVERT JUMPDEST SWAP2 PUSH1 0x7F AND SWAP2 PUSH2 0x1C05 JUMP JUMPDEST SWAP1 PUSH1 0x40 MLOAD SWAP2 DUP3 PUSH0 DUP3 SLOAD SWAP3 PUSH2 0x1C41 DUP5 PUSH2 0x1BF6 JUMP JUMPDEST DUP1 DUP5 MSTORE SWAP4 PUSH1 0x1 DUP2 AND SWAP1 DUP2 ISZERO PUSH2 0x1CAC JUMPI POP PUSH1 0x1 EQ PUSH2 0x1C68 JUMPI JUMPDEST POP PUSH2 0x1C66 SWAP3 POP SUB DUP4 PUSH2 0x1B5A JUMP JUMPDEST JUMP JUMPDEST SWAP1 POP PUSH0 SWAP3 SWAP2 SWAP3 MSTORE PUSH1 0x20 PUSH0 KECCAK256 SWAP1 PUSH0 SWAP2 JUMPDEST DUP2 DUP4 LT PUSH2 0x1C90 JUMPI POP POP SWAP1 PUSH1 0x20 PUSH2 0x1C66 SWAP3 DUP3 ADD ADD PUSH0 PUSH2 0x1C59 JUMP JUMPDEST PUSH1 0x20 SWAP2 SWAP4 POP DUP1 PUSH1 0x1 SWAP2 SLOAD DUP4 DUP6 DUP10 ADD ADD MSTORE ADD SWAP2 ADD SWAP1 SWAP2 DUP5 SWAP3 PUSH2 0x1C77 JUMP JUMPDEST SWAP1 POP PUSH1 0x20 SWAP3 POP PUSH2 0x1C66 SWAP5 SWAP2 POP PUSH1 0xFF NOT AND DUP3 DUP5 ADD MSTORE ISZERO ISZERO PUSH1 0x5 SHL DUP3 ADD ADD PUSH0 PUSH2 0x1C59 JUMP JUMPDEST PUSH1 0x40 MLOAD SWAP1 PUSH2 0x1CDD PUSH1 0x40 DUP4 PUSH2 0x1B5A JUMP JUMPDEST PUSH1 0x4 DUP3 MSTORE PUSH4 0x434F5245 PUSH1 0xE0 SHL PUSH1 0x20 DUP4 ADD MSTORE JUMP JUMPDEST PUSH1 0x40 MLOAD SWAP1 PUSH2 0x1CFF PUSH1 0x40 DUP4 PUSH2 0x1B5A JUMP JUMPDEST PUSH1 0x3 DUP3 MSTORE PUSH3 0x425443 PUSH1 0xE8 SHL PUSH1 0x20 DUP4 ADD MSTORE JUMP JUMPDEST PUSH1 0x40 MLOAD SWAP1 PUSH2 0x1D20 PUSH1 0x40 DUP4 PUSH2 0x1B5A JUMP JUMPDEST PUSH1 0x5 DUP3 MSTORE PUSH5 0x464C414D45 PUSH1 0xD8 SHL PUSH1 0x20 DUP4 ADD MSTORE JUMP JUMPDEST PUSH1 0x40 MLOAD SWAP1 PUSH2 0x1D43 PUSH1 0x40 DUP4 PUSH2 0x1B5A JUMP JUMPDEST PUSH1 0x4 DUP3 MSTORE PUSH4 0x14D3D553 PUSH1 0xE2 SHL PUSH1 0x20 DUP4 ADD MSTORE JUMP JUMPDEST PUSH1 0x40 MLOAD SWAP1 PUSH2 0x1D65 PUSH1 0x40 DUP4 PUSH2 0x1B5A JUMP JUMPDEST PUSH1 0x5 DUP3 MSTORE PUSH5 0x1253951153 PUSH1 0xDA SHL PUSH1 0x20 DUP4 ADD MSTORE JUMP JUMPDEST PUSH1 0x40 MLOAD SWAP1 PUSH2 0x1D88 PUSH1 0x40 DUP4 PUSH2 0x1B5A JUMP JUMPDEST PUSH1 0x5 DUP3 MSTORE PUSH5 0x212920A4A7 PUSH1 0xD9 SHL PUSH1 0x20 DUP4 ADD MSTORE JUMP JUMPDEST PUSH1 0x40 MLOAD SWAP1 PUSH2 0x1DAB PUSH1 0x40 DUP4 PUSH2 0x1B5A JUMP JUMPDEST PUSH1 0x5 DUP3 MSTORE PUSH5 0x2B20A627A9 PUSH1 0xD9 SHL PUSH1 0x20 DUP4 ADD MSTORE JUMP JUMPDEST PUSH1 0x40 MLOAD SWAP1 PUSH2 0x1DCE PUSH1 0x40 DUP4 PUSH2 0x1B5A JUMP JUMPDEST PUSH1 0xA DUP3 MSTORE PUSH10 0x474F5645524E414E4345 PUSH1 0xB0 SHL PUSH1 0x20 DUP4 ADD MSTORE JUMP JUMPDEST PUSH1 0x40 MLOAD SWAP1 PUSH2 0x1DF6 PUSH1 0x40 DUP4 PUSH2 0x1B5A JUMP JUMPDEST PUSH1 0x6 DUP3 MSTORE PUSH6 0x14D0D493D313 PUSH1 0xD2 SHL PUSH1 0x20 DUP4 ADD MSTORE JUMP JUMPDEST PUSH1 0x40 MLOAD SWAP1 PUSH2 0x1E1A PUSH1 0x40 DUP4 PUSH2 0x1B5A JUMP JUMPDEST PUSH1 0x6 DUP3 MSTORE PUSH6 0x20A721A427A9 PUSH1 0xD1 SHL PUSH1 0x20 DUP4 ADD MSTORE JUMP JUMPDEST PUSH1 0x40 MLOAD SWAP1 PUSH2 0x1E3E PUSH1 0x40 DUP4 PUSH2 0x1B5A JUMP JUMPDEST PUSH1 0x4 DUP3 MSTORE PUSH4 0x54494D45 PUSH1 0xE0 SHL PUSH1 0x20 DUP4 ADD MSTORE JUMP JUMPDEST PUSH1 0x40 MLOAD SWAP1 PUSH2 0x1E60 PUSH1 0x40 DUP4 PUSH2 0x1B5A JUMP JUMPDEST PUSH1 0x9 DUP3 MSTORE PUSH9 0x29A7AB22A922A4A3A7 PUSH1 0xB9 SHL PUSH1 0x20 DUP4 ADD MSTORE JUMP JUMPDEST SWAP2 PUSH2 0x1EA3 SWAP1 PUSH2 0x1E95 PUSH2 0x1ED9 SWAP8 SWAP6 SWAP7 SWAP4 PUSH1 0xE0 DUP7 MSTORE PUSH1 0xE0 DUP7 ADD SWAP1 PUSH2 0x1B7C JUMP JUMPDEST SWAP1 DUP5 DUP3 SUB PUSH1 0x20 DUP7 ADD MSTORE PUSH2 0x1B7C JUMP JUMPDEST PUSH4 0x3B9ACA00 PUSH1 0x40 DUP5 ADD MSTORE PUSH1 0x1 PUSH1 0x1 PUSH1 0xA0 SHL SUB SWAP1 SWAP5 AND PUSH1 0x60 DUP4 ADD MSTORE PUSH1 0x12 PUSH1 0x80 DUP4 ADD MSTORE ISZERO ISZERO PUSH1 0xA0 DUP3 ADD MSTORE DUP1 DUP4 SUB PUSH1 0xC0 SWAP1 SWAP2 ADD MSTORE PUSH2 0x1B7C JUMP JUMPDEST SWAP1 JUMP JUMPDEST SWAP1 PUSH1 0x3 SLOAD PUSH9 0x10000000000000000 DUP2 LT ISZERO PUSH2 0x4BC JUMPI PUSH1 0x1 DUP2 ADD PUSH1 0x3 SSTORE PUSH1 0x3 SLOAD DUP2 LT ISZERO PUSH2 0x1F7 JUMPI PUSH1 0x3 PUSH0 MSTORE PUSH32 0xC2575A0E9E593C00F959F8C92F12DB2869C3395A3B0502D05E2516446F71F85B ADD DUP3 MLOAD PUSH8 0xFFFFFFFFFFFFFFFF DUP2 GT PUSH2 0x4BC JUMPI PUSH2 0x1F43 DUP3 SLOAD PUSH2 0x1BF6 JUMP JUMPDEST PUSH1 0x1F DUP2 GT PUSH2 0x1FE3 JUMPI JUMPDEST POP PUSH1 0x20 PUSH1 0x1F DUP3 GT PUSH1 0x1 EQ PUSH2 0x1F85 JUMPI DUP2 SWAP3 SWAP4 SWAP5 PUSH0 SWAP3 PUSH2 0x1F7A JUMPI JUMPDEST POP POP DUP2 PUSH1 0x1 SHL SWAP2 PUSH0 NOT SWAP1 PUSH1 0x3 SHL SHR NOT AND OR SWAP1 SSTORE JUMP JUMPDEST ADD MLOAD SWAP1 POP PUSH0 DUP1 PUSH2 0x1F65 JUMP JUMPDEST PUSH1 0x1F NOT DUP3 AND SWAP1 DUP4 PUSH0 MSTORE DUP1 PUSH0 KECCAK256 SWAP2 PUSH0 JUMPDEST DUP2 DUP2 LT PUSH2 0x1FCB JUMPI POP SWAP6 DUP4 PUSH1 0x1 SWAP6 SWAP7 SWAP8 LT PUSH2 0x1FB3 JUMPI JUMPDEST POP POP POP DUP2 SHL ADD SWAP1 SSTORE JUMP JUMPDEST ADD MLOAD PUSH0 NOT PUSH1 0xF8 DUP5 PUSH1 0x3 SHL AND SHR NOT AND SWAP1 SSTORE PUSH0 DUP1 DUP1 PUSH2 0x1FA9 JUMP JUMPDEST SWAP2 SWAP3 PUSH1 0x20 PUSH1 0x1 DUP2 SWAP3 DUP7 DUP12 ADD MLOAD DUP2 SSTORE ADD SWAP5 ADD SWAP3 ADD PUSH2 0x1F94 JUMP JUMPDEST DUP3 PUSH0 MSTORE PUSH1 0x20 PUSH0 KECCAK256 PUSH1 0x1F DUP4 ADD PUSH1 0x5 SHR DUP2 ADD SWAP2 PUSH1 0x20 DUP5 LT PUSH2 0x201E JUMPI JUMPDEST PUSH1 0x1F ADD PUSH1 0x5 SHR ADD SWAP1 JUMPDEST DUP2 DUP2 LT PUSH2 0x2013 JUMPI POP PUSH2 0x1F4C JUMP JUMPDEST PUSH0 DUP2 SSTORE PUSH1 0x1 ADD PUSH2 0x2006 JUMP JUMPDEST SWAP1 SWAP2 POP DUP2 SWAP1 PUSH2 0x1FFD JUMP JUMPDEST PUSH1 0x20 SWAP1 PUSH1 0x40 MLOAD SWAP2 DUP2 DUP4 SWAP3 MLOAD SWAP2 DUP3 SWAP2 ADD DUP4 MCOPY DUP2 ADD PUSH0 DUP2 MSTORE SUB SWAP1 KECCAK256 SWAP1 JUMP JUMPDEST PUSH2 0x206E PUSH4 0x3B9ACA00 SWAP4 PUSH1 0x60 SWAP4 SWAP7 SWAP6 SWAP7 PUSH1 0x1 DUP1 PUSH1 0xA0 SHL SUB AND DUP4 MSTORE PUSH1 0x80 PUSH1 0x20 DUP5 ADD MSTORE PUSH1 0x80 DUP4 ADD SWAP1 PUSH2 0x1B7C JUMP JUMPDEST SWAP5 ISZERO ISZERO PUSH1 0x40 DUP3 ADD MSTORE ADD MSTORE JUMP JUMPDEST PUSH0 DUP2 DUP2 MSTORE PUSH1 0x20 DUP2 DUP2 MSTORE PUSH1 0x40 DUP1 DUP4 KECCAK256 CALLER DUP5 MSTORE SWAP1 SWAP2 MSTORE SWAP1 KECCAK256 SLOAD PUSH1 0xFF AND ISZERO PUSH2 0x209C JUMPI POP JUMP JUMPDEST PUSH4 0xE2517D3F PUSH1 0xE0 SHL PUSH0 MSTORE CALLER PUSH1 0x4 MSTORE PUSH1 0x24 MSTORE PUSH1 0x44 PUSH0 REVERT JUMPDEST PUSH0 DUP2 DUP2 MSTORE PUSH1 0x20 DUP2 DUP2 MSTORE PUSH1 0x40 DUP1 DUP4 KECCAK256 PUSH1 0x1 PUSH1 0x1 PUSH1 0xA0 SHL SUB DUP7 AND DUP5 MSTORE SWAP1 SWAP2 MSTORE SWAP1 KECCAK256 SLOAD PUSH1 0xFF AND PUSH2 0x2134 JUMPI PUSH0 DUP2 DUP2 MSTORE PUSH1 0x20 DUP2 DUP2 MSTORE PUSH1 0x40 DUP1 DUP4 KECCAK256 PUSH1 0x1 PUSH1 0x1 PUSH1 0xA0 SHL SUB SWAP6 SWAP1 SWAP6 AND DUP1 DUP5 MSTORE SWAP5 SWAP1 SWAP2 MSTORE DUP2 KECCAK256 DUP1 SLOAD PUSH1 0xFF NOT AND PUSH1 0x1 OR SWAP1 SSTORE CALLER SWAP3 SWAP2 SWAP1 PUSH32 0x2F8788117E7EFF1D82E926EC794901D17C78024A50270940304540A733656F0D SWAP1 DUP1 LOG4 PUSH1 0x1 SWAP1 JUMP JUMPDEST POP POP PUSH0 SWAP1 JUMP JUMPDEST PUSH0 DUP2 DUP2 MSTORE PUSH1 0x20 DUP2 DUP2 MSTORE PUSH1 0x40 DUP1 DUP4 KECCAK256 PUSH1 0x1 PUSH1 0x1 PUSH1 0xA0 SHL SUB DUP7 AND DUP5 MSTORE SWAP1 SWAP2 MSTORE SWAP1 KECCAK256 SLOAD PUSH1 0xFF AND ISZERO PUSH2 0x2134 JUMPI PUSH0 DUP2 DUP2 MSTORE PUSH1 0x20 DUP2 DUP2 MSTORE PUSH1 0x40 DUP1 DUP4 KECCAK256 PUSH1 0x1 PUSH1 0x1 PUSH1 0xA0 SHL SUB SWAP6 SWAP1 SWAP6 AND DUP1 DUP5 MSTORE SWAP5 SWAP1 SWAP2 MSTORE DUP2 KECCAK256 DUP1 SLOAD PUSH1 0xFF NOT AND SWAP1 SSTORE CALLER SWAP3 SWAP2 SWAP1 PUSH32 0xF6391F5C32D9C69D2A47EA670B442974B53935D1EDC7FD64EB21E047A839171B SWAP1 DUP1 LOG4 PUSH1 0x1 SWAP1 JUMP JUMPDEST PUSH1 0x2 PUSH0 DUP1 MLOAD PUSH1 0x20 PUSH2 0x45B6 DUP4 CODECOPY DUP2 MLOAD SWAP2 MSTORE SLOAD EQ PUSH2 0x21E3 JUMPI PUSH1 0x2 PUSH0 DUP1 MLOAD PUSH1 0x20 PUSH2 0x45B6 DUP4 CODECOPY DUP2 MLOAD SWAP2 MSTORE SSTORE JUMP JUMPDEST PUSH4 0x3EE5AEB5 PUSH1 0xE0 SHL PUSH0 MSTORE PUSH1 0x4 PUSH0 REVERT JUMPDEST SWAP2 PUSH1 0x40 MLOAD SWAP3 DUP3 MLOAD SWAP4 PUSH1 0x20 DUP5 ADD SWAP5 DUP1 DUP7 DUP4 MCOPY PUSH1 0x1 SWAP1 DUP3 ADD SWAP1 DUP2 MSTORE DUP2 SWAP1 SUB PUSH1 0x20 ADD SWAP1 KECCAK256 SLOAD PUSH1 0x1 PUSH1 0x1 PUSH1 0xA0 SHL SUB AND ISZERO PUSH2 0x2229 JUMPI JUMPDEST POP POP POP POP JUMP JUMPDEST PUSH1 0x40 MLOAD SWAP1 PUSH2 0x216A DUP1 DUP4 ADD SWAP1 DUP4 DUP3 LT PUSH8 0xFFFFFFFFFFFFFFFF DUP4 GT OR PUSH2 0x4BC JUMPI PUSH0 PUSH2 0x227D SWAP3 DUP8 DUP7 SWAP6 DUP9 SWAP5 PUSH2 0x244C DUP9 CODECOPY PUSH32 0x0 SWAP3 PUSH2 0x1E78 JUMP JUMPDEST SUB SWAP1 PUSH0 CREATE DUP1 ISZERO PUSH2 0x4B1 JUMPI PUSH32 0x3F8E9C058048D6AA5A777C6B12ED50CDDA64B37926D1C48AAC3B66C21A915350 SWAP3 PUSH2 0x2307 SWAP2 PUSH1 0x1 DUP1 PUSH1 0xA0 SHL SUB AND SWAP5 PUSH1 0x20 PUSH1 0x40 MLOAD DUP1 SWAP3 DUP5 MLOAD DUP1 SWAP2 DUP4 MCOPY DUP2 ADD PUSH1 0x1 DUP2 MSTORE SUB ADD SWAP1 KECCAK256 PUSH1 0x1 DUP1 PUSH1 0xA0 SHL SUB DUP7 AND PUSH1 0x1 PUSH1 0x1 PUSH1 0x60 SHL SUB PUSH1 0xA0 SHL DUP3 SLOAD AND OR SWAP1 SSTORE DUP5 PUSH0 MSTORE PUSH1 0x2 PUSH1 0x20 MSTORE PUSH1 0x40 PUSH0 KECCAK256 PUSH1 0x1 PUSH1 0xFF NOT DUP3 SLOAD AND OR SWAP1 SSTORE PUSH2 0x46B DUP2 PUSH2 0x1EDC JUMP JUMPDEST SWAP3 PUSH2 0x2318 PUSH0 PUSH1 0x40 MLOAD SWAP4 DUP5 SWAP4 DUP5 PUSH2 0x2044 JUMP JUMPDEST SUB SWAP1 LOG2 PUSH0 DUP1 DUP1 DUP1 PUSH2 0x2223 JUMP JUMPDEST SWAP2 PUSH1 0x40 MLOAD SWAP3 DUP3 MLOAD SWAP4 PUSH1 0x20 DUP5 ADD SWAP5 DUP1 DUP7 DUP4 MCOPY PUSH1 0x1 SWAP1 DUP3 ADD SWAP1 DUP2 MSTORE DUP2 SWAP1 SUB PUSH1 0x20 ADD SWAP1 KECCAK256 SLOAD PUSH1 0x1 PUSH1 0x1 PUSH1 0xA0 SHL SUB AND ISZERO PUSH2 0x235A JUMPI POP POP POP POP JUMP JUMPDEST PUSH1 0x40 MLOAD SWAP1 PUSH2 0x216A DUP1 DUP4 ADD SWAP1 DUP4 DUP3 LT PUSH8 0xFFFFFFFFFFFFFFFF DUP4 GT OR PUSH2 0x4BC JUMPI PUSH1 0x1 PUSH2 0x23AF SWAP3 DUP8 DUP7 SWAP6 DUP9 SWAP5 PUSH2 0x244C DUP9 CODECOPY PUSH32 0x0 SWAP3 PUSH2 0x1E78 JUMP JUMPDEST SUB SWAP1 PUSH0 CREATE DUP1 ISZERO PUSH2 0x4B1 JUMPI PUSH32 0x3F8E9C058048D6AA5A777C6B12ED50CDDA64B37926D1C48AAC3B66C21A915350 SWAP3 PUSH2 0x2439 SWAP2 PUSH1 0x1 DUP1 PUSH1 0xA0 SHL SUB AND SWAP5 PUSH1 0x20 PUSH1 0x40 MLOAD DUP1 SWAP3 DUP5 MLOAD DUP1 SWAP2 DUP4 MCOPY DUP2 ADD PUSH1 0x1 DUP2 MSTORE SUB ADD SWAP1 KECCAK256 PUSH1 0x1 DUP1 PUSH1 0xA0 SHL SUB DUP7 AND PUSH1 0x1 PUSH1 0x1 PUSH1 0x60 SHL SUB PUSH1 0xA0 SHL DUP3 SLOAD AND OR SWAP1 SSTORE DUP5 PUSH0 MSTORE PUSH1 0x2 PUSH1 0x20 MSTORE PUSH1 0x40 PUSH0 KECCAK256 PUSH1 0x1 PUSH1 0xFF NOT DUP3 SLOAD AND OR SWAP1 SSTORE PUSH2 0x46B DUP2 PUSH2 0x1EDC JUMP JUMPDEST SWAP3 PUSH2 0x2318 PUSH1 0x1 PUSH1 0x40 MLOAD SWAP4 DUP5 SWAP4 DUP5 PUSH2 0x2044 JUMP INVALID PUSH2 0x1A0 DUP1 PUSH1 0x40 MSTORE CALLVALUE PUSH2 0x6DD JUMPI PUSH2 0x216A DUP1 CODESIZE SUB DUP1 SWAP2 PUSH2 0x1D DUP3 DUP6 PUSH2 0x6E1 JUMP JUMPDEST DUP4 CODECOPY DUP2 ADD SWAP1 PUSH1 0xE0 DUP2 DUP4 SUB SLT PUSH2 0x6DD JUMPI DUP1 MLOAD PUSH1 0x1 PUSH1 0x1 PUSH1 0x40 SHL SUB DUP2 GT PUSH2 0x6DD JUMPI DUP3 PUSH2 0x48 SWAP2 DUP4 ADD PUSH2 0x704 JUMP JUMPDEST PUSH1 0x20 DUP3 ADD MLOAD PUSH1 0x1 PUSH1 0x1 PUSH1 0x40 SHL SUB DUP2 GT PUSH2 0x6DD JUMPI DUP4 PUSH2 0x67 SWAP2 DUP5 ADD PUSH2 0x704 JUMP JUMPDEST PUSH1 0x40 DUP4 ADD MLOAD PUSH1 0x60 DUP5 ADD MLOAD SWAP5 PUSH1 0x1 PUSH1 0x1 PUSH1 0xA0 SHL SUB DUP7 AND SWAP5 SWAP3 SWAP4 SWAP3 DUP6 DUP8 SUB PUSH2 0x6DD JUMPI PUSH1 0x80 DUP2 ADD MLOAD SWAP1 PUSH1 0xFF DUP3 AND DUP3 SUB PUSH2 0x6DD JUMPI PUSH1 0xA0 DUP2 ADD MLOAD SWAP3 DUP4 ISZERO ISZERO DUP5 SUB PUSH2 0x6DD JUMPI PUSH1 0xC0 DUP3 ADD MLOAD PUSH1 0x1 PUSH1 0x1 PUSH1 0x40 SHL SUB DUP2 GT PUSH2 0x6DD JUMPI PUSH2 0xC3 SWAP3 ADD PUSH2 0x704 JUMP JUMPDEST SWAP7 PUSH1 0x40 SWAP8 DUP9 MLOAD PUSH2 0xD3 DUP11 DUP3 PUSH2 0x6E1 JUMP JUMPDEST PUSH1 0x1 DUP2 MSTORE PUSH1 0x31 PUSH1 0xF8 SHL PUSH1 0x20 DUP3 ADD MSTORE DUP7 MLOAD PUSH1 0x1 PUSH1 0x1 PUSH1 0x40 SHL SUB DUP2 GT PUSH2 0x50E JUMPI PUSH1 0x3 SLOAD PUSH1 0x1 DUP2 DUP2 SHR SWAP2 AND DUP1 ISZERO PUSH2 0x6D3 JUMPI JUMPDEST PUSH1 0x20 DUP3 LT EQ PUSH2 0x4F0 JUMPI PUSH1 0x1F DUP2 GT PUSH2 0x670 JUMPI JUMPDEST POP DUP1 PUSH1 0x20 PUSH1 0x1F DUP3 GT PUSH1 0x1 EQ PUSH2 0x60A JUMPI PUSH0 SWAP2 PUSH2 0x5FF JUMPI JUMPDEST POP DUP2 PUSH1 0x1 SHL SWAP2 PUSH0 NOT SWAP1 PUSH1 0x3 SHL SHR NOT AND OR PUSH1 0x3 SSTORE JUMPDEST DUP8 MLOAD PUSH1 0x1 PUSH1 0x1 PUSH1 0x40 SHL SUB DUP2 GT PUSH2 0x50E JUMPI PUSH1 0x4 SLOAD PUSH1 0x1 DUP2 DUP2 SHR SWAP2 AND DUP1 ISZERO PUSH2 0x5F5 JUMPI JUMPDEST PUSH1 0x20 DUP3 LT EQ PUSH2 0x4F0 JUMPI PUSH1 0x1F DUP2 GT PUSH2 0x592 JUMPI JUMPDEST POP DUP1 PUSH1 0x20 PUSH1 0x1F DUP3 GT PUSH1 0x1 EQ PUSH2 0x52D JUMPI PUSH0 SWAP2 PUSH2 0x522 JUMPI JUMPDEST POP DUP2 PUSH1 0x1 SHL SWAP2 PUSH0 NOT SWAP1 PUSH1 0x3 SHL SHR NOT AND OR PUSH1 0x4 SSTORE JUMPDEST PUSH2 0x1A4 DUP8 PUSH2 0x93F JUMP JUMPDEST PUSH2 0x120 MSTORE PUSH2 0x1B1 DUP2 PUSH2 0xAAF JUMP JUMPDEST PUSH2 0x140 MSTORE DUP7 MLOAD PUSH1 0x20 DUP9 ADD KECCAK256 SWAP1 DUP2 PUSH1 0xE0 MSTORE PUSH1 0x20 DUP2 MLOAD SWAP2 ADD KECCAK256 DUP1 PUSH2 0x100 MSTORE CHAINID PUSH1 0xA0 MSTORE DUP11 MLOAD SWAP1 PUSH1 0x20 DUP3 ADD SWAP3 PUSH32 0x8B73C3C69BB8FE3D512ECC4CF759CC79239F7B179B0FFACAA9A75D522B39400F DUP5 MSTORE DUP13 DUP4 ADD MSTORE PUSH1 0x60 DUP3 ADD MSTORE CHAINID PUSH1 0x80 DUP3 ADD MSTORE ADDRESS PUSH1 0xA0 DUP3 ADD MSTORE PUSH1 0xA0 DUP2 MSTORE PUSH2 0x220 PUSH1 0xC0 DUP3 PUSH2 0x6E1 JUMP JUMPDEST MLOAD SWAP1 KECCAK256 PUSH1 0x80 MSTORE ADDRESS PUSH1 0xC0 MSTORE PUSH2 0x160 DUP4 SWAP1 MSTORE PUSH2 0x180 DUP5 SWAP1 MSTORE DUP1 MLOAD SWAP1 PUSH1 0x1 PUSH1 0x1 PUSH1 0x40 SHL SUB DUP3 GT PUSH2 0x50E JUMPI PUSH1 0x9 SLOAD PUSH1 0x1 DUP2 DUP2 SHR SWAP2 AND DUP1 ISZERO PUSH2 0x504 JUMPI JUMPDEST PUSH1 0x20 DUP3 LT EQ PUSH2 0x4F0 JUMPI PUSH1 0x1F DUP2 GT PUSH2 0x48D JUMPI JUMPDEST POP PUSH1 0x20 SWAP1 PUSH1 0x1F DUP4 GT PUSH1 0x1 EQ PUSH2 0x424 JUMPI PUSH2 0x2B5 SWAP4 SWAP3 SWAP2 PUSH0 SWAP2 DUP4 PUSH2 0x419 JUMPI JUMPDEST POP POP DUP2 PUSH1 0x1 SHL SWAP2 PUSH0 NOT SWAP1 PUSH1 0x3 SHL SHR NOT AND OR PUSH1 0x9 SSTORE JUMPDEST PUSH2 0x2A5 DUP2 PUSH2 0x77D JUMP JUMPDEST POP PUSH2 0x2AF DUP2 PUSH2 0x7F3 JUMP JUMPDEST POP PUSH2 0x8AC JUMP JUMPDEST POP PUSH1 0x4D PUSH1 0xFF DUP3 AND GT PUSH2 0x3F2 JUMPI PUSH1 0xFF AND PUSH1 0xA EXP DUP1 DUP4 MUL SWAP1 DUP4 DUP3 DIV EQ DUP4 ISZERO OR ISZERO PUSH2 0x3F2 JUMPI DUP6 ISZERO PUSH2 0x406 JUMPI PUSH1 0x2 SLOAD SWAP5 DUP2 DUP7 ADD DUP1 SWAP7 GT PUSH2 0x3F2 JUMPI PUSH32 0x4996E649A70C099B24C5B4867D2A4C3D4144F4766355E6214492F061AD17EE79 SWAP7 PUSH0 PUSH32 0xDDF252AD1BE2C89B69C2B068FC378DAA952BA7F163C4A11628F55A4DF523B3EF PUSH1 0x20 PUSH2 0x372 SWAP6 PUSH2 0x364 SWAP11 PUSH1 0x2 SSTORE DUP5 DUP5 MSTORE DUP4 DUP3 MSTORE DUP13 DUP5 KECCAK256 DUP2 DUP2 SLOAD ADD SWAP1 SSTORE DUP13 MLOAD SWAP1 DUP2 MSTORE LOG3 DUP8 MLOAD SWAP6 DUP7 SWAP6 PUSH1 0x80 DUP8 MSTORE PUSH1 0x80 DUP8 ADD SWAP1 PUSH2 0x759 JUMP JUMPDEST SWAP1 DUP6 DUP3 SUB PUSH1 0x20 DUP8 ADD MSTORE PUSH2 0x759 JUMP JUMPDEST SWAP2 DUP7 DUP5 ADD MSTORE ISZERO ISZERO PUSH1 0x60 DUP4 ADD MSTORE SUB SWAP1 LOG1 MLOAD PUSH2 0x1522 SWAP1 DUP2 PUSH2 0xBE8 DUP3 CODECOPY PUSH1 0x80 MLOAD DUP2 PUSH2 0x1103 ADD MSTORE PUSH1 0xA0 MLOAD DUP2 PUSH2 0x11C0 ADD MSTORE PUSH1 0xC0 MLOAD DUP2 PUSH2 0x10CD ADD MSTORE PUSH1 0xE0 MLOAD DUP2 PUSH2 0x1152 ADD MSTORE PUSH2 0x100 MLOAD DUP2 PUSH2 0x1178 ADD MSTORE PUSH2 0x120 MLOAD DUP2 PUSH2 0x636 ADD MSTORE PUSH2 0x140 MLOAD DUP2 PUSH2 0x65F ADD MSTORE PUSH2 0x160 MLOAD DUP2 PUSH2 0xB06 ADD MSTORE PUSH2 0x180 MLOAD DUP2 DUP2 DUP2 PUSH2 0x770 ADD MSTORE DUP2 DUP2 PUSH2 0x87C ADD MSTORE PUSH2 0x906 ADD MSTORE RETURN JUMPDEST PUSH4 0x4E487B71 PUSH1 0xE0 SHL PUSH0 MSTORE PUSH1 0x11 PUSH1 0x4 MSTORE PUSH1 0x24 PUSH0 REVERT JUMPDEST PUSH4 0xEC442F05 PUSH1 0xE0 SHL PUSH0 MSTORE PUSH0 PUSH1 0x4 MSTORE PUSH1 0x24 PUSH0 REVERT JUMPDEST ADD MLOAD SWAP1 POP PUSH0 DUP1 PUSH2 0x287 JUMP JUMPDEST SWAP1 PUSH1 0x1F NOT DUP4 AND SWAP2 PUSH1 0x9 PUSH0 MSTORE DUP2 PUSH0 KECCAK256 SWAP3 PUSH0 JUMPDEST DUP2 DUP2 LT PUSH2 0x475 JUMPI POP SWAP2 PUSH1 0x1 SWAP4 SWAP2 DUP6 PUSH2 0x2B5 SWAP8 SWAP7 SWAP5 LT PUSH2 0x45D JUMPI JUMPDEST POP POP POP DUP2 SHL ADD PUSH1 0x9 SSTORE PUSH2 0x29C JUMP JUMPDEST ADD MLOAD PUSH0 NOT PUSH1 0xF8 DUP5 PUSH1 0x3 SHL AND SHR NOT AND SWAP1 SSTORE PUSH0 DUP1 DUP1 PUSH2 0x44F JUMP JUMPDEST SWAP3 SWAP4 PUSH1 0x20 PUSH1 0x1 DUP2 SWAP3 DUP8 DUP7 ADD MLOAD DUP2 SSTORE ADD SWAP6 ADD SWAP4 ADD PUSH2 0x435 JUMP JUMPDEST PUSH1 0x9 PUSH0 MSTORE PUSH32 0x6E1540171B6C0C960B71A7020D9F60077F6AF931A8BBF590DA0223DACF75C7AF PUSH1 0x1F DUP5 ADD PUSH1 0x5 SHR DUP2 ADD SWAP2 PUSH1 0x20 DUP6 LT PUSH2 0x4E6 JUMPI JUMPDEST PUSH1 0x1F ADD PUSH1 0x5 SHR ADD SWAP1 JUMPDEST DUP2 DUP2 LT PUSH2 0x4DB JUMPI POP PUSH2 0x26A JUMP JUMPDEST PUSH0 DUP2 SSTORE PUSH1 0x1 ADD PUSH2 0x4CE JUMP JUMPDEST SWAP1 SWAP2 POP DUP2 SWAP1 PUSH2 0x4C5 JUMP JUMPDEST PUSH4 0x4E487B71 PUSH1 0xE0 SHL PUSH0 MSTORE PUSH1 0x22 PUSH1 0x4 MSTORE PUSH1 0x24 PUSH0 REVERT JUMPDEST SWAP1 PUSH1 0x7F AND SWAP1 PUSH2 0x258 JUMP JUMPDEST PUSH4 0x4E487B71 PUSH1 0xE0 SHL PUSH0 MSTORE PUSH1 0x41 PUSH1 0x4 MSTORE PUSH1 0x24 PUSH0 REVERT JUMPDEST SWAP1 POP DUP10 ADD MLOAD PUSH0 PUSH2 0x187 JUMP JUMPDEST SWAP2 POP PUSH1 0x4 PUSH0 MSTORE DUP2 PUSH0 KECCAK256 PUSH0 SWAP3 JUMPDEST DUP12 PUSH1 0x1F NOT DUP5 AND DUP6 LT PUSH2 0x57B JUMPI POP PUSH1 0x1 SWAP4 POP DUP3 PUSH1 0x1F NOT DUP2 AND LT PUSH2 0x563 JUMPI JUMPDEST POP POP DUP2 SHL ADD PUSH1 0x4 SSTORE PUSH2 0x19B JUMP JUMPDEST DUP12 ADD MLOAD PUSH0 NOT PUSH1 0xF8 DUP5 PUSH1 0x3 SHL AND SHR NOT AND SWAP1 SSTORE PUSH0 DUP1 PUSH2 0x556 JUMP JUMPDEST DUP2 ADD MLOAD DUP3 SSTORE PUSH1 0x20 SWAP4 DUP5 ADD SWAP4 PUSH1 0x1 SWAP1 SWAP3 ADD SWAP2 ADD PUSH2 0x539 JUMP JUMPDEST PUSH1 0x4 PUSH0 MSTORE PUSH32 0x8A35ACFBC15FF81A39AE7D344FD709F28E8600B4AA8C65C6B64BFE7FE36BD19B PUSH1 0x1F DUP4 ADD PUSH1 0x5 SHR DUP2 ADD SWAP2 PUSH1 0x20 DUP5 LT PUSH2 0x5EB JUMPI JUMPDEST PUSH1 0x1F ADD PUSH1 0x5 SHR ADD SWAP1 JUMPDEST DUP2 DUP2 LT PUSH2 0x5E0 JUMPI POP PUSH2 0x171 JUMP JUMPDEST PUSH0 DUP2 SSTORE PUSH1 0x1 ADD PUSH2 0x5D3 JUMP JUMPDEST SWAP1 SWAP2 POP DUP2 SWAP1 PUSH2 0x5CA JUMP JUMPDEST SWAP1 PUSH1 0x7F AND SWAP1 PUSH2 0x15F JUMP JUMPDEST SWAP1 POP DUP9 ADD MLOAD PUSH0 PUSH2 0x12A JUMP JUMPDEST PUSH1 0x3 PUSH0 SWAP1 DUP2 MSTORE DUP2 DUP2 KECCAK256 SWAP3 POP PUSH1 0x1F NOT DUP5 AND SWAP1 JUMPDEST DUP12 DUP3 DUP3 LT PUSH2 0x658 JUMPI POP POP SWAP1 DUP4 PUSH1 0x1 SWAP5 SWAP4 SWAP3 LT PUSH2 0x640 JUMPI JUMPDEST POP POP DUP2 SHL ADD PUSH1 0x3 SSTORE PUSH2 0x13E JUMP JUMPDEST DUP11 ADD MLOAD PUSH0 NOT PUSH1 0xF8 DUP5 PUSH1 0x3 SHL AND SHR NOT AND SWAP1 SSTORE PUSH0 DUP1 PUSH2 0x633 JUMP JUMPDEST PUSH1 0x1 DUP5 SWAP6 PUSH1 0x20 SWAP4 SWAP6 DUP5 SWAP4 ADD MLOAD DUP2 SSTORE ADD SWAP5 ADD SWAP3 ADD PUSH2 0x61C JUMP JUMPDEST PUSH1 0x3 PUSH0 MSTORE PUSH32 0xC2575A0E9E593C00F959F8C92F12DB2869C3395A3B0502D05E2516446F71F85B PUSH1 0x1F DUP4 ADD PUSH1 0x5 SHR DUP2 ADD SWAP2 PUSH1 0x20 DUP5 LT PUSH2 0x6C9 JUMPI JUMPDEST PUSH1 0x1F ADD PUSH1 0x5 SHR ADD SWAP1 JUMPDEST DUP2 DUP2 LT PUSH2 0x6BE JUMPI POP PUSH2 0x114 JUMP JUMPDEST PUSH0 DUP2 SSTORE PUSH1 0x1 ADD PUSH2 0x6B1 JUMP JUMPDEST SWAP1 SWAP2 POP DUP2 SWAP1 PUSH2 0x6A8 JUMP JUMPDEST SWAP1 PUSH1 0x7F AND SWAP1 PUSH2 0x102 JUMP JUMPDEST PUSH0 DUP1 REVERT JUMPDEST PUSH1 0x1F SWAP1 SWAP2 ADD PUSH1 0x1F NOT AND DUP2 ADD SWAP1 PUSH1 0x1 PUSH1 0x1 PUSH1 0x40 SHL SUB DUP3 GT SWAP1 DUP3 LT OR PUSH2 0x50E JUMPI PUSH1 0x40 MSTORE JUMP JUMPDEST DUP2 PUSH1 0x1F DUP3 ADD SLT ISZERO PUSH2 0x6DD JUMPI DUP1 MLOAD SWAP1 PUSH1 0x1 PUSH1 0x1 PUSH1 0x40 SHL SUB DUP3 GT PUSH2 0x50E JUMPI PUSH1 0x40 MLOAD SWAP3 PUSH2 0x738 PUSH1 0x1F DUP5 ADD PUSH1 0x1F NOT AND PUSH1 0x20 ADD DUP6 PUSH2 0x6E1 JUMP JUMPDEST DUP3 DUP5 MSTORE PUSH1 0x20 DUP4 DUP4 ADD ADD GT PUSH2 0x6DD JUMPI DUP2 PUSH0 SWAP3 PUSH1 0x20 DUP1 SWAP4 ADD DUP4 DUP7 ADD MCOPY DUP4 ADD ADD MSTORE SWAP1 JUMP JUMPDEST DUP1 MLOAD DUP1 DUP4 MSTORE PUSH1 0x20 SWAP3 SWAP2 DUP2 SWAP1 DUP5 ADD DUP5 DUP5 ADD MCOPY PUSH0 DUP3 DUP3 ADD DUP5 ADD MSTORE PUSH1 0x1F ADD PUSH1 0x1F NOT AND ADD ADD SWAP1 JUMP JUMPDEST PUSH1 0x1 PUSH1 0x1 PUSH1 0xA0 SHL SUB DUP2 AND PUSH0 SWAP1 DUP2 MSTORE PUSH0 DUP1 MLOAD PUSH1 0x20 PUSH2 0x214A DUP4 CODECOPY DUP2 MLOAD SWAP2 MSTORE PUSH1 0x20 MSTORE PUSH1 0x40 SWAP1 KECCAK256 SLOAD PUSH1 0xFF AND PUSH2 0x7EE JUMPI PUSH1 0x1 PUSH1 0x1 PUSH1 0xA0 SHL SUB AND PUSH0 DUP2 DUP2 MSTORE PUSH0 DUP1 MLOAD PUSH1 0x20 PUSH2 0x214A DUP4 CODECOPY DUP2 MLOAD SWAP2 MSTORE PUSH1 0x20 MSTORE PUSH1 0x40 DUP2 KECCAK256 DUP1 SLOAD PUSH1 0xFF NOT AND PUSH1 0x1 OR SWAP1 SSTORE CALLER SWAP2 SWAP1 PUSH0 DUP1 MLOAD PUSH1 0x20 PUSH2 0x210A DUP4 CODECOPY DUP2 MLOAD SWAP2 MSTORE DUP2 DUP1 LOG4 PUSH1 0x1 SWAP1 JUMP JUMPDEST POP PUSH0 SWAP1 JUMP JUMPDEST PUSH1 0x1 PUSH1 0x1 PUSH1 0xA0 SHL SUB DUP2 AND PUSH0 SWAP1 DUP2 MSTORE PUSH32 0x60395DF67107109E5B300DAFA59A172EDB7D52A026A9DB618800966E886DECD0 PUSH1 0x20 MSTORE PUSH1 0x40 SWAP1 KECCAK256 SLOAD PUSH1 0xFF AND PUSH2 0x7EE JUMPI PUSH1 0x1 PUSH1 0x1 PUSH1 0xA0 SHL SUB AND PUSH0 DUP2 DUP2 MSTORE PUSH32 0x60395DF67107109E5B300DAFA59A172EDB7D52A026A9DB618800966E886DECD0 PUSH1 0x20 MSTORE PUSH1 0x40 DUP2 KECCAK256 DUP1 SLOAD PUSH1 0xFF NOT AND PUSH1 0x1 OR SWAP1 SSTORE CALLER SWAP2 SWAP1 PUSH32 0x50484F4A06E2EB9ECE9EFBB6A62CF5EF37AD3CFD6E4604128546DE631DD3EC8F SWAP1 PUSH0 DUP1 MLOAD PUSH1 0x20 PUSH2 0x210A DUP4 CODECOPY DUP2 MLOAD SWAP2 MSTORE SWAP1 DUP1 LOG4 PUSH1 0x1 SWAP1 JUMP JUMPDEST PUSH1 0x1 PUSH1 0x1 PUSH1 0xA0 SHL SUB DUP2 AND PUSH0 SWAP1 DUP2 MSTORE PUSH0 DUP1 MLOAD PUSH1 0x20 PUSH2 0x212A DUP4 CODECOPY DUP2 MLOAD SWAP2 MSTORE PUSH1 0x20 MSTORE PUSH1 0x40 SWAP1 KECCAK256 SLOAD PUSH1 0xFF AND PUSH2 0x7EE JUMPI PUSH1 0x1 PUSH1 0x1 PUSH1 0xA0 SHL SUB AND PUSH0 DUP2 DUP2 MSTORE PUSH0 DUP1 MLOAD PUSH1 0x20 PUSH2 0x212A DUP4 CODECOPY DUP2 MLOAD SWAP2 MSTORE PUSH1 0x20 MSTORE PUSH1 0x40 DUP2 KECCAK256 DUP1 SLOAD PUSH1 0xFF NOT AND PUSH1 0x1 OR SWAP1 SSTORE CALLER SWAP2 SWAP1 PUSH32 0x9F2DF0FED2C77648DE5860A4CC508CD0818C85B8B8A1AB4CEEEF8D981C8956A6 SWAP1 PUSH0 DUP1 MLOAD PUSH1 0x20 PUSH2 0x210A DUP4 CODECOPY DUP2 MLOAD SWAP2 MSTORE SWAP1 DUP1 LOG4 PUSH1 0x1 SWAP1 JUMP JUMPDEST SWAP1 DUP2 MLOAD PUSH1 0x20 DUP2 LT PUSH0 EQ PUSH2 0x9A2 JUMPI POP SWAP1 PUSH1 0x1F DUP2 MLOAD GT PUSH2 0x979 JUMPI PUSH1 0x20 DUP2 MLOAD SWAP2 ADD MLOAD PUSH1 0x20 DUP3 LT PUSH2 0x96A JUMPI OR SWAP1 JUMP JUMPDEST PUSH0 NOT DUP3 PUSH1 0x20 SUB PUSH1 0x3 SHL SHL AND OR SWAP1 JUMP JUMPDEST PUSH1 0x40 MLOAD PUSH4 0x305A27A9 PUSH1 0xE0 SHL DUP2 MSTORE PUSH1 0x20 PUSH1 0x4 DUP3 ADD MSTORE SWAP1 DUP2 SWAP1 PUSH2 0x99E SWAP1 PUSH1 0x24 DUP4 ADD SWAP1 PUSH2 0x759 JUMP JUMPDEST SUB SWAP1 REVERT JUMPDEST PUSH1 0x1 PUSH1 0x1 PUSH1 0x40 SHL SUB DUP2 GT PUSH2 0x50E JUMPI PUSH1 0x5 SLOAD PUSH1 0x1 DUP2 DUP2 SHR SWAP2 AND DUP1 ISZERO PUSH2 0xAA5 JUMPI JUMPDEST PUSH1 0x20 DUP3 LT EQ PUSH2 0x4F0 JUMPI PUSH1 0x1F DUP2 GT PUSH2 0xA72 JUMPI JUMPDEST POP PUSH1 0x20 SWAP3 PUSH1 0x1F DUP3 GT PUSH1 0x1 EQ PUSH2 0xA11 JUMPI SWAP3 DUP2 SWAP3 SWAP4 PUSH0 SWAP3 PUSH2 0xA06 JUMPI JUMPDEST POP POP DUP2 PUSH1 0x1 SHL SWAP2 PUSH0 NOT SWAP1 PUSH1 0x3 SHL SHR NOT AND OR PUSH1 0x5 SSTORE PUSH1 0xFF SWAP1 JUMP JUMPDEST ADD MLOAD SWAP1 POP PUSH0 DUP1 PUSH2 0x9ED JUMP JUMPDEST PUSH1 0x1F NOT DUP3 AND SWAP4 PUSH1 0x5 PUSH0 MSTORE DUP1 PUSH0 KECCAK256 SWAP2 PUSH0 JUMPDEST DUP7 DUP2 LT PUSH2 0xA5A JUMPI POP DUP4 PUSH1 0x1 SWAP6 SWAP7 LT PUSH2 0xA42 JUMPI JUMPDEST POP POP POP DUP2 SHL ADD PUSH1 0x5 SSTORE PUSH1 0xFF SWAP1 JUMP JUMPDEST ADD MLOAD PUSH0 NOT PUSH1 0xF8 DUP5 PUSH1 0x3 SHL AND SHR NOT AND SWAP1 SSTORE PUSH0 DUP1 DUP1 PUSH2 0xA34 JUMP JUMPDEST SWAP2 SWAP3 PUSH1 0x20 PUSH1 0x1 DUP2 SWAP3 DUP7 DUP6 ADD MLOAD DUP2 SSTORE ADD SWAP5 ADD SWAP3 ADD PUSH2 0xA21 JUMP JUMPDEST PUSH1 0x5 PUSH0 MSTORE PUSH1 0x1F PUSH1 0x20 PUSH0 KECCAK256 SWAP2 ADD PUSH1 0x5 SHR DUP2 ADD SWAP1 PUSH1 0x1F DUP4 ADD PUSH1 0x5 SHR ADD JUMPDEST DUP2 DUP2 LT PUSH2 0xA9A JUMPI POP PUSH2 0x9D3 JUMP JUMPDEST PUSH0 DUP2 SSTORE PUSH1 0x1 ADD PUSH2 0xA8D JUMP JUMPDEST SWAP1 PUSH1 0x7F AND SWAP1 PUSH2 0x9C1 JUMP JUMPDEST SWAP1 DUP2 MLOAD PUSH1 0x20 DUP2 LT PUSH0 EQ PUSH2 0xADA JUMPI POP SWAP1 PUSH1 0x1F DUP2 MLOAD GT PUSH2 0x979 JUMPI PUSH1 0x20 DUP2 MLOAD SWAP2 ADD MLOAD PUSH1 0x20 DUP3 LT PUSH2 0x96A JUMPI OR SWAP1 JUMP JUMPDEST PUSH1 0x1 PUSH1 0x1 PUSH1 0x40 SHL SUB DUP2 GT PUSH2 0x50E JUMPI PUSH1 0x6 SLOAD PUSH1 0x1 DUP2 DUP2 SHR SWAP2 AND DUP1 ISZERO PUSH2 0xBDD JUMPI JUMPDEST PUSH1 0x20 DUP3 LT EQ PUSH2 0x4F0 JUMPI PUSH1 0x1F DUP2 GT PUSH2 0xBAA JUMPI JUMPDEST POP PUSH1 0x20 SWAP3 PUSH1 0x1F DUP3 GT PUSH1 0x1 EQ PUSH2 0xB49 JUMPI SWAP3 DUP2 SWAP3 SWAP4 PUSH0 SWAP3 PUSH2 0xB3E JUMPI JUMPDEST POP POP DUP2 PUSH1 0x1 SHL SWAP2 PUSH0 NOT SWAP1 PUSH1 0x3 SHL SHR NOT AND OR PUSH1 0x6 SSTORE PUSH1 0xFF SWAP1 JUMP JUMPDEST ADD MLOAD SWAP1 POP PUSH0 DUP1 PUSH2 0xB25 JUMP JUMPDEST PUSH1 0x1F NOT DUP3 AND SWAP4 PUSH1 0x6 PUSH0 MSTORE DUP1 PUSH0 KECCAK256 SWAP2 PUSH0 JUMPDEST DUP7 DUP2 LT PUSH2 0xB92 JUMPI POP DUP4 PUSH1 0x1 SWAP6 SWAP7 LT PUSH2 0xB7A JUMPI JUMPDEST POP POP POP DUP2 SHL ADD PUSH1 0x6 SSTORE PUSH1 0xFF SWAP1 JUMP JUMPDEST ADD MLOAD PUSH0 NOT PUSH1 0xF8 DUP5 PUSH1 0x3 SHL AND SHR NOT AND SWAP1 SSTORE PUSH0 DUP1 DUP1 PUSH2 0xB6C JUMP JUMPDEST SWAP2 SWAP3 PUSH1 0x20 PUSH1 0x1 DUP2 SWAP3 DUP7 DUP6 ADD MLOAD DUP2 SSTORE ADD SWAP5 ADD SWAP3 ADD PUSH2 0xB59 JUMP JUMPDEST PUSH1 0x6 PUSH0 MSTORE PUSH1 0x1F PUSH1 0x20 PUSH0 KECCAK256 SWAP2 ADD PUSH1 0x5 SHR DUP2 ADD SWAP1 PUSH1 0x1F DUP4 ADD PUSH1 0x5 SHR ADD JUMPDEST DUP2 DUP2 LT PUSH2 0xBD2 JUMPI POP PUSH2 0xB0B JUMP JUMPDEST PUSH0 DUP2 SSTORE PUSH1 0x1 ADD PUSH2 0xBC5 JUMP JUMPDEST SWAP1 PUSH1 0x7F AND SWAP1 PUSH2 0xAF9 JUMP INVALID PUSH1 0x80 DUP1 PUSH1 0x40 MSTORE PUSH1 0x4 CALLDATASIZE LT ISZERO PUSH2 0x12 JUMPI PUSH0 DUP1 REVERT JUMPDEST PUSH0 CALLDATALOAD PUSH1 0xE0 SHR SWAP1 DUP2 PUSH4 0x1FFC9A7 EQ PUSH2 0xCB3 JUMPI POP DUP1 PUSH4 0x6FDDE03 EQ PUSH2 0xC0E JUMPI DUP1 PUSH4 0x95EA7B3 EQ PUSH2 0xBE8 JUMPI DUP1 PUSH4 0x18160DDD EQ PUSH2 0xBCB JUMPI DUP1 PUSH4 0x23B872DD EQ PUSH2 0xB93 JUMPI DUP1 PUSH4 0x248A9CA3 EQ PUSH2 0xB68 JUMPI DUP1 PUSH4 0x2F2FF15D EQ PUSH2 0xB2A JUMPI DUP1 PUSH4 0x313CE567 EQ PUSH2 0xAED JUMPI DUP1 PUSH4 0x3644E515 EQ PUSH2 0xACB JUMPI DUP1 PUSH4 0x36568ABE EQ PUSH2 0xA87 JUMPI DUP1 PUSH4 0x40C10F19 EQ PUSH2 0x975 JUMPI DUP1 PUSH4 0x42966C68 EQ PUSH2 0x8F3 JUMPI DUP1 PUSH4 0x51BFCDBD EQ PUSH2 0x8A1 JUMPI DUP1 PUSH4 0x5300F82B EQ PUSH2 0x865 JUMPI DUP1 PUSH4 0x6498DA88 EQ PUSH2 0x81A JUMPI DUP1 PUSH4 0x70A08231 EQ PUSH2 0x7E3 JUMPI DUP1 PUSH4 0x79CC6790 EQ PUSH2 0x74E JUMPI DUP1 PUSH4 0x7ECEBE00 EQ PUSH2 0x716 JUMPI DUP1 PUSH4 0x84B0196E EQ PUSH2 0x61E JUMPI DUP1 PUSH4 0x8E4B7D6D EQ PUSH2 0x5E4 JUMPI DUP1 PUSH4 0x91B9B827 EQ PUSH2 0x597 JUMPI DUP1 PUSH4 0x91D14854 EQ PUSH2 0x54E JUMPI DUP1 PUSH4 0x95D89B41 EQ PUSH2 0x4A9 JUMPI DUP1 PUSH4 0xA217FDDF EQ PUSH2 0x48F JUMPI DUP1 PUSH4 0xA9059CBB EQ PUSH2 0x45E JUMPI DUP1 PUSH4 0xD505ACCF EQ PUSH2 0x31B JUMPI DUP1 PUSH4 0xD5391393 EQ PUSH2 0x2E1 JUMPI DUP1 PUSH4 0xD547741F EQ PUSH2 0x29C JUMPI DUP1 PUSH4 0xDD62ED3E EQ PUSH2 0x24C JUMPI PUSH4 0xEF430AA6 EQ PUSH2 0x166 JUMPI PUSH0 DUP1 REVERT JUMPDEST CALLVALUE PUSH2 0x248 JUMPI PUSH0 CALLDATASIZE PUSH1 0x3 NOT ADD SLT PUSH2 0x248 JUMPI PUSH1 0x40 MLOAD PUSH0 PUSH1 0x9 SLOAD PUSH2 0x186 DUP2 PUSH2 0xD8C JUMP JUMPDEST DUP1 DUP5 MSTORE SWAP1 PUSH1 0x1 DUP2 AND SWAP1 DUP2 ISZERO PUSH2 0x224 JUMPI POP PUSH1 0x1 EQ PUSH2 0x1C6 JUMPI JUMPDEST PUSH2 0x1C2 DUP4 PUSH2 0x1AE DUP2 DUP6 SUB DUP3 PUSH2 0xD56 JUMP JUMPDEST PUSH1 0x40 MLOAD SWAP2 DUP3 SWAP2 PUSH1 0x20 DUP4 MSTORE PUSH1 0x20 DUP4 ADD SWAP1 PUSH2 0xD06 JUMP JUMPDEST SUB SWAP1 RETURN JUMPDEST PUSH1 0x9 PUSH0 SWAP1 DUP2 MSTORE PUSH32 0x6E1540171B6C0C960B71A7020D9F60077F6AF931A8BBF590DA0223DACF75C7AF SWAP4 SWAP3 POP SWAP1 JUMPDEST DUP1 DUP3 LT PUSH2 0x20A JUMPI POP SWAP1 SWAP2 POP DUP2 ADD PUSH1 0x20 ADD PUSH2 0x1AE PUSH2 0x19E JUMP JUMPDEST SWAP2 SWAP3 PUSH1 0x1 DUP2 PUSH1 0x20 SWAP3 SLOAD DUP4 DUP6 DUP9 ADD ADD MSTORE ADD SWAP2 ADD SWAP1 SWAP3 SWAP2 PUSH2 0x1F2 JUMP JUMPDEST PUSH1 0xFF NOT AND PUSH1 0x20 DUP1 DUP7 ADD SWAP2 SWAP1 SWAP2 MSTORE SWAP2 ISZERO ISZERO PUSH1 0x5 SHL DUP5 ADD SWAP1 SWAP2 ADD SWAP2 POP PUSH2 0x1AE SWAP1 POP PUSH2 0x19E JUMP JUMPDEST PUSH0 DUP1 REVERT JUMPDEST CALLVALUE PUSH2 0x248 JUMPI PUSH1 0x40 CALLDATASIZE PUSH1 0x3 NOT ADD SLT PUSH2 0x248 JUMPI PUSH2 0x265 PUSH2 0xD2A JUMP JUMPDEST PUSH2 0x26D PUSH2 0xD40 JUMP JUMPDEST PUSH1 0x1 PUSH1 0x1 PUSH1 0xA0 SHL SUB SWAP2 DUP3 AND PUSH0 SWAP1 DUP2 MSTORE PUSH1 0x1 PUSH1 0x20 SWAP1 DUP2 MSTORE PUSH1 0x40 DUP1 DUP4 KECCAK256 SWAP5 SWAP1 SWAP4 AND DUP3 MSTORE SWAP3 DUP4 MSTORE DUP2 SWAP1 KECCAK256 SLOAD SWAP1 MLOAD SWAP1 DUP2 MSTORE RETURN JUMPDEST CALLVALUE PUSH2 0x248 JUMPI PUSH1 0x40 CALLDATASIZE PUSH1 0x3 NOT ADD SLT PUSH2 0x248 JUMPI PUSH2 0x2DF PUSH1 0x4 CALLDATALOAD PUSH2 0x2BB PUSH2 0xD40 JUMP JUMPDEST SWAP1 PUSH2 0x2DA PUSH2 0x2D5 DUP3 PUSH0 MSTORE PUSH1 0x8 PUSH1 0x20 MSTORE PUSH1 0x1 PUSH1 0x40 PUSH0 KECCAK256 ADD SLOAD SWAP1 JUMP JUMPDEST PUSH2 0x1004 JUMP JUMPDEST PUSH2 0x11E6 JUMP JUMPDEST STOP JUMPDEST CALLVALUE PUSH2 0x248 JUMPI PUSH0 CALLDATASIZE PUSH1 0x3 NOT ADD SLT PUSH2 0x248 JUMPI PUSH1 0x20 PUSH1 0x40 MLOAD PUSH32 0x9F2DF0FED2C77648DE5860A4CC508CD0818C85B8B8A1AB4CEEEF8D981C8956A6 DUP2 MSTORE RETURN JUMPDEST CALLVALUE PUSH2 0x248 JUMPI PUSH1 0xE0 CALLDATASIZE PUSH1 0x3 NOT ADD SLT PUSH2 0x248 JUMPI PUSH2 0x334 PUSH2 0xD2A JUMP JUMPDEST PUSH2 0x33C PUSH2 0xD40 JUMP JUMPDEST PUSH1 0x44 CALLDATALOAD SWAP1 PUSH1 0x64 CALLDATALOAD SWAP3 PUSH1 0x84 CALLDATALOAD PUSH1 0xFF DUP2 AND DUP2 SUB PUSH2 0x248 JUMPI DUP5 TIMESTAMP GT PUSH2 0x44B JUMPI PUSH2 0x410 PUSH2 0x419 SWAP2 PUSH1 0x1 DUP1 PUSH1 0xA0 SHL SUB DUP5 AND SWAP7 DUP8 PUSH0 MSTORE PUSH1 0x7 PUSH1 0x20 MSTORE PUSH1 0x40 PUSH0 KECCAK256 SWAP1 DUP2 SLOAD SWAP2 PUSH1 0x1 DUP4 ADD SWAP1 SSTORE PUSH1 0x40 MLOAD SWAP1 PUSH1 0x20 DUP3 ADD SWAP3 PUSH32 0x6E71EDAE12B1B97F4D1F60370FEF10105FA2FAAE0126114A169C64845D6126C9 DUP5 MSTORE DUP11 PUSH1 0x40 DUP5 ADD MSTORE PUSH1 0x1 DUP1 PUSH1 0xA0 SHL SUB DUP10 AND PUSH1 0x60 DUP5 ADD MSTORE DUP10 PUSH1 0x80 DUP5 ADD MSTORE PUSH1 0xA0 DUP4 ADD MSTORE PUSH1 0xC0 DUP3 ADD MSTORE PUSH1 0xC0 DUP2 MSTORE PUSH2 0x3DE PUSH1 0xE0 DUP3 PUSH2 0xD56 JUMP JUMPDEST MLOAD SWAP1 KECCAK256 PUSH2 0x3E9 PUSH2 0x10CA JUMP JUMPDEST SWAP1 PUSH1 0x40 MLOAD SWAP2 PUSH2 0x1901 PUSH1 0xF0 SHL DUP4 MSTORE PUSH1 0x2 DUP4 ADD MSTORE PUSH1 0x22 DUP3 ADD MSTORE PUSH1 0xC4 CALLDATALOAD SWAP2 PUSH1 0x42 PUSH1 0xA4 CALLDATALOAD SWAP3 KECCAK256 PUSH2 0x13EB JUMP JUMPDEST SWAP1 SWAP3 SWAP2 SWAP3 PUSH2 0x1478 JUMP JUMPDEST PUSH1 0x1 PUSH1 0x1 PUSH1 0xA0 SHL SUB AND DUP5 DUP2 SUB PUSH2 0x434 JUMPI POP PUSH2 0x2DF SWAP4 POP PUSH2 0x126A JUMP JUMPDEST DUP5 SWAP1 PUSH4 0x25C00723 PUSH1 0xE1 SHL PUSH0 MSTORE PUSH1 0x4 MSTORE PUSH1 0x24 MSTORE PUSH1 0x44 PUSH0 REVERT JUMPDEST DUP5 PUSH4 0x313C8981 PUSH1 0xE1 SHL PUSH0 MSTORE PUSH1 0x4 MSTORE PUSH1 0x24 PUSH0 REVERT JUMPDEST CALLVALUE PUSH2 0x248 JUMPI PUSH1 0x40 CALLDATASIZE PUSH1 0x3 NOT ADD SLT PUSH2 0x248 JUMPI PUSH2 0x484 PUSH2 0x47A PUSH2 0xD2A JUMP JUMPDEST PUSH1 0x24 CALLDATALOAD SWAP1 CALLER PUSH2 0xF5A JUMP JUMPDEST PUSH1 0x20 PUSH1 0x40 MLOAD PUSH1 0x1 DUP2 MSTORE RETURN JUMPDEST CALLVALUE PUSH2 0x248 JUMPI PUSH0 CALLDATASIZE PUSH1 0x3 NOT ADD SLT PUSH2 0x248 JUMPI PUSH1 0x20 PUSH1 0x40 MLOAD PUSH0 DUP2 MSTORE RETURN JUMPDEST CALLVALUE PUSH2 0x248 JUMPI PUSH0 CALLDATASIZE PUSH1 0x3 NOT ADD SLT PUSH2 0x248 JUMPI PUSH1 0x40 MLOAD PUSH0 PUSH1 0x4 SLOAD PUSH2 0x4C9 DUP2 PUSH2 0xD8C JUMP JUMPDEST DUP1 DUP5 MSTORE SWAP1 PUSH1 0x1 DUP2 AND SWAP1 DUP2 ISZERO PUSH2 0x224 JUMPI POP PUSH1 0x1 EQ PUSH2 0x4F0 JUMPI PUSH2 0x1C2 DUP4 PUSH2 0x1AE DUP2 DUP6 SUB DUP3 PUSH2 0xD56 JUMP JUMPDEST PUSH1 0x4 PUSH0 SWAP1 DUP2 MSTORE PUSH32 0x8A35ACFBC15FF81A39AE7D344FD709F28E8600B4AA8C65C6B64BFE7FE36BD19B SWAP4 SWAP3 POP SWAP1 JUMPDEST DUP1 DUP3 LT PUSH2 0x534 JUMPI POP SWAP1 SWAP2 POP DUP2 ADD PUSH1 0x20 ADD PUSH2 0x1AE PUSH2 0x19E JUMP JUMPDEST SWAP2 SWAP3 PUSH1 0x1 DUP2 PUSH1 0x20 SWAP3 SLOAD DUP4 DUP6 DUP9 ADD ADD MSTORE ADD SWAP2 ADD SWAP1 SWAP3 SWAP2 PUSH2 0x51C JUMP JUMPDEST CALLVALUE PUSH2 0x248 JUMPI PUSH1 0x40 CALLDATASIZE PUSH1 0x3 NOT ADD SLT PUSH2 0x248 JUMPI PUSH2 0x567 PUSH2 0xD40 JUMP JUMPDEST PUSH1 0x4 CALLDATALOAD PUSH0 MSTORE PUSH1 0x8 PUSH1 0x20 MSTORE PUSH1 0x40 PUSH0 KECCAK256 SWAP1 PUSH1 0x1 DUP1 PUSH1 0xA0 SHL SUB AND PUSH0 MSTORE PUSH1 0x20 MSTORE PUSH1 0x20 PUSH1 0xFF PUSH1 0x40 PUSH0 KECCAK256 SLOAD AND PUSH1 0x40 MLOAD SWAP1 ISZERO ISZERO DUP2 MSTORE RETURN JUMPDEST CALLVALUE PUSH2 0x248 JUMPI PUSH0 CALLDATASIZE PUSH1 0x3 NOT ADD SLT PUSH2 0x248 JUMPI PUSH2 0x1C2 PUSH1 0x40 MLOAD PUSH2 0x5B8 PUSH1 0x40 DUP3 PUSH2 0xD56 JUMP JUMPDEST PUSH1 0xB DUP2 MSTORE PUSH11 0x56414C4F524149504C5553 PUSH1 0xA8 SHL PUSH1 0x20 DUP3 ADD MSTORE PUSH1 0x40 MLOAD SWAP2 DUP3 SWAP2 PUSH1 0x20 DUP4 MSTORE PUSH1 0x20 DUP4 ADD SWAP1 PUSH2 0xD06 JUMP JUMPDEST CALLVALUE PUSH2 0x248 JUMPI PUSH0 CALLDATASIZE PUSH1 0x3 NOT ADD SLT PUSH2 0x248 JUMPI PUSH1 0x20 PUSH1 0x40 MLOAD PUSH32 0x50484F4A06E2EB9ECE9EFBB6A62CF5EF37AD3CFD6E4604128546DE631DD3EC8F DUP2 MSTORE RETURN JUMPDEST CALLVALUE PUSH2 0x248 JUMPI PUSH0 CALLDATASIZE PUSH1 0x3 NOT ADD SLT PUSH2 0x248 JUMPI PUSH2 0x6BA PUSH2 0x65A PUSH32 0x0 PUSH2 0x1351 JUMP JUMPDEST PUSH2 0x683 PUSH32 0x0 PUSH2 0x13B4 JUMP JUMPDEST PUSH1 0x20 PUSH2 0x6C8 PUSH1 0x40 MLOAD SWAP3 PUSH2 0x696 DUP4 DUP6 PUSH2 0xD56 JUMP JUMPDEST PUSH0 DUP5 MSTORE PUSH0 CALLDATASIZE DUP2 CALLDATACOPY PUSH1 0x40 MLOAD SWAP6 DUP7 SWAP6 PUSH1 0xF PUSH1 0xF8 SHL DUP8 MSTORE PUSH1 0xE0 DUP6 DUP9 ADD MSTORE PUSH1 0xE0 DUP8 ADD SWAP1 PUSH2 0xD06 JUMP JUMPDEST SWAP1 DUP6 DUP3 SUB PUSH1 0x40 DUP8 ADD MSTORE PUSH2 0xD06 JUMP JUMPDEST CHAINID PUSH1 0x60 DUP6 ADD MSTORE ADDRESS PUSH1 0x80 DUP6 ADD MSTORE PUSH0 PUSH1 0xA0 DUP6 ADD MSTORE DUP4 DUP2 SUB PUSH1 0xC0 DUP6 ADD MSTORE DUP2 DUP1 DUP5 MLOAD SWAP3 DUP4 DUP2 MSTORE ADD SWAP4 ADD SWAP2 PUSH0 JUMPDEST DUP3 DUP2 LT PUSH2 0x6FF JUMPI POP POP POP POP SUB SWAP1 RETURN JUMPDEST DUP4 MLOAD DUP6 MSTORE DUP7 SWAP6 POP SWAP4 DUP2 ADD SWAP4 SWAP3 DUP2 ADD SWAP3 PUSH1 0x1 ADD PUSH2 0x6F0 JUMP JUMPDEST CALLVALUE PUSH2 0x248 JUMPI PUSH1 0x20 CALLDATASIZE PUSH1 0x3 NOT ADD SLT PUSH2 0x248 JUMPI PUSH1 0x1 PUSH1 0x1 PUSH1 0xA0 SHL SUB PUSH2 0x737 PUSH2 0xD2A JUMP JUMPDEST AND PUSH0 MSTORE PUSH1 0x7 PUSH1 0x20 MSTORE PUSH1 0x20 PUSH1 0x40 PUSH0 KECCAK256 SLOAD PUSH1 0x40 MLOAD SWAP1 DUP2 MSTORE RETURN JUMPDEST CALLVALUE PUSH2 0x248 JUMPI PUSH1 0x40 CALLDATASIZE PUSH1 0x3 NOT ADD SLT PUSH2 0x248 JUMPI PUSH2 0x2DF PUSH2 0x76A PUSH2 0xD2A JUMP JUMPDEST PUSH1 0x24 CALLDATALOAD SWAP1 PUSH32 0x0 PUSH2 0x7A4 JUMPI JUMPDEST PUSH2 0x79F DUP3 CALLER DUP4 PUSH2 0xE91 JUMP JUMPDEST PUSH2 0x12CD JUMP JUMPDEST CALLER PUSH0 SWAP1 DUP2 MSTORE PUSH32 0x60395DF67107109E5B300DAFA59A172EDB7D52A026A9DB618800966E886DECD0 PUSH1 0x20 MSTORE PUSH1 0x40 SWAP1 KECCAK256 SLOAD PUSH2 0x7DE SWAP1 PUSH1 0xFF AND PUSH2 0xE45 JUMP JUMPDEST PUSH2 0x794 JUMP JUMPDEST CALLVALUE PUSH2 0x248 JUMPI PUSH1 0x20 CALLDATASIZE PUSH1 0x3 NOT ADD SLT PUSH2 0x248 JUMPI PUSH1 0x1 PUSH1 0x1 PUSH1 0xA0 SHL SUB PUSH2 0x804 PUSH2 0xD2A JUMP JUMPDEST AND PUSH0 MSTORE PUSH0 PUSH1 0x20 MSTORE PUSH1 0x20 PUSH1 0x40 PUSH0 KECCAK256 SLOAD PUSH1 0x40 MLOAD SWAP1 DUP2 MSTORE RETURN JUMPDEST CALLVALUE PUSH2 0x248 JUMPI PUSH0 CALLDATASIZE PUSH1 0x3 NOT ADD SLT PUSH2 0x248 JUMPI PUSH2 0x1C2 PUSH1 0x40 MLOAD PUSH2 0x83B PUSH1 0x40 DUP3 PUSH2 0xD56 JUMP JUMPDEST PUSH1 0x9 DUP2 MSTORE PUSH9 0x373232362E33343631 PUSH1 0xB8 SHL PUSH1 0x20 DUP3 ADD MSTORE PUSH1 0x40 MLOAD SWAP2 DUP3 SWAP2 PUSH1 0x20 DUP4 MSTORE PUSH1 0x20 DUP4 ADD SWAP1 PUSH2 0xD06 JUMP JUMPDEST CALLVALUE PUSH2 0x248 JUMPI PUSH0 CALLDATASIZE PUSH1 0x3 NOT ADD SLT PUSH2 0x248 JUMPI PUSH1 0x20 PUSH1 0x40 MLOAD PUSH32 0x0 ISZERO ISZERO DUP2 MSTORE RETURN JUMPDEST CALLVALUE PUSH2 0x248 JUMPI PUSH0 CALLDATASIZE PUSH1 0x3 NOT ADD SLT PUSH2 0x248 JUMPI PUSH2 0x1C2 PUSH1 0x40 MLOAD PUSH2 0x8C2 PUSH1 0x40 DUP3 PUSH2 0xD56 JUMP JUMPDEST PUSH1 0x10 DUP2 MSTORE PUSH16 0x29A0A4A72A102820AAA6101A9A98989B PUSH1 0x81 SHL PUSH1 0x20 DUP3 ADD MSTORE PUSH1 0x40 MLOAD SWAP2 DUP3 SWAP2 PUSH1 0x20 DUP4 MSTORE PUSH1 0x20 DUP4 ADD SWAP1 PUSH2 0xD06 JUMP JUMPDEST CALLVALUE PUSH2 0x248 JUMPI PUSH1 0x20 CALLDATASIZE PUSH1 0x3 NOT ADD SLT PUSH2 0x248 JUMPI PUSH32 0x0 PUSH2 0x936 JUMPI JUMPDEST PUSH2 0x2DF PUSH1 0x4 CALLDATALOAD CALLER PUSH2 0x12CD JUMP JUMPDEST CALLER PUSH0 SWAP1 DUP2 MSTORE PUSH32 0x60395DF67107109E5B300DAFA59A172EDB7D52A026A9DB618800966E886DECD0 PUSH1 0x20 MSTORE PUSH1 0x40 SWAP1 KECCAK256 SLOAD PUSH2 0x970 SWAP1 PUSH1 0xFF AND PUSH2 0xE45 JUMP JUMPDEST PUSH2 0x92A JUMP JUMPDEST CALLVALUE PUSH2 0x248 JUMPI PUSH1 0x40 CALLDATASIZE PUSH1 0x3 NOT ADD SLT PUSH2 0x248 JUMPI PUSH2 0x98E PUSH2 0xD2A JUMP JUMPDEST CALLER PUSH0 SWAP1 DUP2 MSTORE PUSH32 0x51A495916474FE1A0C0FCFB65A8A97682B84A054118858CDD1F5DFD7FC0919EB PUSH1 0x20 MSTORE PUSH1 0x40 SWAP1 KECCAK256 SLOAD PUSH1 0x24 CALLDATALOAD SWAP2 SWAP1 PUSH1 0xFF AND ISZERO PUSH2 0xA50 JUMPI PUSH1 0x1 PUSH1 0x1 PUSH1 0xA0 SHL SUB AND SWAP1 DUP2 ISZERO PUSH2 0xA3D JUMPI PUSH1 0x2 SLOAD SWAP1 DUP1 DUP3 ADD DUP1 SWAP3 GT PUSH2 0xA29 JUMPI PUSH1 0x20 PUSH32 0xDDF252AD1BE2C89B69C2B068FC378DAA952BA7F163C4A11628F55A4DF523B3EF SWAP2 PUSH0 SWAP4 PUSH1 0x2 SSTORE DUP5 DUP5 MSTORE DUP4 DUP3 MSTORE PUSH1 0x40 DUP5 KECCAK256 DUP2 DUP2 SLOAD ADD SWAP1 SSTORE PUSH1 0x40 MLOAD SWAP1 DUP2 MSTORE LOG3 STOP JUMPDEST PUSH4 0x4E487B71 PUSH1 0xE0 SHL PUSH0 MSTORE PUSH1 0x11 PUSH1 0x4 MSTORE PUSH1 0x24 PUSH0 REVERT JUMPDEST PUSH4 0xEC442F05 PUSH1 0xE0 SHL PUSH0 MSTORE PUSH0 PUSH1 0x4 MSTORE PUSH1 0x24 PUSH0 REVERT JUMPDEST PUSH4 0xE2517D3F PUSH1 0xE0 SHL PUSH0 MSTORE CALLER PUSH1 0x4 MSTORE PUSH32 0x9F2DF0FED2C77648DE5860A4CC508CD0818C85B8B8A1AB4CEEEF8D981C8956A6 PUSH1 0x24 MSTORE PUSH1 0x44 PUSH0 REVERT JUMPDEST CALLVALUE PUSH2 0x248 JUMPI PUSH1 0x40 CALLDATASIZE PUSH1 0x3 NOT ADD SLT PUSH2 0x248 JUMPI PUSH2 0xAA0 PUSH2 0xD40 JUMP JUMPDEST CALLER PUSH1 0x1 PUSH1 0x1 PUSH1 0xA0 SHL SUB DUP3 AND SUB PUSH2 0xABC JUMPI PUSH2 0x2DF SWAP1 PUSH1 0x4 CALLDATALOAD PUSH2 0x11E6 JUMP JUMPDEST PUSH4 0x334BD919 PUSH1 0xE1 SHL PUSH0 MSTORE PUSH1 0x4 PUSH0 REVERT JUMPDEST CALLVALUE PUSH2 0x248 JUMPI PUSH0 CALLDATASIZE PUSH1 0x3 NOT ADD SLT PUSH2 0x248 JUMPI PUSH1 0x20 PUSH2 0xAE5 PUSH2 0x10CA JUMP JUMPDEST PUSH1 0x40 MLOAD SWAP1 DUP2 MSTORE RETURN JUMPDEST CALLVALUE PUSH2 0x248 JUMPI PUSH0 CALLDATASIZE PUSH1 0x3 NOT ADD SLT PUSH2 0x248 JUMPI PUSH1 0x20 PUSH1 0x40 MLOAD PUSH1 0xFF PUSH32 0x0 AND DUP2 MSTORE RETURN JUMPDEST CALLVALUE PUSH2 0x248 JUMPI PUSH1 0x40 CALLDATASIZE PUSH1 0x3 NOT ADD SLT PUSH2 0x248 JUMPI PUSH2 0x2DF PUSH1 0x4 CALLDATALOAD PUSH2 0xB49 PUSH2 0xD40 JUMP JUMPDEST SWAP1 PUSH2 0xB63 PUSH2 0x2D5 DUP3 PUSH0 MSTORE PUSH1 0x8 PUSH1 0x20 MSTORE PUSH1 0x1 PUSH1 0x40 PUSH0 KECCAK256 ADD SLOAD SWAP1 JUMP JUMPDEST PUSH2 0x103E JUMP JUMPDEST CALLVALUE PUSH2 0x248 JUMPI PUSH1 0x20 CALLDATASIZE PUSH1 0x3 NOT ADD SLT PUSH2 0x248 JUMPI PUSH1 0x20 PUSH2 0xAE5 PUSH1 0x4 CALLDATALOAD PUSH0 MSTORE PUSH1 0x8 PUSH1 0x20 MSTORE PUSH1 0x1 PUSH1 0x40 PUSH0 KECCAK256 ADD SLOAD SWAP1 JUMP JUMPDEST CALLVALUE PUSH2 0x248 JUMPI PUSH1 0x60 CALLDATASIZE PUSH1 0x3 NOT ADD SLT PUSH2 0x248 JUMPI PUSH2 0x484 PUSH2 0xBAF PUSH2 0xD2A JUMP JUMPDEST PUSH2 0xBB7 PUSH2 0xD40 JUMP JUMPDEST PUSH1 0x44 CALLDATALOAD SWAP2 PUSH2 0xBC6 DUP4 CALLER DUP4 PUSH2 0xE91 JUMP JUMPDEST PUSH2 0xF5A JUMP JUMPDEST CALLVALUE PUSH2 0x248 JUMPI PUSH0 CALLDATASIZE PUSH1 0x3 NOT ADD SLT PUSH2 0x248 JUMPI PUSH1 0x20 PUSH1 0x2 SLOAD PUSH1 0x40 MLOAD SWAP1 DUP2 MSTORE RETURN JUMPDEST CALLVALUE PUSH2 0x248 JUMPI PUSH1 0x40 CALLDATASIZE PUSH1 0x3 NOT ADD SLT PUSH2 0x248 JUMPI PUSH2 0x484 PUSH2 0xC04 PUSH2 0xD2A JUMP JUMPDEST PUSH1 0x24 CALLDATALOAD SWAP1 CALLER PUSH2 0x126A JUMP JUMPDEST CALLVALUE PUSH2 0x248 JUMPI PUSH0 CALLDATASIZE PUSH1 0x3 NOT ADD SLT PUSH2 0x248 JUMPI PUSH1 0x40 MLOAD PUSH0 PUSH1 0x3 SLOAD PUSH2 0xC2E DUP2 PUSH2 0xD8C JUMP JUMPDEST DUP1 DUP5 MSTORE SWAP1 PUSH1 0x1 DUP2 AND SWAP1 DUP2 ISZERO PUSH2 0x224 JUMPI POP PUSH1 0x1 EQ PUSH2 0xC55 JUMPI PUSH2 0x1C2 DUP4 PUSH2 0x1AE DUP2 DUP6 SUB DUP3 PUSH2 0xD56 JUMP JUMPDEST PUSH1 0x3 PUSH0 SWAP1 DUP2 MSTORE PUSH32 0xC2575A0E9E593C00F959F8C92F12DB2869C3395A3B0502D05E2516446F71F85B SWAP4 SWAP3 POP SWAP1 JUMPDEST DUP1 DUP3 LT PUSH2 0xC99 JUMPI POP SWAP1 SWAP2 POP DUP2 ADD PUSH1 0x20 ADD PUSH2 0x1AE PUSH2 0x19E JUMP JUMPDEST SWAP2 SWAP3 PUSH1 0x1 DUP2 PUSH1 0x20 SWAP3 SLOAD DUP4 DUP6 DUP9 ADD ADD MSTORE ADD SWAP2 ADD SWAP1 SWAP3 SWAP2 PUSH2 0xC81 JUMP JUMPDEST CALLVALUE PUSH2 0x248 JUMPI PUSH1 0x20 CALLDATASIZE PUSH1 0x3 NOT ADD SLT PUSH2 0x248 JUMPI PUSH1 0x4 CALLDATALOAD SWAP1 PUSH4 0xFFFFFFFF PUSH1 0xE0 SHL DUP3 AND DUP1 SWAP3 SUB PUSH2 0x248 JUMPI PUSH1 0x20 SWAP2 PUSH4 0x7965DB0B PUSH1 0xE0 SHL DUP2 EQ SWAP1 DUP2 ISZERO PUSH2 0xCF5 JUMPI JUMPDEST POP ISZERO ISZERO DUP2 MSTORE RETURN JUMPDEST PUSH4 0x1FFC9A7 PUSH1 0xE0 SHL EQ SWAP1 POP DUP4 PUSH2 0xCEE JUMP JUMPDEST DUP1 MLOAD DUP1 DUP4 MSTORE PUSH1 0x20 SWAP3 SWAP2 DUP2 SWAP1 DUP5 ADD DUP5 DUP5 ADD MCOPY PUSH0 DUP3 DUP3 ADD DUP5 ADD MSTORE PUSH1 0x1F ADD PUSH1 0x1F NOT AND ADD ADD SWAP1 JUMP JUMPDEST PUSH1 0x4 CALLDATALOAD SWAP1 PUSH1 0x1 PUSH1 0x1 PUSH1 0xA0 SHL SUB DUP3 AND DUP3 SUB PUSH2 0x248 JUMPI JUMP JUMPDEST PUSH1 0x24 CALLDATALOAD SWAP1 PUSH1 0x1 PUSH1 0x1 PUSH1 0xA0 SHL SUB DUP3 AND DUP3 SUB PUSH2 0x248 JUMPI JUMP JUMPDEST SWAP1 PUSH1 0x1F DUP1 NOT SWAP2 ADD AND DUP2 ADD SWAP1 DUP2 LT PUSH8 0xFFFFFFFFFFFFFFFF DUP3 GT OR PUSH2 0xD78 JUMPI PUSH1 0x40 MSTORE JUMP JUMPDEST PUSH4 0x4E487B71 PUSH1 0xE0 SHL PUSH0 MSTORE PUSH1 0x41 PUSH1 0x4 MSTORE PUSH1 0x24 PUSH0 REVERT JUMPDEST SWAP1 PUSH1 0x1 DUP3 DUP2 SHR SWAP3 AND DUP1 ISZERO PUSH2 0xDBA JUMPI JUMPDEST PUSH1 0x20 DUP4 LT EQ PUSH2 0xDA6 JUMPI JUMP JUMPDEST PUSH4 0x4E487B71 PUSH1 0xE0 SHL PUSH0 MSTORE PUSH1 0x22 PUSH1 0x4 MSTORE PUSH1 0x24 PUSH0 REVERT JUMPDEST SWAP2 PUSH1 0x7F AND SWAP2 PUSH2 0xD9B JUMP JUMPDEST PUSH0 SWAP3 SWAP2 DUP2 SLOAD SWAP2 PUSH2 0xDD3 DUP4 PUSH2 0xD8C JUMP JUMPDEST DUP1 DUP4 MSTORE SWAP3 PUSH1 0x1 DUP2 AND SWAP1 DUP2 ISZERO PUSH2 0xE28 JUMPI POP PUSH1 0x1 EQ PUSH2 0xDEF JUMPI POP POP POP JUMP JUMPDEST PUSH0 SWAP1 DUP2 MSTORE PUSH1 0x20 DUP2 KECCAK256 SWAP4 SWAP5 POP SWAP2 SWAP3 JUMPDEST DUP4 DUP4 LT PUSH2 0xE0E JUMPI POP PUSH1 0x20 SWAP3 POP ADD ADD SWAP1 JUMP JUMPDEST PUSH1 0x1 DUP2 PUSH1 0x20 SWAP3 SWAP5 SWAP4 SWAP5 SLOAD DUP4 DUP6 DUP8 ADD ADD MSTORE ADD SWAP2 ADD SWAP2 SWAP1 PUSH2 0xDFD JUMP JUMPDEST SWAP2 POP POP PUSH1 0x20 SWAP4 SWAP5 POP PUSH1 0xFF SWAP3 SWAP2 SWAP3 NOT AND DUP4 DUP4 ADD MSTORE ISZERO ISZERO PUSH1 0x5 SHL ADD ADD SWAP1 JUMP JUMPDEST ISZERO PUSH2 0xE4C JUMPI JUMP JUMPDEST PUSH1 0x40 MLOAD PUSH3 0x461BCD PUSH1 0xE5 SHL DUP2 MSTORE PUSH1 0x20 PUSH1 0x4 DUP3 ADD MSTORE PUSH1 0x19 PUSH1 0x24 DUP3 ADD MSTORE PUSH32 0x50524F5445435445443A20534F5645524549474E204F4E4C5900000000000000 PUSH1 0x44 DUP3 ADD MSTORE PUSH1 0x64 SWAP1 REVERT JUMPDEST PUSH1 0x1 PUSH1 0x1 PUSH1 0xA0 SHL SUB SWAP1 DUP2 AND PUSH0 DUP2 DUP2 MSTORE PUSH1 0x1 PUSH1 0x20 SWAP1 DUP2 MSTORE PUSH1 0x40 DUP1 DUP4 KECCAK256 SWAP5 DUP7 AND DUP4 MSTORE SWAP4 SWAP1 MSTORE SWAP2 SWAP1 SWAP2 KECCAK256 SLOAD SWAP3 SWAP2 SWAP1 PUSH0 NOT DUP5 LT PUSH2 0xECB JUMPI JUMPDEST POP POP POP POP JUMP JUMPDEST DUP3 DUP5 LT PUSH2 0xF37 JUMPI DUP1 ISZERO PUSH2 0xF24 JUMPI PUSH1 0x1 PUSH1 0x1 PUSH1 0xA0 SHL SUB DUP3 AND ISZERO PUSH2 0xF11 JUMPI PUSH0 MSTORE PUSH1 0x1 PUSH1 0x20 MSTORE PUSH1 0x40 PUSH0 KECCAK256 SWAP1 PUSH1 0x1 DUP1 PUSH1 0xA0 SHL SUB AND PUSH0 MSTORE PUSH1 0x20 MSTORE PUSH1 0x40 PUSH0 KECCAK256 SWAP2 SUB SWAP1 SSTORE PUSH0 DUP1 DUP1 DUP1 PUSH2 0xEC5 JUMP JUMPDEST PUSH4 0x4A1406B1 PUSH1 0xE1 SHL PUSH0 MSTORE PUSH0 PUSH1 0x4 MSTORE PUSH1 0x24 PUSH0 REVERT JUMPDEST PUSH4 0xE602DF05 PUSH1 0xE0 SHL PUSH0 MSTORE PUSH0 PUSH1 0x4 MSTORE PUSH1 0x24 PUSH0 REVERT JUMPDEST POP DUP3 SWAP1 PUSH4 0x7DC7A0D9 PUSH1 0xE1 SHL PUSH0 MSTORE PUSH1 0x1 DUP1 PUSH1 0xA0 SHL SUB AND PUSH1 0x4 MSTORE PUSH1 0x24 MSTORE PUSH1 0x44 MSTORE PUSH1 0x64 PUSH0 REVERT JUMPDEST PUSH1 0x1 PUSH1 0x1 PUSH1 0xA0 SHL SUB AND SWAP1 DUP2 ISZERO PUSH2 0xFF1 JUMPI PUSH1 0x1 PUSH1 0x1 PUSH1 0xA0 SHL SUB AND SWAP2 DUP3 ISZERO PUSH2 0xA3D JUMPI DUP2 PUSH0 MSTORE PUSH0 PUSH1 0x20 MSTORE PUSH1 0x40 PUSH0 KECCAK256 SLOAD DUP2 DUP2 LT PUSH2 0xFD8 JUMPI DUP2 PUSH32 0xDDF252AD1BE2C89B69C2B068FC378DAA952BA7F163C4A11628F55A4DF523B3EF SWAP3 PUSH1 0x20 SWAP3 DUP6 PUSH0 MSTORE PUSH0 DUP5 MSTORE SUB PUSH1 0x40 PUSH0 KECCAK256 SSTORE DUP5 PUSH0 MSTORE PUSH0 DUP3 MSTORE PUSH1 0x40 PUSH0 KECCAK256 DUP2 DUP2 SLOAD ADD SWAP1 SSTORE PUSH1 0x40 MLOAD SWAP1 DUP2 MSTORE LOG3 JUMP JUMPDEST DUP3 PUSH4 0x391434E3 PUSH1 0xE2 SHL PUSH0 MSTORE PUSH1 0x4 MSTORE PUSH1 0x24 MSTORE PUSH1 0x44 MSTORE PUSH1 0x64 PUSH0 REVERT JUMPDEST PUSH4 0x4B637E8F PUSH1 0xE1 SHL PUSH0 MSTORE PUSH0 PUSH1 0x4 MSTORE PUSH1 0x24 PUSH0 REVERT JUMPDEST PUSH0 DUP2 DUP2 MSTORE PUSH1 0x8 PUSH1 0x20 SWAP1 DUP2 MSTORE PUSH1 0x40 DUP1 DUP4 KECCAK256 CALLER DUP5 MSTORE SWAP1 SWAP2 MSTORE SWAP1 KECCAK256 SLOAD PUSH1 0xFF AND ISZERO PUSH2 0x1028 JUMPI POP JUMP JUMPDEST PUSH4 0xE2517D3F PUSH1 0xE0 SHL PUSH0 MSTORE CALLER PUSH1 0x4 MSTORE PUSH1 0x24 MSTORE PUSH1 0x44 PUSH0 REVERT JUMPDEST PUSH0 DUP2 DUP2 MSTORE PUSH1 0x8 PUSH1 0x20 SWAP1 DUP2 MSTORE PUSH1 0x40 DUP1 DUP4 KECCAK256 PUSH1 0x1 PUSH1 0x1 PUSH1 0xA0 SHL SUB DUP7 AND DUP5 MSTORE SWAP1 SWAP2 MSTORE SWAP1 KECCAK256 SLOAD PUSH1 0xFF AND PUSH2 0x10C4 JUMPI PUSH0 DUP2 DUP2 MSTORE PUSH1 0x8 PUSH1 0x20 SWAP1 DUP2 MSTORE PUSH1 0x40 DUP1 DUP4 KECCAK256 PUSH1 0x1 PUSH1 0x1 PUSH1 0xA0 SHL SUB SWAP6 SWAP1 SWAP6 AND DUP1 DUP5 MSTORE SWAP5 SWAP1 SWAP2 MSTORE DUP2 KECCAK256 DUP1 SLOAD PUSH1 0xFF NOT AND PUSH1 0x1 OR SWAP1 SSTORE CALLER SWAP3 SWAP2 SWAP1 PUSH32 0x2F8788117E7EFF1D82E926EC794901D17C78024A50270940304540A733656F0D SWAP1 DUP1 LOG4 PUSH1 0x1 SWAP1 JUMP JUMPDEST POP POP PUSH0 SWAP1 JUMP JUMPDEST ADDRESS PUSH32 0x0 PUSH1 0x1 PUSH1 0x1 PUSH1 0xA0 SHL SUB AND EQ DUP1 PUSH2 0x11BD JUMPI JUMPDEST ISZERO PUSH2 0x1125 JUMPI PUSH32 0x0 SWAP1 JUMP JUMPDEST PUSH1 0x40 MLOAD PUSH1 0x20 DUP2 ADD SWAP1 PUSH32 0x8B73C3C69BB8FE3D512ECC4CF759CC79239F7B179B0FFACAA9A75D522B39400F DUP3 MSTORE PUSH32 0x0 PUSH1 0x40 DUP3 ADD MSTORE PUSH32 0x0 PUSH1 0x60 DUP3 ADD MSTORE CHAINID PUSH1 0x80 DUP3 ADD MSTORE ADDRESS PUSH1 0xA0 DUP3 ADD MSTORE PUSH1 0xA0 DUP2 MSTORE PUSH2 0x11B7 PUSH1 0xC0 DUP3 PUSH2 0xD56 JUMP JUMPDEST MLOAD SWAP1 KECCAK256 SWAP1 JUMP JUMPDEST POP PUSH32 0x0 CHAINID EQ PUSH2 0x10FC JUMP JUMPDEST PUSH0 DUP2 DUP2 MSTORE PUSH1 0x8 PUSH1 0x20 SWAP1 DUP2 MSTORE PUSH1 0x40 DUP1 DUP4 KECCAK256 PUSH1 0x1 PUSH1 0x1 PUSH1 0xA0 SHL SUB DUP7 AND DUP5 MSTORE SWAP1 SWAP2 MSTORE SWAP1 KECCAK256 SLOAD PUSH1 0xFF AND ISZERO PUSH2 0x10C4 JUMPI PUSH0 DUP2 DUP2 MSTORE PUSH1 0x8 PUSH1 0x20 SWAP1 DUP2 MSTORE PUSH1 0x40 DUP1 DUP4 KECCAK256 PUSH1 0x1 PUSH1 0x1 PUSH1 0xA0 SHL SUB SWAP6 SWAP1 SWAP6 AND DUP1 DUP5 MSTORE SWAP5 SWAP1 SWAP2 MSTORE DUP2 KECCAK256 DUP1 SLOAD PUSH1 0xFF NOT AND SWAP1 SSTORE CALLER SWAP3 SWAP2 SWAP1 PUSH32 0xF6391F5C32D9C69D2A47EA670B442974B53935D1EDC7FD64EB21E047A839171B SWAP1 DUP1 LOG4 PUSH1 0x1 SWAP1 JUMP JUMPDEST PUSH1 0x1 PUSH1 0x1 PUSH1 0xA0 SHL SUB AND SWAP1 DUP2 ISZERO PUSH2 0xF24 JUMPI PUSH1 0x1 PUSH1 0x1 PUSH1 0xA0 SHL SUB AND SWAP2 DUP3 ISZERO PUSH2 0xF11 JUMPI PUSH1 0x20 PUSH32 0x8C5BE1E5EBEC7D5BD14F71427D1E84F3DD0314C0F7B2291E5B200AC8C7C3B925 SWAP2 DUP4 PUSH0 MSTORE PUSH1 0x1 DUP3 MSTORE PUSH1 0x40 PUSH0 KECCAK256 DUP6 PUSH0 MSTORE DUP3 MSTORE DUP1 PUSH1 0x40 PUSH0 KECCAK256 SSTORE PUSH1 0x40 MLOAD SWAP1 DUP2 MSTORE LOG3 JUMP JUMPDEST SWAP1 SWAP2 SWAP1 PUSH1 0x1 PUSH1 0x1 PUSH1 0xA0 SHL SUB AND DUP1 ISZERO PUSH2 0xFF1 JUMPI DUP1 PUSH0 MSTORE PUSH0 PUSH1 0x20 MSTORE PUSH1 0x40 PUSH0 KECCAK256 SLOAD DUP4 DUP2 LT PUSH2 0x1337 JUMPI PUSH1 0x20 DUP5 PUSH0 SWAP5 SWAP6 PUSH32 0xDDF252AD1BE2C89B69C2B068FC378DAA952BA7F163C4A11628F55A4DF523B3EF SWAP4 DUP6 DUP8 MSTORE DUP7 DUP5 MSTORE SUB PUSH1 0x40 DUP7 KECCAK256 SSTORE DUP1 PUSH1 0x2 SLOAD SUB PUSH1 0x2 SSTORE PUSH1 0x40 MLOAD SWAP1 DUP2 MSTORE LOG3 JUMP JUMPDEST SWAP2 POP PUSH4 0x391434E3 PUSH1 0xE2 SHL PUSH0 MSTORE PUSH1 0x4 MSTORE PUSH1 0x24 MSTORE PUSH1 0x44 MSTORE PUSH1 0x64 PUSH0 REVERT JUMPDEST PUSH1 0xFF DUP2 EQ PUSH2 0x1397 JUMPI PUSH1 0xFF DUP2 AND SWAP1 PUSH1 0x1F DUP3 GT PUSH2 0x1388 JUMPI PUSH1 0x40 MLOAD SWAP2 PUSH2 0x1375 PUSH1 0x40 DUP5 PUSH2 0xD56 JUMP JUMPDEST PUSH1 0x20 DUP1 DUP5 MSTORE DUP4 DUP2 ADD SWAP2 SWAP1 CALLDATASIZE DUP4 CALLDATACOPY DUP4 MSTORE MSTORE SWAP1 JUMP JUMPDEST PUSH4 0x2CD44AC3 PUSH1 0xE2 SHL PUSH0 MSTORE PUSH1 0x4 PUSH0 REVERT JUMPDEST POP PUSH1 0x40 MLOAD PUSH2 0x13B1 DUP2 PUSH2 0x13AA DUP2 PUSH1 0x5 PUSH2 0xDC4 JUMP JUMPDEST SUB DUP3 PUSH2 0xD56 JUMP JUMPDEST SWAP1 JUMP JUMPDEST PUSH1 0xFF DUP2 EQ PUSH2 0x13D8 JUMPI PUSH1 0xFF DUP2 AND SWAP1 PUSH1 0x1F DUP3 GT PUSH2 0x1388 JUMPI PUSH1 0x40 MLOAD SWAP2 PUSH2 0x1375 PUSH1 0x40 DUP5 PUSH2 0xD56 JUMP JUMPDEST POP PUSH1 0x40 MLOAD PUSH2 0x13B1 DUP2 PUSH2 0x13AA DUP2 PUSH1 0x6 PUSH2 0xDC4 JUMP JUMPDEST SWAP2 SWAP1 PUSH32 0x7FFFFFFFFFFFFFFFFFFFFFFFFFFFFFFF5D576E7357A4501DDFE92F46681B20A0 DUP5 GT PUSH2 0x146D JUMPI SWAP2 PUSH1 0x20 SWAP4 PUSH1 0x80 SWAP3 PUSH1 0xFF PUSH0 SWAP6 PUSH1 0x40 MLOAD SWAP5 DUP6 MSTORE AND DUP7 DUP5 ADD MSTORE PUSH1 0x40 DUP4 ADD MSTORE PUSH1 0x60 DUP3 ADD MSTORE DUP3 DUP1 MSTORE PUSH1 0x1 GAS STATICCALL ISZERO PUSH2 0x1462 JUMPI PUSH0 MLOAD PUSH1 0x1 PUSH1 0x1 PUSH1 0xA0 SHL SUB DUP2 AND ISZERO PUSH2 0x1458 JUMPI SWAP1 PUSH0 SWAP1 PUSH0 SWAP1 JUMP JUMPDEST POP PUSH0 SWAP1 PUSH1 0x1 SWAP1 PUSH0 SWAP1 JUMP JUMPDEST PUSH1 0x40 MLOAD RETURNDATASIZE PUSH0 DUP3 RETURNDATACOPY RETURNDATASIZE SWAP1 REVERT JUMPDEST POP POP POP PUSH0 SWAP2 PUSH1 0x3 SWAP2 SWAP1 JUMP JUMPDEST PUSH1 0x4 DUP2 LT ISZERO PUSH2 0x14D8 JUMPI DUP1 PUSH2 0x148A JUMPI POP POP JUMP JUMPDEST PUSH1 0x1 DUP2 SUB PUSH2 0x14A1 JUMPI PUSH4 0xF645EEDF PUSH1 0xE0 SHL PUSH0 MSTORE PUSH1 0x4 PUSH0 REVERT JUMPDEST PUSH1 0x2 DUP2 SUB PUSH2 0x14BC JUMPI POP PUSH4 0xFCE698F7 PUSH1 0xE0 SHL PUSH0 MSTORE PUSH1 0x4 MSTORE PUSH1 0x24 PUSH0 REVERT JUMPDEST PUSH1 0x3 EQ PUSH2 0x14C6 JUMPI POP JUMP JUMPDEST PUSH4 0x35E2F383 PUSH1 0xE2 SHL PUSH0 MSTORE PUSH1 0x4 MSTORE PUSH1 0x24 PUSH0 REVERT JUMPDEST PUSH4 0x4E487B71 PUSH1 0xE0 SHL PUSH0 MSTORE PUSH1 0x21 PUSH1 0x4 MSTORE PUSH1 0x24 PUSH0 REVERT INVALID LOG2 PUSH5 0x6970667358 0x22 SLT KECCAK256 SWAP10 TIMESTAMP 0xB7 DUP8 SWAP13 LT 0xB8 0xE4 PUSH4 0x4E6BB7E9 MLOAD CREATE CALL PUSH11 0xF5A81EFE260B9D450E4150 GASLIMIT SLT PUSH12 0xEF64736F6C634300081A0033 0x2F DUP8 DUP9 GT PUSH31 0x7EFF1D82E926EC794901D17C78024A50270940304540A733656F0D51A49591 PUSH5 0x74FE1A0C0F 0xCF 0xB6 GAS DUP11 SWAP8 PUSH9 0x2B84A054118858CDD1 CREATE2 0xDF 0xD7 0xFC MULMOD NOT 0xEB MCOPY SELFDESTRUCT DUP9 PUSH15 0xA0CE6CA488A3D6E336D6C0F75F46D1 SWAP12 TIMESTAMP 0xC0 PUSH13 0xE5EE98E42C96D256C79B779B17 TIMESTAMP 0x2D 0xD 0xF9 0x22 0x23 ADD DUP12 ORIGIN 0xB4 0xD1 STATICCALL CHAINID 0xE0 PUSH18 0x723D6817E2486D003BECC55F00A264697066 PUSH20 0x58221220417852009EC3927000AA11FB5EADB200 GT SWAP16 0x24 SWAP15 0xA5 DUP3 0xC3 CALL PUSH15 0x85D2B03ECB2A8C64736F6C63430008 BYTE STOP CALLER 0x2F DUP8 DUP9 GT PUSH31 0x7EFF1D82E926EC794901D17C78024A50270940304540A733656F0D5892F7A5 CHAINID PUSH6 0x45CB3C1AE968 SUB 0x1E 0x4D SWAP1 0x2D PUSH2 0xEF5D CALLCODE RETURN PREVRANDAO 0xFB 0xA6 MULMOD CALLDATACOPY 0xD0 PUSH29 0x44A2FE740C5E3E456BED56F053F960110118BA9B95A1F5359A82283516 0xFB 0x2E DUP2 0xB6 0xE3 PUSH31 0xAD3228B676F7D3CD4284A5443F17F1962B36E491B30A40B2405849E597BA5F 0xB5 "},"methodIdentifiers":{"BRAND()":"ad1ad527","BTC_ANCHOR()":"6752e9f8","CANON_SIZE()":"7f85bf29","DEFAULT_ADMIN_ROLE()":"a217fddf","DEFAULT_DECIMALS()":"c5008f46","DEFAULT_SUPPLY()":"af89b76b","DEPLOYER_ROLE()":"ecd00261","LOGO_URI()":"7d591787","MERKLE_ROOT()":"51e75e8b","SOVEREIGN_ROLE()":"8e4b7d6d","deployFullCanon()":"7322066f","deployToken(string,string,uint256,string,bool)":"cc32ca80","deployedTokens(uint256)":"ec81aadb","getAllDeployedTokens()":"822f694b","getDeployedTokenCount()":"804215f6","getFactoryStatus()":"96151139","getRoleAdmin(bytes32)":"248a9ca3","getTokenAddress(string)":"c4091236","grantRole(bytes32,address)":"2f2ff15d","hasRole(bytes32,address)":"91d14854","isCanonComplete()":"95a74d7a","isValorToken(address)":"3157697e","renounceRole(bytes32,address)":"36568abe","revokeRole(bytes32,address)":"d547741f","sovereignAddress()":"a9b91a78","supportsInterface(bytes4)":"01ffc9a7","tokenAddresses(string)":"935b13f6"}}}}}