{
  "_format": "hh-sol-artifact-1",
  "contractName": "JAXXServerFactory",
  "sourceName": "contracts/ValorTokenFactory.sol",
  "abi": [
    {
      "inputs": [
        {
          "internalType": "address",
          "name": "_sovereign",
          "type": "address"
        }
      ],
      "stateMutability": "nonpayable",
      "type": "constructor"
    },
    {
      "inputs": [],
      "name": "AccessControlBadConfirmation",
      "type": "error"
    },
    {
      "inputs": [
        {
          "internalType": "address",
          "name": "account",
          "type": "address"
        },
        {
          "internalType": "bytes32",
          "name": "neededRole",
          "type": "bytes32"
        }
      ],
      "name": "AccessControlUnauthorizedAccount",
      "type": "error"
    },
    {
      "inputs": [],
      "name": "ReentrancyGuardReentrantCall",
      "type": "error"
    },
    {
      "anonymous": false,
      "inputs": [
        {
          "indexed": false,
          "internalType": "uint256",
          "name": "totalTokens",
          "type": "uint256"
        },
        {
          "indexed": false,
          "internalType": "uint256",
          "name": "timestamp",
          "type": "uint256"
        }
      ],
      "name": "CanonComplete",
      "type": "event"
    },
    {
      "anonymous": false,
      "inputs": [
        {
          "indexed": true,
          "internalType": "bytes32",
          "name": "role",
          "type": "bytes32"
        },
        {
          "indexed": true,
          "internalType": "bytes32",
          "name": "previousAdminRole",
          "type": "bytes32"
        },
        {
          "indexed": true,
          "internalType": "bytes32",
          "name": "newAdminRole",
          "type": "bytes32"
        }
      ],
      "name": "RoleAdminChanged",
      "type": "event"
    },
    {
      "anonymous": false,
      "inputs": [
        {
          "indexed": true,
          "internalType": "bytes32",
          "name": "role",
          "type": "bytes32"
        },
        {
          "indexed": true,
          "internalType": "address",
          "name": "account",
          "type": "address"
        },
        {
          "indexed": true,
          "internalType": "address",
          "name": "sender",
          "type": "address"
        }
      ],
      "name": "RoleGranted",
      "type": "event"
    },
    {
      "anonymous": false,
      "inputs": [
        {
          "indexed": true,
          "internalType": "bytes32",
          "name": "role",
          "type": "bytes32"
        },
        {
          "indexed": true,
          "internalType": "address",
          "name": "account",
          "type": "address"
        },
        {
          "indexed": true,
          "internalType": "address",
          "name": "sender",
          "type": "address"
        }
      ],
      "name": "RoleRevoked",
      "type": "event"
    },
    {
      "anonymous": false,
      "inputs": [
        {
          "indexed": true,
          "internalType": "string",
          "name": "symbol",
          "type": "string"
        },
        {
          "indexed": false,
          "internalType": "address",
          "name": "tokenAddress",
          "type": "address"
        },
        {
          "indexed": false,
          "internalType": "string",
          "name": "category",
          "type": "string"
        },
        {
          "indexed": false,
          "internalType": "bool",
          "name": "isProtected",
          "type": "bool"
        },
        {
          "indexed": false,
          "internalType": "uint256",
          "name": "supply",
          "type": "uint256"
        }
      ],
      "name": "TokenDeployed",
      "type": "event"
    },
    {
      "inputs": [],
      "name": "BRAND",
      "outputs": [
        {
          "internalType": "string",
          "name": "",
          "type": "string"
        }
      ],
      "stateMutability": "view",
      "type": "function"
    },
    {
      "inputs": [],
      "name": "BTC_ANCHOR",
      "outputs": [
        {
          "internalType": "string",
          "name": "",
          "type": "string"
        }
      ],
      "stateMutability": "view",
      "type": "function"
    },
    {
      "inputs": [],
      "name": "CANON_SIZE",
      "outputs": [
        {
          "internalType": "uint256",
          "name": "",
          "type": "uint256"
        }
      ],
      "stateMutability": "view",
      "type": "function"
    },
    {
      "inputs": [],
      "name": "DEFAULT_ADMIN_ROLE",
      "outputs": [
        {
          "internalType": "bytes32",
          "name": "",
          "type": "bytes32"
        }
      ],
      "stateMutability": "view",
      "type": "function"
    },
    {
      "inputs": [],
      "name": "DEFAULT_DECIMALS",
      "outputs": [
        {
          "internalType": "uint8",
          "name": "",
          "type": "uint8"
        }
      ],
      "stateMutability": "view",
      "type": "function"
    },
    {
      "inputs": [],
      "name": "DEFAULT_SUPPLY",
      "outputs": [
        {
          "internalType": "uint256",
          "name": "",
          "type": "uint256"
        }
      ],
      "stateMutability": "view",
      "type": "function"
    },
    {
      "inputs": [],
      "name": "DEPLOYER_ROLE",
      "outputs": [
        {
          "internalType": "bytes32",
          "name": "",
          "type": "bytes32"
        }
      ],
      "stateMutability": "view",
      "type": "function"
    },
    {
      "inputs": [],
      "name": "LOGO_URI",
      "outputs": [
        {
          "internalType": "string",
          "name": "",
          "type": "string"
        }
      ],
      "stateMutability": "view",
      "type": "function"
    },
    {
      "inputs": [],
      "name": "MERKLE_ROOT",
      "outputs": [
        {
          "internalType": "string",
          "name": "",
          "type": "string"
        }
      ],
      "stateMutability": "view",
      "type": "function"
    },
    {
      "inputs": [],
      "name": "SOVEREIGN_ROLE",
      "outputs": [
        {
          "internalType": "bytes32",
          "name": "",
          "type": "bytes32"
        }
      ],
      "stateMutability": "view",
      "type": "function"
    },
    {
      "inputs": [],
      "name": "deployFullCanon",
      "outputs": [],
      "stateMutability": "nonpayable",
      "type": "function"
    },
    {
      "inputs": [
        {
          "internalType": "string",
          "name": "name_",
          "type": "string"
        },
        {
          "internalType": "string",
          "name": "symbol_",
          "type": "string"
        },
        {
          "internalType": "uint256",
          "name": "supply_",
          "type": "uint256"
        },
        {
          "internalType": "string",
          "name": "category_",
          "type": "string"
        },
        {
          "internalType": "bool",
          "name": "isProtected_",
          "type": "bool"
        }
      ],
      "name": "deployToken",
      "outputs": [
        {
          "internalType": "address",
          "name": "",
          "type": "address"
        }
      ],
      "stateMutability": "nonpayable",
      "type": "function"
    },
    {
      "inputs": [
        {
          "internalType": "uint256",
          "name": "",
          "type": "uint256"
        }
      ],
      "name": "deployedTokens",
      "outputs": [
        {
          "internalType": "string",
          "name": "",
          "type": "string"
        }
      ],
      "stateMutability": "view",
      "type": "function"
    },
    {
      "inputs": [],
      "name": "getAllDeployedTokens",
      "outputs": [
        {
          "internalType": "string[]",
          "name": "",
          "type": "string[]"
        }
      ],
      "stateMutability": "view",
      "type": "function"
    },
    {
      "inputs": [],
      "name": "getDeployedTokenCount",
      "outputs": [
        {
          "internalType": "uint256",
          "name": "",
          "type": "uint256"
        }
      ],
      "stateMutability": "view",
      "type": "function"
    },
    {
      "inputs": [],
      "name": "getFactoryStatus",
      "outputs": [
        {
          "internalType": "uint256",
          "name": "deployed",
          "type": "uint256"
        },
        {
          "internalType": "uint256",
          "name": "remaining",
          "type": "uint256"
        },
        {
          "internalType": "bool",
          "name": "complete",
          "type": "bool"
        },
        {
          "internalType": "address",
          "name": "sovereign",
          "type": "address"
        }
      ],
      "stateMutability": "view",
      "type": "function"
    },
    {
      "inputs": [
        {
          "internalType": "bytes32",
          "name": "role",
          "type": "bytes32"
        }
      ],
      "name": "getRoleAdmin",
      "outputs": [
        {
          "internalType": "bytes32",
          "name": "",
          "type": "bytes32"
        }
      ],
      "stateMutability": "view",
      "type": "function"
    },
    {
      "inputs": [
        {
          "internalType": "string",
          "name": "symbol_",
          "type": "string"
        }
      ],
      "name": "getTokenAddress",
      "outputs": [
        {
          "internalType": "address",
          "name": "",
          "type": "address"
        }
      ],
      "stateMutability": "view",
      "type": "function"
    },
    {
      "inputs": [
        {
          "internalType": "bytes32",
          "name": "role",
          "type": "bytes32"
        },
        {
          "internalType": "address",
          "name": "account",
          "type": "address"
        }
      ],
      "name": "grantRole",
      "outputs": [],
      "stateMutability": "nonpayable",
      "type": "function"
    },
    {
      "inputs": [
        {
          "internalType": "bytes32",
          "name": "role",
          "type": "bytes32"
        },
        {
          "internalType": "address",
          "name": "account",
          "type": "address"
        }
      ],
      "name": "hasRole",
      "outputs": [
        {
          "internalType": "bool",
          "name": "",
          "type": "bool"
        }
      ],
      "stateMutability": "view",
      "type": "function"
    },
    {
      "inputs": [],
      "name": "isCanonComplete",
      "outputs": [
        {
          "internalType": "bool",
          "name": "",
          "type": "bool"
        }
      ],
      "stateMutability": "view",
      "type": "function"
    },
    {
      "inputs": [
        {
          "internalType": "address",
          "name": "",
          "type": "address"
        }
      ],
      "name": "isValorToken",
      "outputs": [
        {
          "internalType": "bool",
          "name": "",
          "type": "bool"
        }
      ],
      "stateMutability": "view",
      "type": "function"
    },
    {
      "inputs": [
        {
          "internalType": "bytes32",
          "name": "role",
          "type": "bytes32"
        },
        {
          "internalType": "address",
          "name": "callerConfirmation",
          "type": "address"
        }
      ],
      "name": "renounceRole",
      "outputs": [],
      "stateMutability": "nonpayable",
      "type": "function"
    },
    {
      "inputs": [
        {
          "internalType": "bytes32",
          "name": "role",
          "type": "bytes32"
        },
        {
          "internalType": "address",
          "name": "account",
          "type": "address"
        }
      ],
      "name": "revokeRole",
      "outputs": [],
      "stateMutability": "nonpayable",
      "type": "function"
    },
    {
      "inputs": [],
      "name": "sovereignAddress",
      "outputs": [
        {
          "internalType": "address",
          "name": "",
          "type": "address"
        }
      ],
      "stateMutability": "view",
      "type": "function"
    },
    {
      "inputs": [
        {
          "internalType": "bytes4",
          "name": "interfaceId",
          "type": "bytes4"
        }
      ],
      "name": "supportsInterface",
      "outputs": [
        {
          "internalType": "bool",
          "name": "",
          "type": "bool"
        }
      ],
      "stateMutability": "view",
      "type": "function"
    },
    {
      "inputs": [
        {
          "internalType": "string",
          "name": "",
          "type": "string"
        }
      ],
      "name": "tokenAddresses",
      "outputs": [
        {
          "internalType": "address",
          "name": "",
          "type": "address"
        }
      ],
      "stateMutability": "view",
      "type": "function"
    }
  ],
  "bytecode": "0x60a03461012c57601f61496c38819003918201601f19168301916001600160401b038311848410176101305780849260209460405283398101031261012c57516001600160a01b0381169081810361012c5760017f9b779b17422d0df92223018b32b4d1fa46e071723d6817e2486d003becc55f005581156100e7578061009c9160805261008c81610144565b50610096816101ba565b5061024d565b5033036100d8575b60405161460b90816102e1823960805181818161039c0152818161065f015281816106e701528181612258015261238a0152f35b6100e1336101ba565b506100a4565b60405162461bcd60e51b815260206004820152601a60248201527f464143544f52593a20494e56414c494420534f5645524549474e0000000000006044820152606490fd5b5f80fd5b634e487b7160e01b5f52604160045260245ffd5b6001600160a01b0381165f9081525f8051602061494c833981519152602052604090205460ff166101b5576001600160a01b03165f8181525f8051602061494c83398151915260205260408120805460ff191660011790553391905f805160206148ec8339815191528180a4600190565b505f90565b6001600160a01b0381165f9081525f8051602061492c833981519152602052604090205460ff166101b5576001600160a01b03165f8181525f8051602061492c83398151915260205260408120805460ff191660011790553391907ffc425f2263d0df187444b70e47283d622c70181c5baebb1306a01edba1ce184c905f805160206148ec8339815191529080a4600190565b6001600160a01b0381165f9081525f8051602061490c833981519152602052604090205460ff166101b5576001600160a01b03165f8181525f8051602061490c83398151915260205260408120805460ff191660011790553391907f50484f4a06e2eb9ece9efbb6a62cf5ef37ad3cfd6e4604128546de631dd3ec8f905f805160206148ec8339815191529080a460019056fe6080806040526004361015610012575f80fd5b5f905f3560e01c90816301ffc9a714611af157508063248a9ca314611abf5780632f2ff15d14611a825780633157697e14611a4157806336568abe146119fd57806351e75e8b1461196d5780636752e9f81461191f5780637322066f146109595780637d591787146108ed5780637f85bf29146108d2578063804215f6146108b5578063822f694b146107c45780638e4b7d6d1461078a57806391d1485414610742578063935b13f61461055f57806395a74d7a1461072257806396151139146106a8578063a217fddf1461068e578063a9b91a781461064a578063ad1ad527146105df578063af89b76b146105c1578063c40912361461055f578063c5008f4614610544578063cc32ca8014610253578063d547741f1461020f578063ec81aadb146101845763ecd0026114610147575f80fd5b3461018157806003193601126101815760206040517ffc425f2263d0df187444b70e47283d622c70181c5baebb1306a01edba1ce184c8152f35b80fd5b3461020b57602036600319011261020b5760043560035481101561020b576003548110156101f75760035f526101f3906101df907fc2575a0e9e593c00f959f8c92f12db2869c3395a3b0502d05e2516446f71f85b01611c2e565b604051918291602083526020830190611b7c565b0390f35b634e487b7160e01b5f52603260045260245ffd5b5f80fd5b3461020b57604036600319011261020b5761025160043561022e611b44565b9061024c610247825f525f602052600160405f20015490565b61207a565b61213a565b005b3461020b5760a036600319011261020b5760043567ffffffffffffffff811161020b57610284903690600401611ba0565b60243567ffffffffffffffff811161020b576102a4903690600401611ba0565b9060443560643567ffffffffffffffff811161020b576102c8903690600401611ba0565b6084359384151580950361020b57335f9081527f740c5e3e456bed56f053f960110118ba9b95a1f5359a82283516fb2e81b6e37e602052604090205460ff161561050d576103146121ba565b6040519381519460208301958087835e60019082019081528190036020019020546001600160a01b03166104d0576040519061216a80830183811067ffffffffffffffff8211176104bc5761038c61037e85946103dc9461244c873960e0845260e0840190611b7c565b828103602084015286611b7c565b9087604082015260018060a01b037f0000000000000000000000000000000000000000000000000000000000000000166060820152601260808201528960a082015260c081830391015285611b7c565b03905ff09182156104b15760209561047061048a937f3f8e9c058048d6aa5a777c6b12ed50cdda64b37926d1c48aac3b66c21a9153509560018060a01b03169789604051809284518091835e8101600181520301902060018060a01b0389166001600160601b0360a01b825416179055875f526002895260405f20600160ff1982541617905561046b81611edc565b612028565b9460405193849388855260808a8601526080850190611b7c565b91604084015260608301520390a260015f805160206145b683398151915255604051908152f35b6040513d5f823e3d90fd5b634e487b7160e01b5f52604160045260245ffd5b60405162461bcd60e51b8152602060048201526015602482015274464143544f52593a20544f4b454e2045584953545360581b6044820152606490fd5b63e2517d3f60e01b5f52336004527ffc425f2263d0df187444b70e47283d622c70181c5baebb1306a01edba1ce184c60245260445ffd5b3461020b575f36600319011261020b57602060405160128152f35b3461020b57602036600319011261020b5760043567ffffffffffffffff811161020b576105926020913690600401611ba0565b8160405191805191829101835e600190820190815281900382019020546040516001600160a01b039091168152f35b3461020b575f36600319011261020b576020604051633b9aca008152f35b3461020b575f36600319011261020b576101f3604051610600606082611b5a565b602381527f56414c4f522041692b2b2f2f65207c204a4158582e7365727665722e666163746020820152626f727960e81b6040820152604051918291602083526020830190611b7c565b3461020b575f36600319011261020b576040517f00000000000000000000000000000000000000000000000000000000000000006001600160a01b03168152602090f35b3461020b575f36600319011261020b5760206040515f8152f35b3461020b575f36600319011261020b57600354806033036033811161070e57603360809260405192818452602084015214604082015260018060a01b037f0000000000000000000000000000000000000000000000000000000000000000166060820152f35b634e487b7160e01b5f52601160045260245ffd5b3461020b575f36600319011261020b576020603360035414604051908152f35b3461020b57604036600319011261020b5761075b611b44565b6004355f525f60205260405f209060018060a01b03165f52602052602060ff60405f2054166040519015158152f35b3461020b575f36600319011261020b5760206040517f50484f4a06e2eb9ece9efbb6a62cf5ef37ad3cfd6e4604128546de631dd3ec8f8152f35b3461020b575f36600319011261020b5760035467ffffffffffffffff81116104bc57604051906107fa60208260051b0183611b5a565b80825260208201908160035f527fc2575a0e9e593c00f959f8c92f12db2869c3395a3b0502d05e2516446f71f85b5f915b83831061089857848660405191829160208301906020845251809152604083019060408160051b85010192915f905b82821061086957505050500390f35b919360019193955060206108888192603f198a82030186528851611b7c565b960192019201859493919261085a565b6001602081926108a785611c2e565b81520192019201919061082b565b3461020b575f36600319011261020b576020600354604051908152f35b3461020b575f36600319011261020b57602060405160338152f35b3461020b575f36600319011261020b576101f360405161090e606082611b5a565b602481527f2f696d616765732f6a6178782d7365727665722d666163746f72792d6c6f676f6020820152632e6a706760e01b6040820152604051918291602083526020830190611b7c565b3461020b575f36600319011261020b57335f9081527f5892f7a5466545cb3c1ae968031e4d902d61ef5df2f344fba60937d07c44a2fe602052604090205460ff16156118e8576109a76121ba565b7fb951dd04fc1190440935cc1bb78ebab639847dd82618c43f44b1bf5ccb77e49f6040610a1c81516109d98382611b5a565b600a81526956616c6f7220436f726560b01b602082015282516109fc8482611b5a565b600581526456434f524560d81b6020820152610a16611cce565b916121f2565b610a648151610a2b8382611b5a565b600881526756616c6f7220414960c01b60208201528251610a4c8482611b5a565b600381526256414960e81b6020820152610a16611cce565b610ab38151610a738382611b5a565b600e81526d56616c6f7220536563757269747960901b60208201528251610a9a8482611b5a565b60048152635653454360e01b6020820152610a16611cce565b610afd8151610ac28382611b5a565b60098152680acc2d8dee4409ac2f60bb1b60208201528251610ae48482611b5a565b60048152630ac9a82b60e31b6020820152610a16611cce565b610b498151610b0c8382611b5a565b600b81526a56616c6f7220426c6f636b60a81b60208201528251610b308482611b5a565b600481526356424c4b60e01b6020820152610a16611cce565b610b948151610b588382611b5a565b600a8152694465616420426c6f636b60b01b60208201528251610b7b8482611b5a565b600481526344424c4b60e01b6020820152610a16611cce565b610be58151610ba38382611b5a565b601081526f56616c6f7220476f7665726e616e636560801b60208201528251610bcc8482611b5a565b60048152632b23a7ab60e11b6020820152610a16611cce565b610c2d8151610bf48382611b5a565b60078152660acc2d8dee440b60cb1b60208201528251610c148482611b5a565b60048152630ac8298b60e31b6020820152610a16611cce565b610c7c8151610c3c8382611b5a565b600b81526a47696c6c736f6e2042544360a81b60208201528251610c608482611b5a565b600781526647494c4c42544360c81b6020820152610a16611cf0565b610cc68151610c8b8382611b5a565b6007815266042544320322e360cc1b60208201528251610cab8482611b5a565b60068152650425443322e360d41b6020820152610a16611cf0565b610d0b8151610cd58382611b5a565b6005815264466c616d6560d81b60208201528251610cf38482611b5a565b6003815262464c4d60e81b6020820152610a16611d11565b610d418151610d1a8382611b5a565b600a815269466c616d6520436f726560b01b6020820152610d39611d11565b610a16611d11565b610d868151610d508382611b5a565b6005815264466c61726560d81b60208201528251610d6e8482611b5a565b600381526223262960e91b6020820152610a16611d11565b610dd28151610d958382611b5a565b600a81526915985b1bdc8814dbdd5b60b21b60208201528251610db88482611b5a565b60058152641594dbdd5b60da1b6020820152610a16611d34565b610e028151610de18382611b5a565b600481526314dbdd5b60e21b6020820152610dfa611d34565b610a16611d34565b610e498151610e118382611b5a565b600581526411da1bdcdd60da1b60208201528251610e2f8482611b5a565b600581526411d213d4d560da1b6020820152610a16611d34565b610e8e8151610e588382611b5a565b60048152631119585960e21b60208201528251610e758482611b5a565b60048152631111505160e21b6020820152610a16611d34565b610edd8151610e9d8382611b5a565b600c81526b496e74656c2053656375726560a01b60208201528251610ec28482611b5a565b6006815265494e544c2d5360d01b6020820152610a16611d56565b610f238151610eec8382611b5a565b6005815264125b9d195b60da1b60208201528251610f0a8482611b5a565b60048152631253951360e21b6020820152610a16611d56565b610f6e8151610f328382611b5a565b6007815266125b9d195b1a5d60ca1b60208201528251610f528482611b5a565b60078152661253951153125560ca1b6020820152610a16611d56565b610fbd8151610f7d8382611b5a565b600b81526a564d7761726520506c757360a81b60208201528251610fa18482611b5a565b6007815266564d574152452b60c81b6020820152610a16611d79565b61100a8151610fcc8382611b5a565b600a815269427261696e20506c757360b01b60208201528251610fef8482611b5a565b6006815265425241494e2b60d01b6020820152610a16611d79565b61105581516110198382611b5a565b600781526622b23aba30b4b760c91b602082015282516110398482611b5a565b600781526622a22aaa20a4a760c91b6020820152610a16611d79565b6110a081516110648382611b5a565b60098152684d61746820506c757360b81b602082015282516110868482611b5a565b60058152644d4154482b60d81b6020820152610a16611d79565b6110f581516110af8382611b5a565b600c81526b56616c6f72414920506c757360a01b602082015282516110d48482611b5a565b600c81526b2456414c4f524149504c555360a01b6020820152610a16611d9c565b61117681516111048382611b5a565b601581527456616c6f72414920506c75732044414f203230333560581b60208201528251611133606082611b5a565b602981527f2456414c4f524149504c555332455f44414f5f474f5645524e414e43455f32306020820152680ccd57d0d313d4d15160ba1b84820152610a16611d9c565b6111c081516111858382611b5a565b60098152682b30b637b91020a1a760b91b602082015282516111a78482611b5a565b60048152632b20a1a760e11b6020820152610a16611d9c565b61120e81516111cf8382611b5a565b600981526856616c6f722044414f60b81b602082015282516111f18482611b5a565b600881526756414c4f5244414f60c01b6020820152610a16611d9c565b61125e815161121d8382611b5a565b600d81526c56616c6f72205574696c69747960981b602082015282516112438482611b5a565b600681526515905315551360d21b6020820152610a16611d9c565b6112ac815161126d8382611b5a565b600d81526c2b30b637b9102220a79023b7bb60991b602082015282516112938482611b5a565b60048152635644414f60e01b6020820152610a16611dbf565b6112f181516112bb8382611b5a565b600581526415985d5b1d60da1b602082015282516112d98482611b5a565b600381526215931560ea1b6020820152610a16611dbf565b61133b81516113008382611b5a565b600981526815985b1bdc8813995d60ba1b602082015282516113228482611b5a565b60048152631593915560e21b6020820152610a16611dbf565b611384815161134a8382611b5a565b600681526514dadc9bdb1b60d21b602082015282516113698482611b5a565b600681526514d2d493d31360d21b6020820152610a16611de7565b6113cb81516113938382611b5a565b600581526414dadbdb1b60da1b602082015282516113b18482611b5a565b600581526414d2d3d31360da1b6020820152610a16611de7565b61141281516113da8382611b5a565b600581526414dadc9bdb60da1b602082015282516113f88482611b5a565b600581526414d2d493d360da1b6020820152610a16611de7565b61147681516114218382611b5a565b600a8152694447204772617669747960b01b602082015282516114448482611b5a565b601781527f444737372e3737585f475241564954595f4143544956450000000000000000006020820152610a16611e0b565b6114c181516114858382611b5a565b600a81526929a3a0aa902a37b5b2b760b11b602082015282516114a88482611b5a565b60048152635347415560e01b6020820152610a16611e0b565b61150881516114d08382611b5a565b6005815264105b99d95b60da1b602082015282516114ee8482611b5a565b600581526409105391d360da1b6020820152610a16611e0b565b61155781516115178382611b5a565b600a81526920b733b2b6101918191b60b11b6020820152825161153a8482611b5a565b600881526720a723a61918191b60c11b6020820152610a16611e0b565b6115a181516115668382611b5a565b60078152664447203139363960c81b602082015282516115868482611b5a565b600681526544473139363960d01b6020820152610a16611e2f565b6115eb81516115b08382611b5a565b6007815266444a2054696d6560c81b602082015282516115d08482611b5a565b6006815265444a54494d4560d01b6020820152610a16611e2f565b61161b81516115fa8382611b5a565b600481526354696d6560e01b6020820152611613611e2f565b610a16611e2f565b611670815161162a8382611b5a565b60098152682732bbba101918191b60b91b6020820152825161164c8482611b5a565b6009815268122722abaa1918191b60b91b602082015261166a611e51565b91612324565b6116b8815161167f8382611b5a565b6005815264446f6e6e7960d81b6020820152825161169d8482611b5a565b600681526524444f4e4e5960d01b602082015261166a611e51565b61170481516116c78382611b5a565b600781526623b4b63639b7b760c91b602082015282516116e78482611b5a565b60088152671223a4a62629a7a760c11b602082015261166a611e51565b61175681516117138382611b5a565b600c81526b11da5b1b1cdbdb8811dbdb1960a21b602082015282516117388482611b5a565b60098152680911d2531311d3d31160ba1b602082015261166a611e51565b61179e81516117658382611b5a565b6005815264506f70706160d81b602082015282516117838482611b5a565b600681526524504f50504160d01b602082015261166a611e51565b6117e381516117ad8382611b5a565b6004815263094c2f0f60e31b602082015282516117ca8482611b5a565b600481526309482b0b60e31b602082015261166a611e51565b61182d81516117f28382611b5a565b60068152652837ba3a32b960d11b602082015282516118118482611b5a565b6007815266122827aa2a22a960c91b602082015261166a611e51565b61187e815161183c8382611b5a565b600a815269084e4c2c8cadc40626c760b31b6020820152825161185f8482611b5a565b600a81526904884a482888a9c626c760b31b602082015261166a611e51565b6118c6815161188d8382611b5a565b600581526426b0b9b7b760d91b602082015282516118ab8482611b5a565b60068152651226a0a9a7a760d11b602082015261166a611e51565b6003548151908152426020820152a160015f805160206145b683398151915255005b63e2517d3f60e01b5f52336004527f50484f4a06e2eb9ece9efbb6a62cf5ef37ad3cfd6e4604128546de631dd3ec8f60245260445ffd5b3461020b575f36600319011261020b576101f3604051611940604082611b5a565b600c81526b109b1bd8dac80e0d0dcc8ccd60a21b6020820152604051918291602083526020830190611b7c565b3461020b575f36600319011261020b576101f360405161198e608082611b5a565b604281527f307838663361353637643265386631613462396330643265346636613862306360208201527f3264346536663861306232633464366538663061326234633664386530663161604082015261193160f11b6060820152604051918291602083526020830190611b7c565b3461020b57604036600319011261020b57611a16611b44565b336001600160a01b03821603611a32576102519060043561213a565b63334bd91960e11b5f5260045ffd5b3461020b57602036600319011261020b576004356001600160a01b0381169081900361020b575f526002602052602060ff60405f2054166040519015158152f35b3461020b57604036600319011261020b57610251600435611aa1611b44565b90611aba610247825f525f602052600160405f20015490565b6120b2565b3461020b57602036600319011261020b576020611ae96004355f525f602052600160405f20015490565b604051908152f35b3461020b57602036600319011261020b576004359063ffffffff60e01b821680920361020b57602091637965db0b60e01b8114908115611b33575b5015158152f35b6301ffc9a760e01b14905083611b2c565b602435906001600160a01b038216820361020b57565b90601f8019910116810190811067ffffffffffffffff8211176104bc57604052565b805180835260209291819084018484015e5f828201840152601f01601f1916010190565b81601f8201121561020b5780359067ffffffffffffffff82116104bc5760405192611bd5601f8401601f191660200185611b5a565b8284526020838301011161020b57815f926020809301838601378301015290565b90600182811c92168015611c24575b6020831014611c1057565b634e487b7160e01b5f52602260045260245ffd5b91607f1691611c05565b9060405191825f825492611c4184611bf6565b8084529360018116908115611cac5750600114611c68575b50611c6692500383611b5a565b565b90505f9291925260205f20905f915b818310611c90575050906020611c66928201015f611c59565b6020919350806001915483858901015201910190918492611c77565b905060209250611c6694915060ff191682840152151560051b8201015f611c59565b60405190611cdd604083611b5a565b6004825263434f524560e01b6020830152565b60405190611cff604083611b5a565b600382526242544360e81b6020830152565b60405190611d20604083611b5a565b6005825264464c414d4560d81b6020830152565b60405190611d43604083611b5a565b600482526314d3d55360e21b6020830152565b60405190611d65604083611b5a565b6005825264125395115360da1b6020830152565b60405190611d88604083611b5a565b6005825264212920a4a760d91b6020830152565b60405190611dab604083611b5a565b60058252642b20a627a960d91b6020830152565b60405190611dce604083611b5a565b600a825269474f5645524e414e434560b01b6020830152565b60405190611df6604083611b5a565b600682526514d0d493d31360d21b6020830152565b60405190611e1a604083611b5a565b600682526520a721a427a960d11b6020830152565b60405190611e3e604083611b5a565b600482526354494d4560e01b6020830152565b60405190611e60604083611b5a565b600982526829a7ab22a922a4a3a760b91b6020830152565b91611ea390611e95611ed99795969360e0865260e0860190611b7c565b908482036020860152611b7c565b633b9aca0060408401526001600160a01b03909416606083015260126080830152151560a082015280830360c090910152611b7c565b90565b90600354680100000000000000008110156104bc57600181016003556003548110156101f75760035f527fc2575a0e9e593c00f959f8c92f12db2869c3395a3b0502d05e2516446f71f85b01825167ffffffffffffffff81116104bc57611f438254611bf6565b601f8111611fe3575b506020601f8211600114611f8557819293945f92611f7a575b50508160011b915f199060031b1c1916179055565b015190505f80611f65565b601f19821690835f52805f20915f5b818110611fcb57509583600195969710611fb3575b505050811b019055565b01515f1960f88460031b161c191690555f8080611fa9565b9192602060018192868b015181550194019201611f94565b825f5260205f20601f830160051c8101916020841061201e575b601f0160051c01905b8181106120135750611f4c565b5f8155600101612006565b9091508190611ffd565b602090604051918183925191829101835e81015f815203902090565b61206e633b9aca009360609396959660018060a01b03168352608060208401526080830190611b7c565b94151560408201520152565b5f8181526020818152604080832033845290915290205460ff161561209c5750565b63e2517d3f60e01b5f523360045260245260445ffd5b5f818152602081815260408083206001600160a01b038616845290915290205460ff16612134575f818152602081815260408083206001600160a01b0395909516808452949091528120805460ff19166001179055339291907f2f8788117e7eff1d82e926ec794901d17c78024a50270940304540a733656f0d9080a4600190565b50505f90565b5f818152602081815260408083206001600160a01b038616845290915290205460ff1615612134575f818152602081815260408083206001600160a01b0395909516808452949091528120805460ff19169055339291907ff6391f5c32d9c69d2a47ea670b442974b53935d1edc7fd64eb21e047a839171b9080a4600190565b60025f805160206145b683398151915254146121e35760025f805160206145b683398151915255565b633ee5aeb560e01b5f5260045ffd5b916040519282519360208401948086835e60019082019081528190036020019020546001600160a01b031615612229575b50505050565b6040519061216a8083019083821067ffffffffffffffff8311176104bc575f61227d92878695889461244c88397f000000000000000000000000000000000000000000000000000000000000000092611e78565b03905ff080156104b1577f3f8e9c058048d6aa5a777c6b12ed50cdda64b37926d1c48aac3b66c21a915350926123079160018060a01b0316946020604051809284518091835e8101600181520301902060018060a01b0386166001600160601b0360a01b825416179055845f52600260205260405f20600160ff1982541617905561046b81611edc565b926123185f60405193849384612044565b0390a25f808080612223565b916040519282519360208401948086835e60019082019081528190036020019020546001600160a01b03161561235a5750505050565b6040519061216a8083019083821067ffffffffffffffff8311176104bc5760016123af92878695889461244c88397f000000000000000000000000000000000000000000000000000000000000000092611e78565b03905ff080156104b1577f3f8e9c058048d6aa5a777c6b12ed50cdda64b37926d1c48aac3b66c21a915350926124399160018060a01b0316946020604051809284518091835e8101600181520301902060018060a01b0386166001600160601b0360a01b825416179055845f52600260205260405f20600160ff1982541617905561046b81611edc565b9261231860016040519384938461204456fe6101a080604052346106dd5761216a803803809161001d82856106e1565b833981019060e0818303126106dd5780516001600160401b0381116106dd5782610048918301610704565b60208201516001600160401b0381116106dd5783610067918401610704565b60408301516060840151946001600160a01b038616949293928587036106dd5760808101519060ff821682036106dd5760a08101519283151584036106dd5760c08201516001600160401b0381116106dd576100c39201610704565b9660409788516100d38a826106e1565b60018152603160f81b602082015286516001600160401b03811161050e57600354600181811c911680156106d3575b60208210146104f057601f8111610670575b50806020601f821160011461060a575f916105ff575b508160011b915f199060031b1c1916176003555b87516001600160401b03811161050e57600454600181811c911680156105f5575b60208210146104f057601f8111610592575b50806020601f821160011461052d575f91610522575b508160011b915f199060031b1c1916176004555b6101a48761093f565b610120526101b181610aaf565b6101405286516020880120908160e0526020815191012080610100524660a0528a519060208201927f8b73c3c69bb8fe3d512ecc4cf759cc79239f7b179b0ffacaa9a75d522b39400f84528c83015260608201524660808201523060a082015260a0815261022060c0826106e1565b5190206080523060c0526101608390526101808490528051906001600160401b03821161050e57600954600181811c91168015610504575b60208210146104f057601f811161048d575b50602090601f8311600114610424576102b59392915f9183610419575b50508160011b915f199060031b1c1916176009555b6102a58161077d565b506102af816107f3565b506108ac565b50604d60ff8216116103f25760ff16600a0a8083029083820414831517156103f257851561040657600254948186018096116103f2577f4996e649a70c099b24c5b4867d2a4c3d4144f4766355e6214492f061ad17ee79965f7fddf252ad1be2c89b69c2b068fc378daa952ba7f163c4a11628f55a4df523b3ef6020610372956103649a6002558484528382528c84208181540190558c51908152a38751958695608087526080870190610759565b908582036020870152610759565b9186840152151560608301520390a1516115229081610be8823960805181611103015260a051816111c0015260c051816110cd015260e0518161115201526101005181611178015261012051816106360152610140518161065f01526101605181610b060152610180518181816107700152818161087c01526109060152f35b634e487b7160e01b5f52601160045260245ffd5b63ec442f0560e01b5f525f60045260245ffd5b015190505f80610287565b90601f1983169160095f52815f20925f5b81811061047557509160019391856102b59796941061045d575b505050811b0160095561029c565b01515f1960f88460031b161c191690555f808061044f565b92936020600181928786015181550195019301610435565b60095f527f6e1540171b6c0c960b71a7020d9f60077f6af931a8bbf590da0223dacf75c7af601f840160051c810191602085106104e6575b601f0160051c01905b8181106104db575061026a565b5f81556001016104ce565b90915081906104c5565b634e487b7160e01b5f52602260045260245ffd5b90607f1690610258565b634e487b7160e01b5f52604160045260245ffd5b90508901515f610187565b915060045f52815f205f925b8b601f198416851061057b57506001935082601f19811610610563575b5050811b0160045561019b565b8b01515f1960f88460031b161c191690555f80610556565b810151825560209384019360019092019101610539565b60045f527f8a35acfbc15ff81a39ae7d344fd709f28e8600b4aa8c65c6b64bfe7fe36bd19b601f830160051c810191602084106105eb575b601f0160051c01905b8181106105e05750610171565b5f81556001016105d3565b90915081906105ca565b90607f169061015f565b90508801515f61012a565b60035f9081528181209250601f198416905b8b8282106106585750509083600194939210610640575b5050811b0160035561013e565b8a01515f1960f88460031b161c191690555f80610633565b6001849560209395849301518155019401920161061c565b60035f527fc2575a0e9e593c00f959f8c92f12db2869c3395a3b0502d05e2516446f71f85b601f830160051c810191602084106106c9575b601f0160051c01905b8181106106be5750610114565b5f81556001016106b1565b90915081906106a8565b90607f1690610102565b5f80fd5b601f909101601f19168101906001600160401b0382119082101761050e57604052565b81601f820112156106dd578051906001600160401b03821161050e5760405192610738601f8401601f1916602001856106e1565b828452602083830101116106dd57815f9260208093018386015e8301015290565b805180835260209291819084018484015e5f828201840152601f01601f1916010190565b6001600160a01b0381165f9081525f8051602061214a833981519152602052604090205460ff166107ee576001600160a01b03165f8181525f8051602061214a83398151915260205260408120805460ff191660011790553391905f8051602061210a8339815191528180a4600190565b505f90565b6001600160a01b0381165f9081527f60395df67107109e5b300dafa59a172edb7d52a026a9db618800966e886decd0602052604090205460ff166107ee576001600160a01b03165f8181527f60395df67107109e5b300dafa59a172edb7d52a026a9db618800966e886decd060205260408120805460ff191660011790553391907f50484f4a06e2eb9ece9efbb6a62cf5ef37ad3cfd6e4604128546de631dd3ec8f905f8051602061210a8339815191529080a4600190565b6001600160a01b0381165f9081525f8051602061212a833981519152602052604090205460ff166107ee576001600160a01b03165f8181525f8051602061212a83398151915260205260408120805460ff191660011790553391907f9f2df0fed2c77648de5860a4cc508cd0818c85b8b8a1ab4ceeef8d981c8956a6905f8051602061210a8339815191529080a4600190565b908151602081105f146109a2575090601f81511161097957602081519101516020821061096a571790565b5f198260200360031b1b161790565b60405163305a27a960e01b81526020600482015290819061099e906024830190610759565b0390fd5b6001600160401b03811161050e57600554600181811c91168015610aa5575b60208210146104f057601f8111610a72575b50602092601f8211600114610a1157928192935f92610a06575b50508160011b915f199060031b1c19161760055560ff90565b015190505f806109ed565b601f1982169360055f52805f20915f5b868110610a5a5750836001959610610a42575b505050811b0160055560ff90565b01515f1960f88460031b161c191690555f8080610a34565b91926020600181928685015181550194019201610a21565b60055f52601f60205f20910160051c810190601f830160051c015b818110610a9a57506109d3565b5f8155600101610a8d565b90607f16906109c1565b908151602081105f14610ada575090601f81511161097957602081519101516020821061096a571790565b6001600160401b03811161050e57600654600181811c91168015610bdd575b60208210146104f057601f8111610baa575b50602092601f8211600114610b4957928192935f92610b3e575b50508160011b915f199060031b1c19161760065560ff90565b015190505f80610b25565b601f1982169360065f52805f20915f5b868110610b925750836001959610610b7a575b505050811b0160065560ff90565b01515f1960f88460031b161c191690555f8080610b6c565b91926020600181928685015181550194019201610b59565b60065f52601f60205f20910160051c810190601f830160051c015b818110610bd25750610b0b565b5f8155600101610bc5565b90607f1690610af956fe6080806040526004361015610012575f80fd5b5f3560e01c90816301ffc9a714610cb35750806306fdde0314610c0e578063095ea7b314610be857806318160ddd14610bcb57806323b872dd14610b93578063248a9ca314610b685780632f2ff15d14610b2a578063313ce56714610aed5780633644e51514610acb57806336568abe14610a8757806340c10f191461097557806342966c68146108f357806351bfcdbd146108a15780635300f82b146108655780636498da881461081a57806370a08231146107e357806379cc67901461074e5780637ecebe001461071657806384b0196e1461061e5780638e4b7d6d146105e457806391b9b8271461059757806391d148541461054e57806395d89b41146104a9578063a217fddf1461048f578063a9059cbb1461045e578063d505accf1461031b578063d5391393146102e1578063d547741f1461029c578063dd62ed3e1461024c5763ef430aa614610166575f80fd5b34610248575f366003190112610248576040515f60095461018681610d8c565b808452906001811690811561022457506001146101c6575b6101c2836101ae81850382610d56565b604051918291602083526020830190610d06565b0390f35b60095f9081527f6e1540171b6c0c960b71a7020d9f60077f6af931a8bbf590da0223dacf75c7af939250905b80821061020a575090915081016020016101ae61019e565b9192600181602092548385880101520191019092916101f2565b60ff191660208086019190915291151560051b840190910191506101ae905061019e565b5f80fd5b3461024857604036600319011261024857610265610d2a565b61026d610d40565b6001600160a01b039182165f908152600160209081526040808320949093168252928352819020549051908152f35b34610248576040366003190112610248576102df6004356102bb610d40565b906102da6102d5825f526008602052600160405f20015490565b611004565b6111e6565b005b34610248575f3660031901126102485760206040517f9f2df0fed2c77648de5860a4cc508cd0818c85b8b8a1ab4ceeef8d981c8956a68152f35b346102485760e036600319011261024857610334610d2a565b61033c610d40565b604435906064359260843560ff811681036102485784421161044b576104106104199160018060a01b03841696875f52600760205260405f20908154916001830190556040519060208201927f6e71edae12b1b97f4d1f60370fef10105fa2faae0126114a169c64845d6126c984528a604084015260018060a01b038916606084015289608084015260a083015260c082015260c081526103de60e082610d56565b5190206103e96110ca565b906040519161190160f01b83526002830152602282015260c43591604260a43592206113eb565b90929192611478565b6001600160a01b031684810361043457506102df935061126a565b84906325c0072360e11b5f5260045260245260445ffd5b8463313c898160e11b5f5260045260245ffd5b346102485760403660031901126102485761048461047a610d2a565b6024359033610f5a565b602060405160018152f35b34610248575f3660031901126102485760206040515f8152f35b34610248575f366003190112610248576040515f6004546104c981610d8c565b808452906001811690811561022457506001146104f0576101c2836101ae81850382610d56565b60045f9081527f8a35acfbc15ff81a39ae7d344fd709f28e8600b4aa8c65c6b64bfe7fe36bd19b939250905b808210610534575090915081016020016101ae61019e565b91926001816020925483858801015201910190929161051c565b3461024857604036600319011261024857610567610d40565b6004355f52600860205260405f209060018060a01b03165f52602052602060ff60405f2054166040519015158152f35b34610248575f366003190112610248576101c26040516105b8604082610d56565b600b81526a56414c4f524149504c555360a81b6020820152604051918291602083526020830190610d06565b34610248575f3660031901126102485760206040517f50484f4a06e2eb9ece9efbb6a62cf5ef37ad3cfd6e4604128546de631dd3ec8f8152f35b34610248575f366003190112610248576106ba61065a7f0000000000000000000000000000000000000000000000000000000000000000611351565b6106837f00000000000000000000000000000000000000000000000000000000000000006113b4565b60206106c8604051926106968385610d56565b5f84525f368137604051958695600f60f81b875260e08588015260e0870190610d06565b908582036040870152610d06565b4660608501523060808501525f60a085015283810360c08501528180845192838152019301915f5b8281106106ff57505050500390f35b8351855286955093810193928101926001016106f0565b34610248576020366003190112610248576001600160a01b03610737610d2a565b165f526007602052602060405f2054604051908152f35b34610248576040366003190112610248576102df61076a610d2a565b602435907f00000000000000000000000000000000000000000000000000000000000000006107a4575b61079f823383610e91565b6112cd565b335f9081527f60395df67107109e5b300dafa59a172edb7d52a026a9db618800966e886decd060205260409020546107de9060ff16610e45565b610794565b34610248576020366003190112610248576001600160a01b03610804610d2a565b165f525f602052602060405f2054604051908152f35b34610248575f366003190112610248576101c260405161083b604082610d56565b6009815268373232362e3334363160b81b6020820152604051918291602083526020830190610d06565b34610248575f3660031901126102485760206040517f000000000000000000000000000000000000000000000000000000000000000015158152f35b34610248575f366003190112610248576101c26040516108c2604082610d56565b601081526f29a0a4a72a102820aaa6101a9a98989b60811b6020820152604051918291602083526020830190610d06565b34610248576020366003190112610248577f0000000000000000000000000000000000000000000000000000000000000000610936575b6102df600435336112cd565b335f9081527f60395df67107109e5b300dafa59a172edb7d52a026a9db618800966e886decd060205260409020546109709060ff16610e45565b61092a565b346102485760403660031901126102485761098e610d2a565b335f9081527f51a495916474fe1a0c0fcfb65a8a97682b84a054118858cdd1f5dfd7fc0919eb6020526040902054602435919060ff1615610a50576001600160a01b0316908115610a3d5760025490808201809211610a295760207fddf252ad1be2c89b69c2b068fc378daa952ba7f163c4a11628f55a4df523b3ef915f9360025584845283825260408420818154019055604051908152a3005b634e487b7160e01b5f52601160045260245ffd5b63ec442f0560e01b5f525f60045260245ffd5b63e2517d3f60e01b5f52336004527f9f2df0fed2c77648de5860a4cc508cd0818c85b8b8a1ab4ceeef8d981c8956a660245260445ffd5b3461024857604036600319011261024857610aa0610d40565b336001600160a01b03821603610abc576102df906004356111e6565b63334bd91960e11b5f5260045ffd5b34610248575f366003190112610248576020610ae56110ca565b604051908152f35b34610248575f36600319011261024857602060405160ff7f0000000000000000000000000000000000000000000000000000000000000000168152f35b34610248576040366003190112610248576102df600435610b49610d40565b90610b636102d5825f526008602052600160405f20015490565b61103e565b34610248576020366003190112610248576020610ae56004355f526008602052600160405f20015490565b3461024857606036600319011261024857610484610baf610d2a565b610bb7610d40565b60443591610bc6833383610e91565b610f5a565b34610248575f366003190112610248576020600254604051908152f35b3461024857604036600319011261024857610484610c04610d2a565b602435903361126a565b34610248575f366003190112610248576040515f600354610c2e81610d8c565b80845290600181169081156102245750600114610c55576101c2836101ae81850382610d56565b60035f9081527fc2575a0e9e593c00f959f8c92f12db2869c3395a3b0502d05e2516446f71f85b939250905b808210610c99575090915081016020016101ae61019e565b919260018160209254838588010152019101909291610c81565b34610248576020366003190112610248576004359063ffffffff60e01b821680920361024857602091637965db0b60e01b8114908115610cf5575b5015158152f35b6301ffc9a760e01b14905083610cee565b805180835260209291819084018484015e5f828201840152601f01601f1916010190565b600435906001600160a01b038216820361024857565b602435906001600160a01b038216820361024857565b90601f8019910116810190811067ffffffffffffffff821117610d7857604052565b634e487b7160e01b5f52604160045260245ffd5b90600182811c92168015610dba575b6020831014610da657565b634e487b7160e01b5f52602260045260245ffd5b91607f1691610d9b565b5f9291815491610dd383610d8c565b8083529260018116908115610e285750600114610def57505050565b5f9081526020812093945091925b838310610e0e575060209250010190565b600181602092949394548385870101520191019190610dfd565b915050602093945060ff929192191683830152151560051b010190565b15610e4c57565b60405162461bcd60e51b815260206004820152601960248201527f50524f5445435445443a20534f5645524549474e204f4e4c59000000000000006044820152606490fd5b6001600160a01b039081165f818152600160209081526040808320948616835293905291909120549291905f198410610ecb575b50505050565b828410610f37578015610f24576001600160a01b03821615610f11575f52600160205260405f209060018060a01b03165f5260205260405f20910390555f808080610ec5565b634a1406b160e11b5f525f60045260245ffd5b63e602df0560e01b5f525f60045260245ffd5b508290637dc7a0d960e11b5f5260018060a01b031660045260245260445260645ffd5b6001600160a01b0316908115610ff1576001600160a01b0316918215610a3d57815f525f60205260405f2054818110610fd857817fddf252ad1be2c89b69c2b068fc378daa952ba7f163c4a11628f55a4df523b3ef92602092855f525f84520360405f2055845f525f825260405f20818154019055604051908152a3565b8263391434e360e21b5f5260045260245260445260645ffd5b634b637e8f60e11b5f525f60045260245ffd5b5f81815260086020908152604080832033845290915290205460ff16156110285750565b63e2517d3f60e01b5f523360045260245260445ffd5b5f8181526008602090815260408083206001600160a01b038616845290915290205460ff166110c4575f8181526008602090815260408083206001600160a01b0395909516808452949091528120805460ff19166001179055339291907f2f8788117e7eff1d82e926ec794901d17c78024a50270940304540a733656f0d9080a4600190565b50505f90565b307f00000000000000000000000000000000000000000000000000000000000000006001600160a01b031614806111bd575b15611125577f000000000000000000000000000000000000000000000000000000000000000090565b60405160208101907f8b73c3c69bb8fe3d512ecc4cf759cc79239f7b179b0ffacaa9a75d522b39400f82527f000000000000000000000000000000000000000000000000000000000000000060408201527f000000000000000000000000000000000000000000000000000000000000000060608201524660808201523060a082015260a081526111b760c082610d56565b51902090565b507f000000000000000000000000000000000000000000000000000000000000000046146110fc565b5f8181526008602090815260408083206001600160a01b038616845290915290205460ff16156110c4575f8181526008602090815260408083206001600160a01b0395909516808452949091528120805460ff19169055339291907ff6391f5c32d9c69d2a47ea670b442974b53935d1edc7fd64eb21e047a839171b9080a4600190565b6001600160a01b0316908115610f24576001600160a01b0316918215610f115760207f8c5be1e5ebec7d5bd14f71427d1e84f3dd0314c0f7b2291e5b200ac8c7c3b92591835f526001825260405f20855f5282528060405f2055604051908152a3565b9091906001600160a01b03168015610ff157805f525f60205260405f2054838110611337576020845f94957fddf252ad1be2c89b69c2b068fc378daa952ba7f163c4a11628f55a4df523b3ef938587528684520360408620558060025403600255604051908152a3565b915063391434e360e21b5f5260045260245260445260645ffd5b60ff81146113975760ff811690601f82116113885760405191611375604084610d56565b6020808452838101919036833783525290565b632cd44ac360e21b5f5260045ffd5b506040516113b1816113aa816005610dc4565b0382610d56565b90565b60ff81146113d85760ff811690601f82116113885760405191611375604084610d56565b506040516113b1816113aa816006610dc4565b91907f7fffffffffffffffffffffffffffffff5d576e7357a4501ddfe92f46681b20a0841161146d579160209360809260ff5f9560405194855216868401526040830152606082015282805260015afa15611462575f516001600160a01b0381161561145857905f905f90565b505f906001905f90565b6040513d5f823e3d90fd5b5050505f9160039190565b60048110156114d8578061148a575050565b600181036114a15763f645eedf60e01b5f5260045ffd5b600281036114bc575063fce698f760e01b5f5260045260245ffd5b6003146114c65750565b6335e2f38360e21b5f5260045260245ffd5b634e487b7160e01b5f52602160045260245ffdfea26469706673582212209942b7879c10b8e4634e6bb7e951f0f16af5a81efe260b9d450e415045126bef64736f6c634300081a00332f8788117e7eff1d82e926ec794901d17c78024a50270940304540a733656f0d51a495916474fe1a0c0fcfb65a8a97682b84a054118858cdd1f5dfd7fc0919eb5eff886ea0ce6ca488a3d6e336d6c0f75f46d19b42c06ce5ee98e42c96d256c79b779b17422d0df92223018b32b4d1fa46e071723d6817e2486d003becc55f00a2646970667358221220417852009ec3927000aa11fb5eadb200119f249ea582c3f16e85d2b03ecb2a8c64736f6c634300081a00332f8788117e7eff1d82e926ec794901d17c78024a50270940304540a733656f0d5892f7a5466545cb3c1ae968031e4d902d61ef5df2f344fba60937d07c44a2fe740c5e3e456bed56f053f960110118ba9b95a1f5359a82283516fb2e81b6e37ead3228b676f7d3cd4284a5443f17f1962b36e491b30a40b2405849e597ba5fb5",
  "linkReferences": {},
  "deployedLinkReferences": {}
}