{
  "_format": "hh-sol-artifact-1",
  "contractName": "ValoraiplusSovereignScript",
  "sourceName": "contracts/ValoraiplusSovereignScript.sol",
  "abi": [
    {
      "inputs": [
        {
          "internalType": "address",
          "name": "initialAuditor",
          "type": "address"
        }
      ],
      "stateMutability": "nonpayable",
      "type": "constructor"
    },
    {
      "inputs": [],
      "name": "AccessControlBadConfirmation",
      "type": "error"
    },
    {
      "inputs": [
        {
          "internalType": "address",
          "name": "account",
          "type": "address"
        },
        {
          "internalType": "bytes32",
          "name": "neededRole",
          "type": "bytes32"
        }
      ],
      "name": "AccessControlUnauthorizedAccount",
      "type": "error"
    },
    {
      "inputs": [],
      "name": "ECDSAInvalidSignature",
      "type": "error"
    },
    {
      "inputs": [
        {
          "internalType": "uint256",
          "name": "length",
          "type": "uint256"
        }
      ],
      "name": "ECDSAInvalidSignatureLength",
      "type": "error"
    },
    {
      "inputs": [
        {
          "internalType": "bytes32",
          "name": "s",
          "type": "bytes32"
        }
      ],
      "name": "ECDSAInvalidSignatureS",
      "type": "error"
    },
    {
      "inputs": [],
      "name": "InvalidShortString",
      "type": "error"
    },
    {
      "inputs": [
        {
          "internalType": "string",
          "name": "str",
          "type": "string"
        }
      ],
      "name": "StringTooLong",
      "type": "error"
    },
    {
      "anonymous": false,
      "inputs": [],
      "name": "EIP712DomainChanged",
      "type": "event"
    },
    {
      "anonymous": false,
      "inputs": [
        {
          "indexed": true,
          "internalType": "uint256",
          "name": "section",
          "type": "uint256"
        },
        {
          "indexed": false,
          "internalType": "string",
          "name": "title",
          "type": "string"
        },
        {
          "indexed": false,
          "internalType": "uint256",
          "name": "cycle",
          "type": "uint256"
        }
      ],
      "name": "ExhibitLatched",
      "type": "event"
    },
    {
      "anonymous": false,
      "inputs": [
        {
          "indexed": false,
          "internalType": "string",
          "name": "message",
          "type": "string"
        },
        {
          "indexed": false,
          "internalType": "bytes32",
          "name": "merkleroot",
          "type": "bytes32"
        }
      ],
      "name": "FinalitySealed",
      "type": "event"
    },
    {
      "anonymous": false,
      "inputs": [
        {
          "indexed": true,
          "internalType": "bytes32",
          "name": "role",
          "type": "bytes32"
        },
        {
          "indexed": true,
          "internalType": "bytes32",
          "name": "previousAdminRole",
          "type": "bytes32"
        },
        {
          "indexed": true,
          "internalType": "bytes32",
          "name": "newAdminRole",
          "type": "bytes32"
        }
      ],
      "name": "RoleAdminChanged",
      "type": "event"
    },
    {
      "anonymous": false,
      "inputs": [
        {
          "indexed": true,
          "internalType": "bytes32",
          "name": "role",
          "type": "bytes32"
        },
        {
          "indexed": true,
          "internalType": "address",
          "name": "account",
          "type": "address"
        },
        {
          "indexed": true,
          "internalType": "address",
          "name": "sender",
          "type": "address"
        }
      ],
      "name": "RoleGranted",
      "type": "event"
    },
    {
      "anonymous": false,
      "inputs": [
        {
          "indexed": true,
          "internalType": "bytes32",
          "name": "role",
          "type": "bytes32"
        },
        {
          "indexed": true,
          "internalType": "address",
          "name": "account",
          "type": "address"
        },
        {
          "indexed": true,
          "internalType": "address",
          "name": "sender",
          "type": "address"
        }
      ],
      "name": "RoleRevoked",
      "type": "event"
    },
    {
      "inputs": [],
      "name": "DEFAULT_ADMIN_ROLE",
      "outputs": [
        {
          "internalType": "bytes32",
          "name": "",
          "type": "bytes32"
        }
      ],
      "stateMutability": "view",
      "type": "function"
    },
    {
      "inputs": [],
      "name": "MERKLEROOT_SAINT_PAUL",
      "outputs": [
        {
          "internalType": "bytes32",
          "name": "",
          "type": "bytes32"
        }
      ],
      "stateMutability": "view",
      "type": "function"
    },
    {
      "inputs": [],
      "name": "SOVEREIGN_AUDITOR_ROLE",
      "outputs": [
        {
          "internalType": "bytes32",
          "name": "",
          "type": "bytes32"
        }
      ],
      "stateMutability": "view",
      "type": "function"
    },
    {
      "inputs": [],
      "name": "SYSTEM_FINALITY",
      "outputs": [
        {
          "internalType": "string",
          "name": "",
          "type": "string"
        }
      ],
      "stateMutability": "view",
      "type": "function"
    },
    {
      "inputs": [],
      "name": "TRUTH_CYCLE_MS",
      "outputs": [
        {
          "internalType": "uint256",
          "name": "",
          "type": "uint256"
        }
      ],
      "stateMutability": "view",
      "type": "function"
    },
    {
      "inputs": [
        {
          "internalType": "uint256",
          "name": "section",
          "type": "uint256"
        }
      ],
      "name": "checkExhibitState",
      "outputs": [
        {
          "components": [
            {
              "internalType": "string",
              "name": "sectionTitle",
              "type": "string"
            },
            {
              "internalType": "string",
              "name": "contentHash",
              "type": "string"
            },
            {
              "internalType": "uint256",
              "name": "truthCycle",
              "type": "uint256"
            },
            {
              "internalType": "bool",
              "name": "latched",
              "type": "bool"
            }
          ],
          "internalType": "struct ValoraiplusSovereignScript.PresentationExhibit",
          "name": "",
          "type": "tuple"
        }
      ],
      "stateMutability": "view",
      "type": "function"
    },
    {
      "inputs": [],
      "name": "eip712Domain",
      "outputs": [
        {
          "internalType": "bytes1",
          "name": "fields",
          "type": "bytes1"
        },
        {
          "internalType": "string",
          "name": "name",
          "type": "string"
        },
        {
          "internalType": "string",
          "name": "version",
          "type": "string"
        },
        {
          "internalType": "uint256",
          "name": "chainId",
          "type": "uint256"
        },
        {
          "internalType": "address",
          "name": "verifyingContract",
          "type": "address"
        },
        {
          "internalType": "bytes32",
          "name": "salt",
          "type": "bytes32"
        },
        {
          "internalType": "uint256[]",
          "name": "extensions",
          "type": "uint256[]"
        }
      ],
      "stateMutability": "view",
      "type": "function"
    },
    {
      "inputs": [],
      "name": "getAestheticManifest",
      "outputs": [
        {
          "internalType": "string",
          "name": "",
          "type": "string"
        }
      ],
      "stateMutability": "pure",
      "type": "function"
    },
    {
      "inputs": [],
      "name": "getEngineManifest",
      "outputs": [
        {
          "internalType": "string",
          "name": "",
          "type": "string"
        }
      ],
      "stateMutability": "pure",
      "type": "function"
    },
    {
      "inputs": [],
      "name": "getEvidenceManifest",
      "outputs": [
        {
          "internalType": "string",
          "name": "",
          "type": "string"
        }
      ],
      "stateMutability": "pure",
      "type": "function"
    },
    {
      "inputs": [],
      "name": "getFinalityManifest",
      "outputs": [
        {
          "internalType": "string",
          "name": "",
          "type": "string"
        }
      ],
      "stateMutability": "pure",
      "type": "function"
    },
    {
      "inputs": [],
      "name": "getIntroManifest",
      "outputs": [
        {
          "internalType": "string",
          "name": "",
          "type": "string"
        }
      ],
      "stateMutability": "pure",
      "type": "function"
    },
    {
      "inputs": [
        {
          "internalType": "bytes32",
          "name": "role",
          "type": "bytes32"
        }
      ],
      "name": "getRoleAdmin",
      "outputs": [
        {
          "internalType": "bytes32",
          "name": "",
          "type": "bytes32"
        }
      ],
      "stateMutability": "view",
      "type": "function"
    },
    {
      "inputs": [
        {
          "internalType": "bytes32",
          "name": "role",
          "type": "bytes32"
        },
        {
          "internalType": "address",
          "name": "account",
          "type": "address"
        }
      ],
      "name": "grantRole",
      "outputs": [],
      "stateMutability": "nonpayable",
      "type": "function"
    },
    {
      "inputs": [
        {
          "internalType": "bytes32",
          "name": "role",
          "type": "bytes32"
        },
        {
          "internalType": "address",
          "name": "account",
          "type": "address"
        }
      ],
      "name": "hasRole",
      "outputs": [
        {
          "internalType": "bool",
          "name": "",
          "type": "bool"
        }
      ],
      "stateMutability": "view",
      "type": "function"
    },
    {
      "inputs": [
        {
          "internalType": "uint256",
          "name": "sectionIndex",
          "type": "uint256"
        },
        {
          "internalType": "string",
          "name": "logicHash",
          "type": "string"
        },
        {
          "internalType": "uint256",
          "name": "cycle",
          "type": "uint256"
        },
        {
          "internalType": "bytes",
          "name": "signature",
          "type": "bytes"
        }
      ],
      "name": "latchPresentationStep",
      "outputs": [],
      "stateMutability": "nonpayable",
      "type": "function"
    },
    {
      "inputs": [
        {
          "internalType": "bytes32",
          "name": "role",
          "type": "bytes32"
        },
        {
          "internalType": "address",
          "name": "callerConfirmation",
          "type": "address"
        }
      ],
      "name": "renounceRole",
      "outputs": [],
      "stateMutability": "nonpayable",
      "type": "function"
    },
    {
      "inputs": [
        {
          "internalType": "bytes32",
          "name": "role",
          "type": "bytes32"
        },
        {
          "internalType": "address",
          "name": "account",
          "type": "address"
        }
      ],
      "name": "revokeRole",
      "outputs": [],
      "stateMutability": "nonpayable",
      "type": "function"
    },
    {
      "inputs": [],
      "name": "sealProjectCinema",
      "outputs": [],
      "stateMutability": "nonpayable",
      "type": "function"
    },
    {
      "inputs": [
        {
          "internalType": "bytes4",
          "name": "interfaceId",
          "type": "bytes4"
        }
      ],
      "name": "supportsInterface",
      "outputs": [
        {
          "internalType": "bool",
          "name": "",
          "type": "bool"
        }
      ],
      "stateMutability": "view",
      "type": "function"
    }
  ],
  "bytecode": "0x610160806040523461017757602081611bc58038038091610020828561017b565b83398101031261017757516001600160a01b0381168103610177576101259060405161004d60408261017b565b600b815260208101906a56414c4f524149504c555360a81b82526040519161007660408461017b565b600883526020830191670c4b8d0b8c4c0c1160c21b8352610096816102bb565b610120526100a384610456565b61014052519020918260e05251902080610100524660a0526040519060208201927f8b73c3c69bb8fe3d512ecc4cf759cc79239f7b179b0ffacaa9a75d522b39400f8452604083015260608201524660808201523060a082015260a0815261010c60c08261017b565b5190206080523060c05261011f816101b2565b50610228565b506040516115d6908161058f8239608051816112ef015260a051816113ac015260c051816112b9015260e0518161133e01526101005181611364015261012051816104e7015261014051816105100152f35b5f80fd5b601f909101601f19168101906001600160401b0382119082101761019e57604052565b634e487b7160e01b5f52604160045260245ffd5b6001600160a01b0381165f9081525f80516020611ba5833981519152602052604090205460ff16610223576001600160a01b03165f8181525f80516020611ba583398151915260205260408120805460ff191660011790553391905f80516020611b658339815191528180a4600190565b505f90565b6001600160a01b0381165f9081525f80516020611b85833981519152602052604090205460ff16610223576001600160a01b03165f8181525f80516020611b8583398151915260205260408120805460ff191660011790553391907fdc098cd1989ccacdabd2c59b83c6eb4d7c6ea678492ce8642a15a791c6a13c6a905f80516020611b658339815191529080a4600190565b908151602081105f14610335575090601f8151116102f55760208151910151602082106102e6571790565b5f198260200360031b1b161790565b604460209160405192839163305a27a960e01b83528160048401528051918291826024860152018484015e5f828201840152601f01601f19168101030190fd5b6001600160401b03811161019e57600154600181811c9116801561044c575b602082101461043857601f8111610405575b50602092601f82116001146103a457928192935f92610399575b50508160011b915f199060031b1c19161760015560ff90565b015190505f80610380565b601f1982169360015f52805f20915f5b8681106103ed57508360019596106103d5575b505050811b0160015560ff90565b01515f1960f88460031b161c191690555f80806103c7565b919260206001819286850151815501940192016103b4565b60015f52601f60205f20910160051c810190601f830160051c015b81811061042d5750610366565b5f8155600101610420565b634e487b7160e01b5f52602260045260245ffd5b90607f1690610354565b908151602081105f14610481575090601f8151116102f55760208151910151602082106102e6571790565b6001600160401b03811161019e57600254600181811c91168015610584575b602082101461043857601f8111610551575b50602092601f82116001146104f057928192935f926104e5575b50508160011b915f199060031b1c19161760025560ff90565b015190505f806104cc565b601f1982169360025f52805f20915f5b8681106105395750836001959610610521575b505050811b0160025560ff90565b01515f1960f88460031b161c191690555f8080610513565b91926020600181928685015181550194019201610500565b60025f52601f60205f20910160051c810190601f830160051c015b81811061057957506104b2565b5f815560010161056c565b90607f16906104a056fe6080806040526004361015610012575f80fd5b5f3560e01c90816301ffc9a714610f6e575080632279238014610e8b578063248a9ca314610e595780632afe144b146109215780632f2ff15d146108f257806336568abe146108bc57806351dbc1b0146107d55780636e563641146106e957806375e233d2146106af5780637f51f618146105c757806384b0196e146104cf5780638913727b1461040657806391d14854146103cb578063a0d5404e146102e4578063a217fddf146102ca578063a2b54f56146102ae578063b029f3041461027d578063d547741f14610247578063db790b79146101505763f95c0344146100f8575f80fd5b3461014c575f36600319011261014c57610148604051610119604082611055565b600e81526d313031303130203130313031303160901b6020820152604051918291602083526020830190610fc1565b0390f35b5f80fd5b3461014c575f36600319011261014c5761014860405161017160c082611055565b609981527f4e61766965722d53746f6b6573204c616d696e617220466c6f7720456e67696e60208201527f652e20536970686f6e696e6720696e737469747574696f6e616c20667269637460408201527f696f6e2e20436f6e76657274696e672074757262756c656e636520696e746f2060608201527f4c616d696e6172205265636f766572792e204d6167656e74612072657072657360808201527f656e747320536f7665726569676e20417574686f726974792e0000000000000060a0820152604051918291602083526020830190610fc1565b3461014c5761027b61025836611013565b90610276610271825f525f602052600160405f20015490565b611176565b611236565b005b3461014c575f36600319011261014c576040517226856b24c50750f0c69c1eeb86a69ef777777760681b8152602090f35b3461014c575f36600319011261014c57602060405161010a8152f35b3461014c575f36600319011261014c5760206040515f8152f35b3461014c575f36600319011261014c5761014860405161030560c082611055565b608d81527f312e20496e74656e74206173205072696d69746976652e20322e2054656d706f60208201527f72616c20456e74726f70792040203236366d732e20332e20416476657273617260408201527f696573204e756c6c69666965642028303030303030292e20342e205369676e6560608201527f72204c696e6561676520417474726962757461626c652e204e4f20455849542e60808201526c102727902222a622aa24a7a71760991b60a0820152604051918291602083526020830190610fc1565b3461014c576103d936611013565b905f525f60205260405f209060018060a01b03165f52602052602060ff60405f2054166040519015158152f35b3461014c575f36600319011261014c5761014860405161042760a082611055565b607581527f526561642d5369646520547275746820506c616e652e2056657269666965642060208201527f526563656970742076312e20465245203930322f313320436f6d706c69616e6360408201527f652e20496d6d757461626c652070726f6f66206f662074686520243530382c3660608201527419989618181a971a99103932b9b7b63aba34b7b71760591b6080820152604051918291602083526020830190610fc1565b3461014c575f36600319011261014c5761056b61050b7f0000000000000000000000000000000000000000000000000000000000000000611480565b6105347f00000000000000000000000000000000000000000000000000000000000000006114dc565b6020610579604051926105478385611055565b5f84525f368137604051958695600f60f81b875260e08588015260e0870190610fc1565b908582036040870152610fc1565b4660608501523060808501525f60a085015283810360c08501528180845192838152019301915f5b8281106105b057505050500390f35b8351855286955093810193928101926001016105a1565b3461014c575f36600319011261014c576101486040516105e860c082611055565b608e81527f4f7065726174696e672061742061202747686f737427206672657175656e637960208201527f2c207765206d61696e7461696e2061203236366d732054727574682d4379636c60408201527f652e2054727574682069732061206d617468656d61746963616c20667265717560608201527f656e63792e2053796e6368726f6e697a65642077697468205361696e7420506160808201526d3ab6102737b232901a9a98989b1760911b60a0820152604051918291602083526020830190610fc1565b3461014c575f36600319011261014c5760206040517fdc098cd1989ccacdabd2c59b83c6eb4d7c6ea678492ce8642a15a791c6a13c6a8152f35b3461014c575f36600319011261014c57335f9081527fad3228b676f7d3cd4284a5443f17f1962b36e491b30a40b2405849e597ba5fb5602052604090205460ff16156107be577ff40aea82c4c6644a3ea8b0fe979ff7925ba9d8b9024ab7d36d18f1847ff5846a60a060405160408152603060408201527f444737372e373758204c4f434b45442e205448452057414c4c2049532043485260608201526f24a9aa171029a6a4a1171020a6a2a71760811b60808201527226856b24c50750f0c69c1eeb86a69ef777777760681b6020820152a1005b63e2517d3f60e01b5f52336004525f60245260445ffd5b3461014c57602036600319011261014c575f60606040516107f581611039565b81815281602082015282604082015201526004355f52600360205261089660405f206040519061082482611039565b60405161083c8161083581856110f5565b0382611055565b82526040516108528161083581600186016110f5565b602083019081526108a960ff6003600285015494604087019586520154169160608501921515835260405195869560208752516080602088015260a0870190610fc1565b9051858203601f19016040870152610fc1565b9151606084015251151560808301520390f35b3461014c576108ca36611013565b336001600160a01b038216036108e35761027b91611236565b63334bd91960e11b5f5260045ffd5b3461014c5761027b61090336611013565b9061091c610271825f525f602052600160405f20015490565b6111ae565b3461014c57608036600319011261014c5760043560243567ffffffffffffffff811161014c57610955903690600401610fe5565b906044359060643567ffffffffffffffff811161014c5761097a903690600401610fe5565b335f9081527f76fd847752f6fc304478ba13324c346f9f9f330e6cebd80aca08a3af268405de602052604090205490919060ff1615610e2257610a5791610a48610a4e9260426109cb368a89611077565b6020815191012060405160208101917f94141b0cb46fd1928e097a50ddb34e8ffe12e4f15655329100c0f2543b00c5e083528c6040830152606082015289608082015260808152610a1d60a082611055565b519020610a286112b6565b906040519161190160f01b83526002830152602282015220923691611077565b906113d2565b9092919261140c565b6001600160a01b03165f9081527f76fd847752f6fc304478ba13324c346f9f9f330e6cebd80aca08a3af268405de602052604090205460ff1615610ddd57610ae760405191610aa583611039565b6040948551610ab48782611055565b601881527f534f5645524549474e5f455848494249545f4d4f44554c450000000000000000602082015284523691611077565b9060208101918252838101838152606082019260018452865f526003602052855f20925180519067ffffffffffffffff8211610d0b578190610b2986546110bd565b601f8111610d8d575b50602090601f8311600114610d2a575f92610d1f575b50508160011b915f199060031b1c19161783555b518051600184019167ffffffffffffffff8211610d0b57610b7d83546110bd565b601f8111610cc6575b50602090601f8311600114610c3957928260809896937fe6b16adb8696d9f987456ca41b259bcfad4d63ecd4b451f4a182238450e06fd69a9896936003965f92610c2e575b50508160011b915f1990871b1c19161790555b516002820155019051151560ff80198354169116179055601d8251928084528301527f534f5645524549474e5f50524553454e544154494f4e5f53435249505400000060608301526020820152a2005b015190508c80610bcb565b90601f19831691845f52815f20925f5b818110610cae5750937fe6b16adb8696d9f987456ca41b259bcfad4d63ecd4b451f4a182238450e06fd69a989693600396936001938360809d9b9810610c97575b505050811b019055610bde565b01515f1983891b60f8161c191690558c8080610c8a565b92936020600181928786015181550195019301610c49565b835f5260205f20601f840160051c81019160208510610d01575b601f0160051c01905b818110610cf65750610b86565b5f8155600101610ce9565b9091508190610ce0565b634e487b7160e01b5f52604160045260245ffd5b015190508980610b48565b5f8781528281209350601f198516905b818110610d755750908460019594939210610d5d575b505050811b018355610b5c565b01515f1960f88460031b161c19169055898080610d50565b92936020600181928786015181550195019301610d3a565b909150855f5260205f20601f840160051c81019160208510610dd3575b90601f859493920160051c01905b818110610dc55750610b32565b5f8155849350600101610db8565b9091508190610daa565b60405162461bcd60e51b815260206004820152601e60248201527f5641503a20556e617574686f72697a6564204c6174636820496e74656e7400006044820152606490fd5b63e2517d3f60e01b5f52336004527fdc098cd1989ccacdabd2c59b83c6eb4d7c6ea678492ce8642a15a791c6a13c6a60245260445ffd5b3461014c57602036600319011261014c576020610e836004355f525f602052600160405f20015490565b604051908152f35b3461014c575f36600319011261014c57610148604051610eac60c082611055565b608981527f417574686f726974792069732061205369676e65642041727469666163742c2060208201527f6e6f74206120736964652d6566666563742e205573696e67204549502d37313260408201527f20537472756374757265642044617461205369676e696e672e2056616c69646160608201527f74656420496e74656e7420696e646570656e64656e74206f66206465766963656080820152681037b9103737b2329760b91b60a0820152604051918291602083526020830190610fc1565b3461014c57602036600319011261014c576004359063ffffffff60e01b821680920361014c57602091637965db0b60e01b8114908115610fb0575b5015158152f35b6301ffc9a760e01b14905083610fa9565b805180835260209291819084018484015e5f828201840152601f01601f1916010190565b9181601f8401121561014c5782359167ffffffffffffffff831161014c576020838186019501011161014c57565b604090600319011261014c57600435906024356001600160a01b038116810361014c5790565b6080810190811067ffffffffffffffff821117610d0b57604052565b90601f8019910116810190811067ffffffffffffffff821117610d0b57604052565b92919267ffffffffffffffff8211610d0b57604051916110a1601f8201601f191660200184611055565b82948184528183011161014c578281602093845f960137010152565b90600182811c921680156110eb575b60208310146110d757565b634e487b7160e01b5f52602260045260245ffd5b91607f16916110cc565b5f9291815491611104836110bd565b8083529260018116908115611159575060011461112057505050565b5f9081526020812093945091925b83831061113f575060209250010190565b60018160209294939454838587010152019101919061112e565b915050602093945060ff929192191683830152151560051b010190565b5f8181526020818152604080832033845290915290205460ff16156111985750565b63e2517d3f60e01b5f523360045260245260445ffd5b5f818152602081815260408083206001600160a01b038616845290915290205460ff16611230575f818152602081815260408083206001600160a01b0395909516808452949091528120805460ff19166001179055339291907f2f8788117e7eff1d82e926ec794901d17c78024a50270940304540a733656f0d9080a4600190565b50505f90565b5f818152602081815260408083206001600160a01b038616845290915290205460ff1615611230575f818152602081815260408083206001600160a01b0395909516808452949091528120805460ff19169055339291907ff6391f5c32d9c69d2a47ea670b442974b53935d1edc7fd64eb21e047a839171b9080a4600190565b307f00000000000000000000000000000000000000000000000000000000000000006001600160a01b031614806113a9575b15611311577f000000000000000000000000000000000000000000000000000000000000000090565b60405160208101907f8b73c3c69bb8fe3d512ecc4cf759cc79239f7b179b0ffacaa9a75d522b39400f82527f000000000000000000000000000000000000000000000000000000000000000060408201527f000000000000000000000000000000000000000000000000000000000000000060608201524660808201523060a082015260a081526113a360c082611055565b51902090565b507f000000000000000000000000000000000000000000000000000000000000000046146112e8565b8151919060418303611402576113fb9250602082015190606060408401519301515f1a90611513565b9192909190565b50505f9160029190565b600481101561146c578061141e575050565b600181036114355763f645eedf60e01b5f5260045ffd5b60028103611450575063fce698f760e01b5f5260045260245ffd5b60031461145a5750565b6335e2f38360e21b5f5260045260245ffd5b634e487b7160e01b5f52602160045260245ffd5b60ff81146114c65760ff811690601f82116114b757604051916114a4604084611055565b6020808452838101919036833783525290565b632cd44ac360e21b5f5260045ffd5b506040516114d9816108358160016110f5565b90565b60ff81146115005760ff811690601f82116114b757604051916114a4604084611055565b506040516114d9816108358160026110f5565b91907f7fffffffffffffffffffffffffffffff5d576e7357a4501ddfe92f46681b20a08411611595579160209360809260ff5f9560405194855216868401526040830152606082015282805260015afa1561158a575f516001600160a01b0381161561158057905f905f90565b505f906001905f90565b6040513d5f823e3d90fd5b5050505f916003919056fea264697066735822122055f4f228018eef290f51d1b0fc9cb7cc15acebe58033cf74575ada35c26f77e964736f6c634300081a00332f8788117e7eff1d82e926ec794901d17c78024a50270940304540a733656f0d76fd847752f6fc304478ba13324c346f9f9f330e6cebd80aca08a3af268405dead3228b676f7d3cd4284a5443f17f1962b36e491b30a40b2405849e597ba5fb5",
  "linkReferences": {},
  "deployedLinkReferences": {}
}