{
  "_format": "hh-sol-artifact-1",
  "contractName": "EpistemicLedger",
  "sourceName": "contracts/EpistemicLedger.sol",
  "abi": [
    {
      "inputs": [],
      "stateMutability": "nonpayable",
      "type": "constructor"
    },
    {
      "anonymous": false,
      "inputs": [
        {
          "indexed": false,
          "internalType": "string",
          "name": "proofId",
          "type": "string"
        },
        {
          "indexed": false,
          "internalType": "string",
          "name": "contentHash",
          "type": "string"
        },
        {
          "indexed": false,
          "internalType": "uint256",
          "name": "timestamp",
          "type": "uint256"
        },
        {
          "indexed": false,
          "internalType": "address",
          "name": "submitter",
          "type": "address"
        }
      ],
      "name": "AnchorAdded",
      "type": "event"
    },
    {
      "anonymous": false,
      "inputs": [
        {
          "indexed": false,
          "internalType": "string",
          "name": "evidenceId",
          "type": "string"
        },
        {
          "indexed": false,
          "internalType": "string",
          "name": "sourceHash",
          "type": "string"
        },
        {
          "indexed": false,
          "internalType": "uint256",
          "name": "timestamp",
          "type": "uint256"
        },
        {
          "indexed": false,
          "internalType": "address",
          "name": "recorder",
          "type": "address"
        }
      ],
      "name": "EvidenceRecorded",
      "type": "event"
    },
    {
      "anonymous": false,
      "inputs": [
        {
          "indexed": false,
          "internalType": "string",
          "name": "ruleId",
          "type": "string"
        },
        {
          "indexed": false,
          "internalType": "string",
          "name": "name",
          "type": "string"
        },
        {
          "indexed": false,
          "internalType": "bool",
          "name": "active",
          "type": "bool"
        }
      ],
      "name": "GovernanceRuleUpdated",
      "type": "event"
    },
    {
      "anonymous": false,
      "inputs": [
        {
          "indexed": false,
          "internalType": "uint256",
          "name": "validatorCount",
          "type": "uint256"
        },
        {
          "indexed": false,
          "internalType": "uint256",
          "name": "timestamp",
          "type": "uint256"
        }
      ],
      "name": "ValidatorConsensusReached",
      "type": "event"
    },
    {
      "inputs": [
        {
          "internalType": "string",
          "name": "proofId",
          "type": "string"
        },
        {
          "internalType": "string",
          "name": "contentHash",
          "type": "string"
        }
      ],
      "name": "addAnchor",
      "outputs": [],
      "stateMutability": "nonpayable",
      "type": "function"
    },
    {
      "inputs": [
        {
          "internalType": "uint256",
          "name": "",
          "type": "uint256"
        }
      ],
      "name": "anchors",
      "outputs": [
        {
          "internalType": "string",
          "name": "proofId",
          "type": "string"
        },
        {
          "internalType": "string",
          "name": "contentHash",
          "type": "string"
        },
        {
          "internalType": "uint256",
          "name": "timestamp",
          "type": "uint256"
        },
        {
          "internalType": "address",
          "name": "submitter",
          "type": "address"
        },
        {
          "internalType": "bool",
          "name": "verified",
          "type": "bool"
        }
      ],
      "stateMutability": "view",
      "type": "function"
    },
    {
      "inputs": [],
      "name": "currentValidatorCount",
      "outputs": [
        {
          "internalType": "uint256",
          "name": "",
          "type": "uint256"
        }
      ],
      "stateMutability": "view",
      "type": "function"
    },
    {
      "inputs": [
        {
          "internalType": "uint256",
          "name": "",
          "type": "uint256"
        }
      ],
      "name": "evidence",
      "outputs": [
        {
          "internalType": "string",
          "name": "evidenceId",
          "type": "string"
        },
        {
          "internalType": "string",
          "name": "sourceHash",
          "type": "string"
        },
        {
          "internalType": "uint256",
          "name": "timestamp",
          "type": "uint256"
        },
        {
          "internalType": "address",
          "name": "recorder",
          "type": "address"
        }
      ],
      "stateMutability": "view",
      "type": "function"
    },
    {
      "inputs": [
        {
          "internalType": "string",
          "name": "",
          "type": "string"
        }
      ],
      "name": "evidenceExists",
      "outputs": [
        {
          "internalType": "bool",
          "name": "",
          "type": "bool"
        }
      ],
      "stateMutability": "view",
      "type": "function"
    },
    {
      "inputs": [],
      "name": "getAnchorCount",
      "outputs": [
        {
          "internalType": "uint256",
          "name": "",
          "type": "uint256"
        }
      ],
      "stateMutability": "view",
      "type": "function"
    },
    {
      "inputs": [],
      "name": "getEvidenceCount",
      "outputs": [
        {
          "internalType": "uint256",
          "name": "",
          "type": "uint256"
        }
      ],
      "stateMutability": "view",
      "type": "function"
    },
    {
      "inputs": [
        {
          "internalType": "string",
          "name": "",
          "type": "string"
        }
      ],
      "name": "governanceRules",
      "outputs": [
        {
          "internalType": "string",
          "name": "ruleId",
          "type": "string"
        },
        {
          "internalType": "string",
          "name": "name",
          "type": "string"
        },
        {
          "internalType": "bool",
          "name": "active",
          "type": "bool"
        },
        {
          "internalType": "uint256",
          "name": "lastUpdated",
          "type": "uint256"
        }
      ],
      "stateMutability": "view",
      "type": "function"
    },
    {
      "inputs": [],
      "name": "hasValidatorConsensus",
      "outputs": [
        {
          "internalType": "bool",
          "name": "",
          "type": "bool"
        }
      ],
      "stateMutability": "view",
      "type": "function"
    },
    {
      "inputs": [
        {
          "internalType": "string",
          "name": "",
          "type": "string"
        }
      ],
      "name": "proofExists",
      "outputs": [
        {
          "internalType": "bool",
          "name": "",
          "type": "bool"
        }
      ],
      "stateMutability": "view",
      "type": "function"
    },
    {
      "inputs": [
        {
          "internalType": "string",
          "name": "evidenceId",
          "type": "string"
        },
        {
          "internalType": "string",
          "name": "sourceHash",
          "type": "string"
        }
      ],
      "name": "recordEvidence",
      "outputs": [],
      "stateMutability": "nonpayable",
      "type": "function"
    },
    {
      "inputs": [
        {
          "internalType": "uint256",
          "name": "validatorCount",
          "type": "uint256"
        }
      ],
      "name": "registerValidatorConsensus",
      "outputs": [],
      "stateMutability": "nonpayable",
      "type": "function"
    },
    {
      "inputs": [],
      "name": "sovereign",
      "outputs": [
        {
          "internalType": "address",
          "name": "",
          "type": "address"
        }
      ],
      "stateMutability": "view",
      "type": "function"
    },
    {
      "inputs": [
        {
          "internalType": "address",
          "name": "newSovereign",
          "type": "address"
        }
      ],
      "name": "transferSovereignty",
      "outputs": [],
      "stateMutability": "nonpayable",
      "type": "function"
    },
    {
      "inputs": [
        {
          "internalType": "string",
          "name": "ruleId",
          "type": "string"
        },
        {
          "internalType": "string",
          "name": "name",
          "type": "string"
        },
        {
          "internalType": "bool",
          "name": "active",
          "type": "bool"
        }
      ],
      "name": "updateGovernanceRule",
      "outputs": [],
      "stateMutability": "nonpayable",
      "type": "function"
    },
    {
      "inputs": [],
      "name": "validatorConsensusTarget",
      "outputs": [
        {
          "internalType": "uint256",
          "name": "",
          "type": "uint256"
        }
      ],
      "stateMutability": "view",
      "type": "function"
    },
    {
      "inputs": [
        {
          "internalType": "uint256",
          "name": "index",
          "type": "uint256"
        }
      ],
      "name": "verifyProof",
      "outputs": [],
      "stateMutability": "nonpayable",
      "type": "function"
    }
  ],
  "bytecode": "0x6080806040523460325762023280600655600580546001600160a01b031916331790555f60075561133990816100378239f35b5f80fdfe60806040526004361015610011575f80fd5b5f3560e01c806301df11a514610f9b5780632c25bb0d14610f73578063368b733e14610edb578063376dd3b114610e765780633eec74c114610e1c57806342300c7314610d845780635de36dee14610d1957806379c7c80614610cbf5780638b6958ff14610c315780639b9ea5c91461088b5780639d75d7d714610869578063b8d444871461084c578063b9ac1b911461082f578063c785c3fc146104c2578063cb46cb5d14610111578063d3182bed146100f55763d755d36f146100d4575f80fd5b346100f1575f3660031901126100f1576020600754604051908152f35b5f80fd5b346100f1575f3660031901126100f15760205f54604051908152f35b346100f15761011f3661126a565b6040519160ff815193602081818501968088835e81016004815203019020541661047d576040519261015084611043565b8184526020840193838552604081014281526060820190338252600154600160401b81101561039857806001610189920160015561121c565b93909361046a57518051906001600160401b0382116103985781906101ae86546110d4565b601f811161041a575b50602090601f83116001146103b7575f926103ac575b50508160011b915f199060031b1c19161783555b6001830196519687516001600160401b0381116103985761020282546110d4565b601f8111610353575b506020601f82116001146102cc5790806003959493927fba0915031e51fa52262b284144138c7540e10abec3a0938bde7f4f1b9f69658e9b5f926102c1575b50508160011b915f1990871b1c19161790555b51600284015551910180546001600160a01b0319166001600160a01b03929092169190911790556040518251909160209183918190835e81016004815203019020600160ff198254161790556102bc6040519283923391429185611238565b0390a1005b015190508b8061024a565b601f19821699835f52815f209a5f5b81811061033b57509a60019284926003989796957fba0915031e51fa52262b284144138c7540e10abec3a0938bde7f4f1b9f69658e9e10610324575b505050811b01905561025d565b01515f1983891b60f8161c191690558b8080610317565b838301518d556001909c019b602093840193016102db565b825f5260205f20601f830160051c8101916020841061038e575b601f0160051c01905b818110610383575061020b565b5f8155600101610376565b909150819061036d565b634e487b7160e01b5f52604160045260245ffd5b0151905089806101cd565b5f8781528281209350601f198516905b81811061040257509084600195949392106103ea575b505050811b0183556101e1565b01515f1960f88460031b161c191690558980806103dd565b929360206001819287860151815501950193016103c7565b909150855f5260205f20601f840160051c81019160208510610460575b90601f859493920160051c01905b81811061045257506101b7565b5f8155849350600101610445565b9091508190610437565b634e487b7160e01b5f525f60045260245ffd5b60405162461bcd60e51b815260206004820152601960248201527f45766964656e636520616c7265616479207265636f72646564000000000000006044820152606490fd5b346100f15760603660031901126100f1576004356001600160401b0381116100f1576104f290369060040161107f565b6024356001600160401b0381116100f15761051190369060040161107f565b906044358015158091036100f15761053460018060a01b036005541633146112b7565b6040519261054184611043565b8284526020840193818552604081018381526060820190428252604051602081885180838b01835e8101600281520301902092518051906001600160401b03821161039857819061059286546110d4565b601f81116107df575b50602090601f831160011461077c575f92610771575b50508160011b915f199060031b1c19161783555b6001830196519687516001600160401b038111610398576105e682546110d4565b601f811161072c575b506020601f821160011461069b5792600392826106779a9998969361068598967f6b689878b1625caf3e2d90231e282dabe4f4847f57280a24852f3081d22741f99d5f92610690575b50508160011b915f1990871b1c19161790555b600284019051151560ff80198354169116179055519101556040519485946060865260608601906111ac565b9084820360208601526111ac565b9060408301520390a1005b015190508d80610638565b601f19821699835f52815f209a5f5b8181106107145750837f6b689878b1625caf3e2d90231e282dabe4f4847f57280a24852f3081d22741f99c610685999794600397946106779e9d9c9a97600195106106fd575b505050811b01905561064b565b01515f1983891b60f8161c191690558d80806106f0565b838301518d556001909c019b602093840193016106aa565b825f5260205f20601f830160051c81019160208410610767575b601f0160051c01905b81811061075c57506105ef565b5f815560010161074f565b9091508190610746565b0151905089806105b1565b5f8781528281209350601f198516905b8181106107c757509084600195949392106107af575b505050811b0183556105c5565b01515f1960f88460031b161c191690558980806107a2565b9293602060018192878601518155019501930161078c565b909150855f5260205f20601f840160051c81019160208510610825575b90601f859493920160051c01905b818110610817575061059b565b5f815584935060010161080a565b90915081906107fc565b346100f1575f3660031901126100f1576020600654604051908152f35b346100f1575f3660031901126100f1576020600154604051908152f35b346100f1575f3660031901126100f15760206007546006541115604051908152f35b346100f1576108993661126a565b6040519160ff815193602081818501968088835e810160038152030190205416610bf3576040519260a084018481106001600160401b0382111761039857604052818452602084019383855260408101428152606082019133835260808101915f83525f54600160401b8110156103985780600161091992015f556111d0565b92909261046a57518051906001600160401b03821161039857819061093e85546110d4565b601f8111610ba3575b50602090601f8311600114610b40575f92610b35575b50508160011b915f199060031b1c19161782555b6001820197519788516001600160401b0381116103985761099282546110d4565b601f8111610af0575b506020601f8211600114610a695790806003959493927f972687af7385e8506a5a3aa9c8c1c918943b2db523868cb322fa855cd6f68aba9c5f92610a5e575b50508160011b915f1990871b1c19161790555b51600282015592519201805491516001600160a81b03199092166001600160a01b03939093169290921790151560a01b60ff60a01b161790556040518251909160209183918190835e81016003815203019020600160ff198254161790556102bc6040519283923391429185611238565b015190508c806109da565b601f1982169a835f52815f209b5f5b818110610ad857509b60019284926003989796957f972687af7385e8506a5a3aa9c8c1c918943b2db523868cb322fa855cd6f68aba9f10610ac1575b505050811b0190556109ed565b01515f1983891b60f8161c191690558c8080610ab4565b838301518e556001909d019c60209384019301610a78565b825f5260205f20601f830160051c81019160208410610b2b575b601f0160051c01905b818110610b20575061099b565b5f8155600101610b13565b9091508190610b0a565b015190508a8061095d565b5f8681528281209350601f198516905b818110610b8b5750908460019594939210610b73575b505050811b018255610971565b01515f1960f88460031b161c191690558a8080610b66565b92936020600181928786015181550195019301610b50565b909150845f5260205f20601f840160051c81019160208510610be9575b90601f859493920160051c01905b818110610bdb5750610947565b5f8155849350600101610bce565b9091508190610bc0565b60405162461bcd60e51b8152602060048201526016602482015275141c9bdbd988185b1c9958591e48185b98da1bdc995960521b6044820152606490fd5b346100f15760203660031901126100f157600435610c5a60018060a01b036005541633146112b7565b5f54811015610c8357610c6e6003916111d0565b5001805460ff60a01b1916600160a01b179055005b60405162461bcd60e51b8152602060048201526014602482015273092dcecc2d8d2c840c2dcc6d0dee440d2dcc8caf60631b6044820152606490fd5b346100f15760203660031901126100f1576004356001600160401b0381116100f15760ff602080610cf58194369060040161107f565b604051928184925191829101835e8101600381520301902054166040519015158152f35b346100f15760203660031901126100f157600435610d4260018060a01b036005541633146112b7565b80600755600654811015610d5257005b60407f8ed1581b8d118f159d57fd28f8ff44c48ea32344eb06619d8b57484af4b6ada6918151908152426020820152a1005b346100f15760203660031901126100f1576004356001600160a01b038116908190036100f157600554610dc1336001600160a01b038316146112b7565b8115610dd7576001600160a01b03191617600555005b60405162461bcd60e51b815260206004820152601960248201527f496e76616c696420736f7665726569676e2061646472657373000000000000006044820152606490fd5b346100f15760203660031901126100f1576004356001600160401b0381116100f15760ff602080610e528194369060040161107f565b604051928184925191829101835e8101600481520301902054166040519015158152f35b346100f15760203660031901126100f1576004356001548110156100f157610e9d9061121c565b50610ea78161110c565b610ed7610eb66001840161110c565b92600281015490600360018060a01b03910154169060405194859485611238565b0390f35b346100f15760203660031901126100f1576004355f548110156100f157610f04610f3f916111d0565b50610f0e8161110c565b9060ff610f1d6001830161110c565b610f4d600360028501549401549160405196879660a0885260a08801906111ac565b9086820360208801526111ac565b60408501939093526001600160a01b038116606085015260a01c16151560808301520390f35b346100f1575f3660031901126100f1576005546040516001600160a01b039091168152602090f35b346100f15760203660031901126100f1576004356001600160401b0381116100f157602080610fd161102493369060040161107f565b604051928184925191829101835e81016002815203019020610ff28161110c565b90610fff6001820161110c565b611032600360ff600285015416930154916040519586956080875260808701906111ac565b9085820360208701526111ac565b911515604084015260608301520390f35b608081019081106001600160401b0382111761039857604052565b90601f801991011681019081106001600160401b0382111761039857604052565b81601f820112156100f1578035906001600160401b03821161039857604051926110b3601f8401601f19166020018561105e565b828452602083830101116100f157815f926020809301838601378301015290565b90600182811c92168015611102575b60208310146110ee57565b634e487b7160e01b5f52602260045260245ffd5b91607f16916110e3565b9060405191825f82549261111f846110d4565b808452936001811690811561118a5750600114611146575b506111449250038361105e565b565b90505f9291925260205f20905f915b81831061116e575050906020611144928201015f611137565b6020919350806001915483858901015201910190918492611155565b90506020925061114494915060ff191682840152151560051b8201015f611137565b805180835260209291819084018484015e5f828201840152601f01601f1916010190565b5f54811015611208575f80805260029190911b7f290decd9548b62a8d60345a988386fc84ba6bc95484008f6362f93160ef3e5630191565b634e487b7160e01b5f52603260045260245ffd5b6001548110156112085760015f5260205f209060021b01905f90565b92949390606092611024611254926080875260808701906111ac565b60408401959095526001600160a01b0316910152565b9060406003198301126100f1576004356001600160401b0381116100f157826112959160040161107f565b91602435906001600160401b0382116100f1576112b49160040161107f565b90565b156112be57565b60405162461bcd60e51b815260206004820152601a60248201527f4f6e6c7920736f7665726569676e2063616e20657865637574650000000000006044820152606490fdfea2646970667358221220f8be6f265e4f81127918ce6b6150d6b3a9d8e11a72ba68031ff6a4a9187a710f64736f6c634300081a0033",
  "linkReferences": {},
  "deployedLinkReferences": {}
}