{
  "_format": "hh-sol-artifact-1",
  "contractName": "VALORAIPLUS_NULL_GHOST",
  "sourceName": "contracts/VALORAIPLUS_NULL_GHOST.sol",
  "abi": [
    {
      "inputs": [],
      "stateMutability": "nonpayable",
      "type": "constructor"
    },
    {
      "inputs": [],
      "name": "get_root",
      "outputs": [
        {
          "internalType": "bytes32",
          "name": "",
          "type": "bytes32"
        }
      ],
      "stateMutability": "pure",
      "type": "function"
    },
    {
      "inputs": [
        {
          "internalType": "bytes32",
          "name": "node_hash",
          "type": "bytes32"
        }
      ],
      "name": "verify_standing",
      "outputs": [
        {
          "internalType": "bytes32",
          "name": "status",
          "type": "bytes32"
        }
      ],
      "stateMutability": "view",
      "type": "function"
    }
  ],
  "bytecode": "0x60808060405234601657335f5560db9081601b8239f35b5f80fdfe608060405260043610156010575f80fd5b5f3560e01c8063a30c5f171460775763abb4808b14602c575f80fd5b3460735760203660031901126073577fbc3a567d2e8f1a4b9c0d2e4f6a8b0c2d4e6f8a0b2c4d6e8f0a2b4c6d8e0f1a2b60043514606e5760206040515f198152f35b60205ff35b5f80fd5b346073575f3660031901126073577226856b24c50750f0c69c1eeb86a69ef777777760681b60805260206080f3fea26469706673582212206d53e1fdd6ee6e81f6dbc25f935823a7d262d418785205b9da17c4f5b886f07764736f6c634300081a0033",
  "linkReferences": {},
  "deployedLinkReferences": {}
}