{
  "_format": "hh-sol-artifact-1",
  "contractName": "SGAU_VALUEGUARD_77_77X_FINALDEG",
  "sourceName": "contracts/SGAU-VALUEGUARD-77.77X-FINALDEG.sol",
  "abi": [
    {
      "inputs": [
        {
          "internalType": "address",
          "name": "_sovereignPoppa",
          "type": "address"
        }
      ],
      "stateMutability": "nonpayable",
      "type": "constructor"
    },
    {
      "inputs": [],
      "name": "AccessControlBadConfirmation",
      "type": "error"
    },
    {
      "inputs": [
        {
          "internalType": "address",
          "name": "account",
          "type": "address"
        },
        {
          "internalType": "bytes32",
          "name": "neededRole",
          "type": "bytes32"
        }
      ],
      "name": "AccessControlUnauthorizedAccount",
      "type": "error"
    },
    {
      "inputs": [],
      "name": "ReentrancyGuardReentrantCall",
      "type": "error"
    },
    {
      "anonymous": false,
      "inputs": [
        {
          "indexed": true,
          "internalType": "address",
          "name": "executor",
          "type": "address"
        },
        {
          "indexed": true,
          "internalType": "uint256",
          "name": "blockNumber",
          "type": "uint256"
        },
        {
          "indexed": false,
          "internalType": "string",
          "name": "status",
          "type": "string"
        }
      ],
      "name": "FinalDegreeExecuted",
      "type": "event"
    },
    {
      "anonymous": false,
      "inputs": [
        {
          "indexed": true,
          "internalType": "uint256",
          "name": "entryId",
          "type": "uint256"
        },
        {
          "indexed": false,
          "internalType": "string",
          "name": "entryType",
          "type": "string"
        },
        {
          "indexed": true,
          "internalType": "address",
          "name": "recorder",
          "type": "address"
        }
      ],
      "name": "ForensicEntryRecorded",
      "type": "event"
    },
    {
      "anonymous": false,
      "inputs": [
        {
          "indexed": true,
          "internalType": "uint256",
          "name": "timestamp",
          "type": "uint256"
        },
        {
          "indexed": false,
          "internalType": "string",
          "name": "ghostFrequency",
          "type": "string"
        },
        {
          "indexed": false,
          "internalType": "bool",
          "name": "christWallActive",
          "type": "bool"
        }
      ],
      "name": "HardeningConfirmed",
      "type": "event"
    },
    {
      "anonymous": false,
      "inputs": [
        {
          "indexed": true,
          "internalType": "address",
          "name": "protectedAddress",
          "type": "address"
        },
        {
          "indexed": false,
          "internalType": "string",
          "name": "label",
          "type": "string"
        }
      ],
      "name": "ProtectedAddressAdded",
      "type": "event"
    },
    {
      "anonymous": false,
      "inputs": [
        {
          "indexed": true,
          "internalType": "bytes32",
          "name": "role",
          "type": "bytes32"
        },
        {
          "indexed": true,
          "internalType": "bytes32",
          "name": "previousAdminRole",
          "type": "bytes32"
        },
        {
          "indexed": true,
          "internalType": "bytes32",
          "name": "newAdminRole",
          "type": "bytes32"
        }
      ],
      "name": "RoleAdminChanged",
      "type": "event"
    },
    {
      "anonymous": false,
      "inputs": [
        {
          "indexed": true,
          "internalType": "bytes32",
          "name": "role",
          "type": "bytes32"
        },
        {
          "indexed": true,
          "internalType": "address",
          "name": "account",
          "type": "address"
        },
        {
          "indexed": true,
          "internalType": "address",
          "name": "sender",
          "type": "address"
        }
      ],
      "name": "RoleGranted",
      "type": "event"
    },
    {
      "anonymous": false,
      "inputs": [
        {
          "indexed": true,
          "internalType": "bytes32",
          "name": "role",
          "type": "bytes32"
        },
        {
          "indexed": true,
          "internalType": "address",
          "name": "account",
          "type": "address"
        },
        {
          "indexed": true,
          "internalType": "address",
          "name": "sender",
          "type": "address"
        }
      ],
      "name": "RoleRevoked",
      "type": "event"
    },
    {
      "anonymous": false,
      "inputs": [
        {
          "indexed": true,
          "internalType": "uint256",
          "name": "timestamp",
          "type": "uint256"
        },
        {
          "indexed": false,
          "internalType": "uint256",
          "name": "shards",
          "type": "uint256"
        },
        {
          "indexed": false,
          "internalType": "uint256",
          "name": "agents",
          "type": "uint256"
        },
        {
          "indexed": false,
          "internalType": "string",
          "name": "result",
          "type": "string"
        }
      ],
      "name": "SimulationResultAnchored",
      "type": "event"
    },
    {
      "anonymous": false,
      "inputs": [
        {
          "indexed": true,
          "internalType": "uint256",
          "name": "timestamp",
          "type": "uint256"
        },
        {
          "indexed": false,
          "internalType": "uint256",
          "name": "shardConsensus",
          "type": "uint256"
        },
        {
          "indexed": false,
          "internalType": "uint256",
          "name": "agentConsensus",
          "type": "uint256"
        },
        {
          "indexed": false,
          "internalType": "string",
          "name": "merkleRoot",
          "type": "string"
        }
      ],
      "name": "TotalityReached",
      "type": "event"
    },
    {
      "inputs": [],
      "name": "AGENT_CONSENSUS",
      "outputs": [
        {
          "internalType": "uint256",
          "name": "",
          "type": "uint256"
        }
      ],
      "stateMutability": "view",
      "type": "function"
    },
    {
      "inputs": [],
      "name": "BTC_ANCHOR",
      "outputs": [
        {
          "internalType": "string",
          "name": "",
          "type": "string"
        }
      ],
      "stateMutability": "view",
      "type": "function"
    },
    {
      "inputs": [],
      "name": "DEFAULT_ADMIN_ROLE",
      "outputs": [
        {
          "internalType": "bytes32",
          "name": "",
          "type": "bytes32"
        }
      ],
      "stateMutability": "view",
      "type": "function"
    },
    {
      "inputs": [],
      "name": "DEPLOYMENT_BLOCK",
      "outputs": [
        {
          "internalType": "uint256",
          "name": "",
          "type": "uint256"
        }
      ],
      "stateMutability": "view",
      "type": "function"
    },
    {
      "inputs": [],
      "name": "DEPLOYMENT_TIMESTAMP",
      "outputs": [
        {
          "internalType": "uint256",
          "name": "",
          "type": "uint256"
        }
      ],
      "stateMutability": "view",
      "type": "function"
    },
    {
      "inputs": [],
      "name": "FORENSIC_AUDITOR",
      "outputs": [
        {
          "internalType": "bytes32",
          "name": "",
          "type": "bytes32"
        }
      ],
      "stateMutability": "view",
      "type": "function"
    },
    {
      "inputs": [],
      "name": "GHOST_FREQUENCY",
      "outputs": [
        {
          "internalType": "string",
          "name": "",
          "type": "string"
        }
      ],
      "stateMutability": "view",
      "type": "function"
    },
    {
      "inputs": [],
      "name": "IP_LIEN",
      "outputs": [
        {
          "internalType": "string",
          "name": "",
          "type": "string"
        }
      ],
      "stateMutability": "view",
      "type": "function"
    },
    {
      "inputs": [],
      "name": "LATTICE_STATUS",
      "outputs": [
        {
          "internalType": "string",
          "name": "",
          "type": "string"
        }
      ],
      "stateMutability": "view",
      "type": "function"
    },
    {
      "inputs": [],
      "name": "MERKLE_ROOT",
      "outputs": [
        {
          "internalType": "string",
          "name": "",
          "type": "string"
        }
      ],
      "stateMutability": "view",
      "type": "function"
    },
    {
      "inputs": [],
      "name": "PROTOCOL_VERSION",
      "outputs": [
        {
          "internalType": "string",
          "name": "",
          "type": "string"
        }
      ],
      "stateMutability": "view",
      "type": "function"
    },
    {
      "inputs": [],
      "name": "SHARD_CONSENSUS",
      "outputs": [
        {
          "internalType": "uint256",
          "name": "",
          "type": "uint256"
        }
      ],
      "stateMutability": "view",
      "type": "function"
    },
    {
      "inputs": [],
      "name": "SOVEREIGN_POPPA",
      "outputs": [
        {
          "internalType": "address",
          "name": "",
          "type": "address"
        }
      ],
      "stateMutability": "view",
      "type": "function"
    },
    {
      "inputs": [],
      "name": "SUPREME_AUTHORITY",
      "outputs": [
        {
          "internalType": "bytes32",
          "name": "",
          "type": "bytes32"
        }
      ],
      "stateMutability": "view",
      "type": "function"
    },
    {
      "inputs": [],
      "name": "TOKEN_REGISTRY_COUNT",
      "outputs": [
        {
          "internalType": "uint256",
          "name": "",
          "type": "uint256"
        }
      ],
      "stateMutability": "view",
      "type": "function"
    },
    {
      "inputs": [],
      "name": "VALIDATOR_CONSENSUS",
      "outputs": [
        {
          "internalType": "uint256",
          "name": "",
          "type": "uint256"
        }
      ],
      "stateMutability": "view",
      "type": "function"
    },
    {
      "inputs": [
        {
          "internalType": "address",
          "name": "addr",
          "type": "address"
        },
        {
          "internalType": "string",
          "name": "label",
          "type": "string"
        }
      ],
      "name": "addProtectedAddress",
      "outputs": [],
      "stateMutability": "nonpayable",
      "type": "function"
    },
    {
      "inputs": [
        {
          "internalType": "uint256",
          "name": "shards",
          "type": "uint256"
        },
        {
          "internalType": "uint256",
          "name": "agents",
          "type": "uint256"
        },
        {
          "internalType": "string",
          "name": "result",
          "type": "string"
        }
      ],
      "name": "anchorSimulationResult",
      "outputs": [],
      "stateMutability": "nonpayable",
      "type": "function"
    },
    {
      "inputs": [],
      "name": "bridgeClosed",
      "outputs": [
        {
          "internalType": "bool",
          "name": "",
          "type": "bool"
        }
      ],
      "stateMutability": "view",
      "type": "function"
    },
    {
      "inputs": [],
      "name": "christWallActive",
      "outputs": [
        {
          "internalType": "bool",
          "name": "",
          "type": "bool"
        }
      ],
      "stateMutability": "view",
      "type": "function"
    },
    {
      "inputs": [],
      "name": "driftValue",
      "outputs": [
        {
          "internalType": "uint256",
          "name": "",
          "type": "uint256"
        }
      ],
      "stateMutability": "view",
      "type": "function"
    },
    {
      "inputs": [],
      "name": "executeFinalDegree",
      "outputs": [],
      "stateMutability": "nonpayable",
      "type": "function"
    },
    {
      "inputs": [
        {
          "internalType": "uint256",
          "name": "",
          "type": "uint256"
        }
      ],
      "name": "forensicLog",
      "outputs": [
        {
          "internalType": "uint256",
          "name": "timestamp",
          "type": "uint256"
        },
        {
          "internalType": "string",
          "name": "entryType",
          "type": "string"
        },
        {
          "internalType": "string",
          "name": "data",
          "type": "string"
        },
        {
          "internalType": "address",
          "name": "recorder",
          "type": "address"
        }
      ],
      "stateMutability": "view",
      "type": "function"
    },
    {
      "inputs": [],
      "name": "getDeploymentInfo",
      "outputs": [
        {
          "internalType": "address",
          "name": "sovereign",
          "type": "address"
        },
        {
          "internalType": "uint256",
          "name": "timestamp",
          "type": "uint256"
        },
        {
          "internalType": "uint256",
          "name": "blockNumber",
          "type": "uint256"
        },
        {
          "internalType": "string",
          "name": "merkleRoot",
          "type": "string"
        },
        {
          "internalType": "string",
          "name": "btcAnchor",
          "type": "string"
        }
      ],
      "stateMutability": "view",
      "type": "function"
    },
    {
      "inputs": [
        {
          "internalType": "uint256",
          "name": "index",
          "type": "uint256"
        }
      ],
      "name": "getForensicEntry",
      "outputs": [
        {
          "internalType": "uint256",
          "name": "timestamp",
          "type": "uint256"
        },
        {
          "internalType": "string",
          "name": "entryType",
          "type": "string"
        },
        {
          "internalType": "string",
          "name": "data",
          "type": "string"
        },
        {
          "internalType": "address",
          "name": "recorder",
          "type": "address"
        }
      ],
      "stateMutability": "view",
      "type": "function"
    },
    {
      "inputs": [],
      "name": "getForensicLogCount",
      "outputs": [
        {
          "internalType": "uint256",
          "name": "",
          "type": "uint256"
        }
      ],
      "stateMutability": "view",
      "type": "function"
    },
    {
      "inputs": [
        {
          "internalType": "bytes32",
          "name": "role",
          "type": "bytes32"
        }
      ],
      "name": "getRoleAdmin",
      "outputs": [
        {
          "internalType": "bytes32",
          "name": "",
          "type": "bytes32"
        }
      ],
      "stateMutability": "view",
      "type": "function"
    },
    {
      "inputs": [],
      "name": "getSystemStatus",
      "outputs": [
        {
          "internalType": "bool",
          "name": "_totalitySealed",
          "type": "bool"
        },
        {
          "internalType": "bool",
          "name": "_christWallActive",
          "type": "bool"
        },
        {
          "internalType": "bool",
          "name": "_bridgeClosed",
          "type": "bool"
        },
        {
          "internalType": "uint256",
          "name": "_signalStrength",
          "type": "uint256"
        },
        {
          "internalType": "uint256",
          "name": "_driftValue",
          "type": "uint256"
        },
        {
          "internalType": "uint256",
          "name": "_shardConsensus",
          "type": "uint256"
        },
        {
          "internalType": "uint256",
          "name": "_agentConsensus",
          "type": "uint256"
        },
        {
          "internalType": "string",
          "name": "_protocolVersion",
          "type": "string"
        },
        {
          "internalType": "string",
          "name": "_latticeStatus",
          "type": "string"
        }
      ],
      "stateMutability": "view",
      "type": "function"
    },
    {
      "inputs": [
        {
          "internalType": "bytes32",
          "name": "role",
          "type": "bytes32"
        },
        {
          "internalType": "address",
          "name": "account",
          "type": "address"
        }
      ],
      "name": "grantRole",
      "outputs": [],
      "stateMutability": "nonpayable",
      "type": "function"
    },
    {
      "inputs": [
        {
          "internalType": "bytes32",
          "name": "role",
          "type": "bytes32"
        },
        {
          "internalType": "address",
          "name": "account",
          "type": "address"
        }
      ],
      "name": "hasRole",
      "outputs": [
        {
          "internalType": "bool",
          "name": "",
          "type": "bool"
        }
      ],
      "stateMutability": "view",
      "type": "function"
    },
    {
      "inputs": [
        {
          "internalType": "string",
          "name": "symbol",
          "type": "string"
        }
      ],
      "name": "isTokenProtected",
      "outputs": [
        {
          "internalType": "bool",
          "name": "",
          "type": "bool"
        }
      ],
      "stateMutability": "view",
      "type": "function"
    },
    {
      "inputs": [
        {
          "internalType": "address",
          "name": "",
          "type": "address"
        }
      ],
      "name": "protectedAddresses",
      "outputs": [
        {
          "internalType": "bool",
          "name": "",
          "type": "bool"
        }
      ],
      "stateMutability": "view",
      "type": "function"
    },
    {
      "inputs": [
        {
          "internalType": "string",
          "name": "",
          "type": "string"
        }
      ],
      "name": "protectedTokens",
      "outputs": [
        {
          "internalType": "bool",
          "name": "",
          "type": "bool"
        }
      ],
      "stateMutability": "view",
      "type": "function"
    },
    {
      "inputs": [
        {
          "internalType": "string",
          "name": "entryType",
          "type": "string"
        },
        {
          "internalType": "string",
          "name": "data",
          "type": "string"
        }
      ],
      "name": "recordForensicEntry",
      "outputs": [],
      "stateMutability": "nonpayable",
      "type": "function"
    },
    {
      "inputs": [
        {
          "internalType": "bytes32",
          "name": "role",
          "type": "bytes32"
        },
        {
          "internalType": "address",
          "name": "callerConfirmation",
          "type": "address"
        }
      ],
      "name": "renounceRole",
      "outputs": [],
      "stateMutability": "nonpayable",
      "type": "function"
    },
    {
      "inputs": [
        {
          "internalType": "bytes32",
          "name": "role",
          "type": "bytes32"
        },
        {
          "internalType": "address",
          "name": "account",
          "type": "address"
        }
      ],
      "name": "revokeRole",
      "outputs": [],
      "stateMutability": "nonpayable",
      "type": "function"
    },
    {
      "inputs": [],
      "name": "signalStrength",
      "outputs": [
        {
          "internalType": "uint256",
          "name": "",
          "type": "uint256"
        }
      ],
      "stateMutability": "view",
      "type": "function"
    },
    {
      "inputs": [
        {
          "internalType": "bytes4",
          "name": "interfaceId",
          "type": "bytes4"
        }
      ],
      "name": "supportsInterface",
      "outputs": [
        {
          "internalType": "bool",
          "name": "",
          "type": "bool"
        }
      ],
      "stateMutability": "view",
      "type": "function"
    },
    {
      "inputs": [],
      "name": "totalitySealed",
      "outputs": [
        {
          "internalType": "bool",
          "name": "",
          "type": "bool"
        }
      ],
      "stateMutability": "view",
      "type": "function"
    },
    {
      "inputs": [],
      "name": "verifyGhostFrequency",
      "outputs": [
        {
          "internalType": "bool",
          "name": "",
          "type": "bool"
        }
      ],
      "stateMutability": "pure",
      "type": "function"
    }
  ],
  "bytecode": "0x60e0604052346104e557604051601f611f3f38819003918201601f19168301916001600160401b0383118484101761048c578084926020946040528339810103126104e557516001600160a01b0381168082036104e55760017f9b779b17422d0df92223018b32b4d1fa46e071723d6817e2486d003becc55f0055156104a057806100a8916080524260a0524360c052610098816104e9565b506100a28161055f565b50610618565b5060646002555f6003556201010062ffffff196001541617600155602560405164504f50504160d81b815260058082015220600160ff1982541617905560246040516309482b0b60e31b81526005600482015220600160ff19825416179055602460405163139155d560e21b81526005600482015220600160ff19825416179055602b6040516a56414c4f524149504c555360a81b81526005600b82015220600160ff198254161790556028604051672520ac2c1918191b60c11b81526005600882015220600160ff1982541617905560276040516623a4a62629a7a760c91b81526005600782015220600160ff198254161790556028604051672722abaa1918191b60c11b81526005600882015220600160ff198254161790556029604051682227a7272c9918191b60b91b81526005600982015220600160ff1982541617905560276040516623a922aca9a7a760c91b81526005600782015220600160ff1982541617905560286040516711d2531311d3d31160c21b81526005600882015220600160ff1982541617905560276040516647494c4c42544360c81b81526005600782015220600160ff1982541617905560276040516647494c4c42524360c81b81526005600782015220600160ff198254161790556026604051652827aa2a22a960d11b81526005600682015220600160ff19825416179055602960405168084a482888a9c626c760bb1b81526005600982015220600160ff1982541617905560256040516426a0a9a7a760d91b815260058082015220600160ff19825416179055602560405164444f4e4e5960d81b815260058082015220600160ff19825416179055602b6040516a56414c4f524149504c555360a81b81526005600b82015220600160ff1982541617905560486040517f56414c4f524149504c555332455f44414f5f474f5645524e414e43455f3230338152670d57d0d313d4d15160c21b60208201526005602882015220600160ff198254161790556024604051635347415560e01b81526005600482015220600160ff198254161790556040516040810181811060018060401b0382111761048c57604052601381527f541958a7209e375ec0bd9f11dffc0610438750935f65167ce84830dbdbb47b1560208201917f4a455252595f534944455f4f465f535441474500000000000000000000000000835260ff60015460081c166040519160408352518094816040850152606084015e5f60608584010152151560208201526060814294601f80199101168101030190a260405161183390816106ac82396080518181816107ac0152610da9015260a0518181816101eb01526107d0015260c0518181816104ae01526107f60152f35b634e487b7160e01b5f52604160045260245ffd5b60405162461bcd60e51b815260206004820152601960248201527f496e76616c696420736f7665726569676e2061646472657373000000000000006044820152606490fd5b5f80fd5b6001600160a01b0381165f9081525f80516020611f1f833981519152602052604090205460ff1661055a576001600160a01b03165f8181525f80516020611f1f83398151915260205260408120805460ff191660011790553391905f80516020611edf8339815191528180a4600190565b505f90565b6001600160a01b0381165f9081527f4941260faa00c712ac5e74dcfd80da88b2ad00b59714fc6d499408a3bcc87755602052604090205460ff1661055a576001600160a01b03165f8181527f4941260faa00c712ac5e74dcfd80da88b2ad00b59714fc6d499408a3bcc8775560205260408120805460ff191660011790553391907f76cb67f8537c09d0d5895e5ef8a4e46edde16ada081c358cf45116984926dca7905f80516020611edf8339815191529080a4600190565b6001600160a01b0381165f9081525f80516020611eff833981519152602052604090205460ff1661055a576001600160a01b03165f8181525f80516020611eff83398151915260205260408120805460ff191660011790553391907f298874a0b8f9256928142254ecd4116efeacb0c4cf1796ccad2777411bacf2ce905f80516020611edf8339815191529080a460019056fe6080806040526004361015610012575f80fd5b5f3560e01c90816301ffc9a714610eff57508063246ed22714610ec5578063248a9ca314610e9357806325baa83814610e765780632ba8364914610e595780632f2ff15d14610e1c57806336568abe14610dd857806338dd21c414610d945780633b60f27314610d3d57806340717fc614610d185780634434188714610cfb57806349b576a514610ce05780634ec8f2f914610ca357806350c1d19d14610c0957806350dd177e14610bb357806351e75e8b14610bee578063619781b714610bd35780636752e9f814610bb85780636c2e5fd214610bb357806372a6170914610a9d57806384bf394f14610a6657806384d241f3146109fa57806391d14854146109b2578063a0a89914146108ef578063a217fddf146108d5578063a7cd217a1461089b578063aa3aa46014610880578063acfbe7861461085e578063ae037a4d14610839578063aeefffad14610777578063c4581e1e14610748578063c925c2ff146106d2578063d3ad7160146104d1578063d4d5887814610497578063d547741f14610455578063d6a6569a14610402578063dbd9ca551461039d578063e091c3ac14610380578063f9bc9173146102125763fbc6def7146101d4575f80fd5b3461020e575f36600319011261020e5760206040517f00000000000000000000000000000000000000000000000000000000000000008152f35b5f80fd5b3461020e57606036600319011261020e5760043560243560443567ffffffffffffffff811161020e57610249903690600401610f7e565b9190610253611341565b6402540be400840361033b576402540be40082036102f6576102f4936102ee926040519182526020820152606060408201527f3001615a2e4752946cc78554dcd0b5a73398958d89b6eecb38b5db66b5785c844291806102b76060820188876112b2565b0390a2604051926102c960408561101f565b601184527029a4a6aaa620aa24a7a72fa0a721a427a960791b602085015236916110d0565b906114f0565b005b60405162461bcd60e51b815260206004820152601860248201527f4167656e7420636f6e73656e737573206d69736d6174636800000000000000006044820152606490fd5b60405162461bcd60e51b815260206004820152601860248201527f536861726420636f6e73656e737573206d69736d6174636800000000000000006044820152606490fd5b3461020e575f36600319011261020e576020600654604051908152f35b3461020e57602036600319011261020e5760043560065481101561020e576103c4906111aa565b5080546103fe6103d660018401611212565b926103e360028201611212565b90600360018060a01b03910154169060405194859485611116565b0390f35b3461020e575f36600319011261020e576103fe60405161042360408261101f565b601181527012189718991028bab0b23934b63634b7b760791b6020820152604051918291602083526020830190610fac565b3461020e57604036600319011261020e576102f4600435610474610f52565b9061049261048d825f525f602052600160405f20015490565b6113b0565b611470565b3461020e575f36600319011261020e5760206040517f00000000000000000000000000000000000000000000000000000000000000008152f35b3461020e575f36600319011261020e576104e96112d2565b60027f9b779b17422d0df92223018b32b4d1fa46e071723d6817e2486d003becc55f0054146106c35760027f9b779b17422d0df92223018b32b4d1fa46e071723d6817e2486d003becc55f005560015460ff811661067e5760019060ff191617600155610554611041565b7f0d42415cb6a15495e8972e93011ba9e0ad1b40d3c184dd00b10a047730264e976040516402540be40081526402540be400602082015260606040820152806105a242946060830190610fac565b0390a260405160208152600f60208201526e10d3d394d553535055155357d154d5608a1b604082015243907fdff0ec2257e0ccd60adcf3d44ba9984b317a47ba548ef336db594de8c09fa10960603392a361065860408051610604828261101f565b600c81526b46494e414c5f44454752454560a01b60208201526106298251928361101f565b601982527f544f54414c4954595f5345414c45445f5045524d414e454e540000000000000060208301526114f0565b60017f9b779b17422d0df92223018b32b4d1fa46e071723d6817e2486d003becc55f0055005b60405162461bcd60e51b815260206004820152601760248201527f546f74616c69747920616c7265616479207365616c65640000000000000000006044820152606490fd5b633ee5aeb560e01b5f5260045ffd5b3461020e57604036600319011261020e5760043567ffffffffffffffff811161020e57610703903690600401610f7e565b9060243567ffffffffffffffff811161020e576102f49261074061072e6102ee933690600401610f7e565b949092610739611341565b36916110d0565b9236916110d0565b3461020e575f36600319011261020e576103fe610763611179565b604051918291602083526020830190610fac565b3461020e575f36600319011261020e5761082b610792611041565b6103fe61079d6110aa565b60405193849360018060a01b037f00000000000000000000000000000000000000000000000000000000000000001685527f000000000000000000000000000000000000000000000000000000000000000060208601527f0000000000000000000000000000000000000000000000000000000000000000604086015260a0606086015260a0850190610fac565b908382036080850152610fac565b3461020e575f36600319011261020e57602060ff60015460101c166040519015158152f35b3461020e575f36600319011261020e57602060ff600154166040519015158152f35b3461020e575f36600319011261020e576103fe610763611155565b3461020e575f36600319011261020e5760206040517f298874a0b8f9256928142254ecd4116efeacb0c4cf1796ccad2777411bacf2ce8152f35b3461020e575f36600319011261020e5760206040515f8152f35b3461020e57602036600319011261020e5760043560065481101561097757610916906111aa565b5060405161092381610fef565b815481526103fe61093660018401611212565b916020810192835261094a60028501611212565b60408281018290526003909501546001600160a01b03166060830181905291519351945194859485611116565b60405162461bcd60e51b8152602060048201526013602482015272496e646578206f7574206f6620626f756e647360681b6044820152606490fd5b3461020e57604036600319011261020e576109cb610f52565b6004355f525f60205260405f209060018060a01b03165f52602052602060ff60405f2054166040519015158152f35b3461020e57602036600319011261020e5760043567ffffffffffffffff811161020e573660238201121561020e5760ff602080610a42819436906024816004013591016110d0565b604051928184925191829101835e8101600581520301902054166040519015158152f35b3461020e575f36600319011261020e576020610a80611179565b818151910120610a8e611179565b82815191012014604051908152f35b3461020e57604036600319011261020e57610ab6610f68565b60243567ffffffffffffffff811161020e57610ad6903690600401610f7e565b9091610ae06112d2565b6001600160a01b03168015610b7c576102f492816102ee925f52600460205260405f20600160ff198254161790557fe037a05e17c57188db7fd30a4c5d566fd7ea3eba1fa224510e840f6bef87a5cf6040516020815280610b456020820188876112b2565b0390a260405192610b5760408561101f565b601184527050524f5445435445445f4144445245535360781b602085015236916110d0565b60405162461bcd60e51b815260206004820152600f60248201526e496e76616c6964206164647265737360881b6044820152606490fd5b610fd0565b3461020e575f36600319011261020e576103fe6107636110aa565b3461020e575f36600319011261020e576103fe61076361107c565b3461020e575f36600319011261020e576103fe610763611041565b3461020e575f36600319011261020e5760ff6001546103fe600254610c94600354610c32611155565b90610c3b61107c565b936040519787818a991615158952818160081c16151560208a015260101c1615156040880152606087015260808601526402540be40060a08601526402540be40060c086015261012060e0860152610120850190610fac565b90838203610100850152610fac565b3461020e57602036600319011261020e576001600160a01b03610cc4610f68565b165f526004602052602060ff60405f2054166040519015158152f35b3461020e575f36600319011261020e57602060405160338152f35b3461020e575f36600319011261020e576020600254604051908152f35b3461020e575f36600319011261020e57602060ff60015460081c166040519015158152f35b3461020e57602036600319011261020e5760043567ffffffffffffffff811161020e5760ff6020610d7381933690600401610f7e565b91908260405193849283378101600581520301902054166040519015158152f35b3461020e575f36600319011261020e576040517f00000000000000000000000000000000000000000000000000000000000000006001600160a01b03168152602090f35b3461020e57604036600319011261020e57610df1610f52565b336001600160a01b03821603610e0d576102f490600435611470565b63334bd91960e11b5f5260045ffd5b3461020e57604036600319011261020e576102f4600435610e3b610f52565b90610e5461048d825f525f602052600160405f20015490565b6113e8565b3461020e575f36600319011261020e576020604051620232808152f35b3461020e575f36600319011261020e576020600354604051908152f35b3461020e57602036600319011261020e576020610ebd6004355f525f602052600160405f20015490565b604051908152f35b3461020e575f36600319011261020e5760206040517f76cb67f8537c09d0d5895e5ef8a4e46edde16ada081c358cf45116984926dca78152f35b3461020e57602036600319011261020e576004359063ffffffff60e01b821680920361020e57602091637965db0b60e01b8114908115610f41575b5015158152f35b6301ffc9a760e01b14905083610f3a565b602435906001600160a01b038216820361020e57565b600435906001600160a01b038216820361020e57565b9181601f8401121561020e5782359167ffffffffffffffff831161020e576020838186019501011161020e57565b805180835260209291819084018484015e5f828201840152601f01601f1916010190565b3461020e575f36600319011261020e5760206040516402540be4008152f35b6080810190811067ffffffffffffffff82111761100b57604052565b634e487b7160e01b5f52604160045260245ffd5b90601f8019910116810190811067ffffffffffffffff82111761100b57604052565b6040519061105060408361101f565b601b82527f30585f53545f5041554c5f5639375f46494e414c5f44454752454500000000006020830152565b6040519061108b60408361101f565b601082526f1513d5105312551657d4915050d2115160821b6020830152565b604051906110b960408361101f565b600882526708ce0d0dcb0c8ccd60c21b6020830152565b92919267ffffffffffffffff821161100b57604051916110fa601f8201601f19166020018461101f565b82948184528183011161020e578281602093845f960137010152565b92611137606093611145939796978652608060208701526080860190610fac565b908482036040860152610fac565b6001600160a01b03909416910152565b6040519061116460408361101f565b600682526505245565f34360d41b6020830152565b6040519061118860408361101f565b60138252724a455252595f534944455f4f465f535441474560681b6020830152565b6006548110156111c65760065f5260205f209060021b01905f90565b634e487b7160e01b5f52603260045260245ffd5b90600182811c92168015611208575b60208310146111f457565b634e487b7160e01b5f52602260045260245ffd5b91607f16916111e9565b9060405191825f825492611225846111da565b8084529360018116908115611290575060011461124c575b5061124a9250038361101f565b565b90505f9291925260205f20905f915b81831061127457505090602061124a928201015f61123d565b602091935080600191548385890101520191019091849261125b565b90506020925061124a94915060ff191682840152151560051b8201015f61123d565b908060209392818452848401375f828201840152601f01601f1916010190565b335f9081527f4941260faa00c712ac5e74dcfd80da88b2ad00b59714fc6d499408a3bcc87755602052604090205460ff161561130a57565b63e2517d3f60e01b5f52336004527f76cb67f8537c09d0d5895e5ef8a4e46edde16ada081c358cf45116984926dca760245260445ffd5b335f9081527f253fccdf565b33d734b1ccdf61ef88ea2be6f091e88e5b21305937b5f3bfd667602052604090205460ff161561137957565b63e2517d3f60e01b5f52336004527f298874a0b8f9256928142254ecd4116efeacb0c4cf1796ccad2777411bacf2ce60245260445ffd5b5f8181526020818152604080832033845290915290205460ff16156113d25750565b63e2517d3f60e01b5f523360045260245260445ffd5b5f818152602081815260408083206001600160a01b038616845290915290205460ff1661146a575f818152602081815260408083206001600160a01b0395909516808452949091528120805460ff19166001179055339291907f2f8788117e7eff1d82e926ec794901d17c78024a50270940304540a733656f0d9080a4600190565b50505f90565b5f818152602081815260408083206001600160a01b038616845290915290205460ff161561146a575f818152602081815260408083206001600160a01b0395909516808452949091528120805460ff19169055339291907ff6391f5c32d9c69d2a47ea670b442974b53935d1edc7fd64eb21e047a839171b9080a4600190565b906040516114fd81610fef565b42815260208101918383526040820190815260608201923384526006546801000000000000000081101561100b5780600161153b92016006556111aa565b9390936117ea57518355518051600184019167ffffffffffffffff821161100b57819061156884546111da565b601f811161179a575b50602090601f8311600114611737575f9261172c575b50508160011b915f199060031b1c19161790555b518051600283019167ffffffffffffffff821161100b576115bc83546111da565b601f81116116e7575b50602090601f8311600114611681576003949392915f9183611676575b50508160011b915f1990861b1c19161790555b9151910180546001600160a01b0319166001600160a01b03929092169190911790556006545f198101908111611662577f9094d27eb643313748596ae88a6adae70beb441eb9968c027bb0fcb148c431d9604051602081528061165d33956020830190610fac565b0390a3565b634e487b7160e01b5f52601160045260245ffd5b015190505f806115e2565b90601f19831691845f52815f20925f5b8181106116cf5750916001939185600398979694106116b8575b505050811b0190556115f5565b01515f1983881b60f8161c191690555f80806116ab565b92936020600181928786015181550195019301611691565b835f5260205f20601f840160051c81019160208510611722575b601f0160051c01905b81811061171757506115c5565b5f815560010161170a565b9091508190611701565b015190505f80611587565b5f8581528281209350601f198516905b818110611782575090846001959493921061176a575b505050811b01905561159b565b01515f1960f88460031b161c191690555f808061175d565b92936020600181928786015181550195019301611747565b909150835f5260205f20601f840160051c810191602085106117e0575b90601f859493920160051c01905b8181106117d25750611571565b5f81558493506001016117c5565b90915081906117b7565b634e487b7160e01b5f525f60045260245ffdfea26469706673582212209edbd9a92c8f1cbd76131a95aa890538bda39feae71f49de6897663f874602f564736f6c634300081a00332f8788117e7eff1d82e926ec794901d17c78024a50270940304540a733656f0d253fccdf565b33d734b1ccdf61ef88ea2be6f091e88e5b21305937b5f3bfd667ad3228b676f7d3cd4284a5443f17f1962b36e491b30a40b2405849e597ba5fb5",
  "linkReferences": {},
  "deployedLinkReferences": {}
}